{
  "_format": "hh-sol-artifact-1",
  "contractName": "NFTMonster",
  "sourceName": "contracts/NFTMonster.sol",
  "abi": [
    {
      "inputs": [],
      "stateMutability": "nonpayable",
      "type": "constructor"
    },
    {
      "inputs": [
        {
          "internalType": "address",
          "name": "sender",
          "type": "address"
        },
        {
          "internalType": "uint256",
          "name": "balance",
          "type": "uint256"
        },
        {
          "internalType": "uint256",
          "name": "needed",
          "type": "uint256"
        },
        {
          "internalType": "uint256",
          "name": "tokenId",
          "type": "uint256"
        }
      ],
      "name": "ERC1155InsufficientBalance",
      "type": "error"
    },
    {
      "inputs": [
        {
          "internalType": "address",
          "name": "approver",
          "type": "address"
        }
      ],
      "name": "ERC1155InvalidApprover",
      "type": "error"
    },
    {
      "inputs": [
        {
          "internalType": "uint256",
          "name": "idsLength",
          "type": "uint256"
        },
        {
          "internalType": "uint256",
          "name": "valuesLength",
          "type": "uint256"
        }
      ],
      "name": "ERC1155InvalidArrayLength",
      "type": "error"
    },
    {
      "inputs": [
        {
          "internalType": "address",
          "name": "operator",
          "type": "address"
        }
      ],
      "name": "ERC1155InvalidOperator",
      "type": "error"
    },
    {
      "inputs": [
        {
          "internalType": "address",
          "name": "receiver",
          "type": "address"
        }
      ],
      "name": "ERC1155InvalidReceiver",
      "type": "error"
    },
    {
      "inputs": [
        {
          "internalType": "address",
          "name": "sender",
          "type": "address"
        }
      ],
      "name": "ERC1155InvalidSender",
      "type": "error"
    },
    {
      "inputs": [
        {
          "internalType": "address",
          "name": "operator",
          "type": "address"
        },
        {
          "internalType": "address",
          "name": "owner",
          "type": "address"
        }
      ],
      "name": "ERC1155MissingApprovalForAll",
      "type": "error"
    },
    {
      "inputs": [
        {
          "internalType": "address",
          "name": "owner",
          "type": "address"
        }
      ],
      "name": "OwnableInvalidOwner",
      "type": "error"
    },
    {
      "inputs": [
        {
          "internalType": "address",
          "name": "account",
          "type": "address"
        }
      ],
      "name": "OwnableUnauthorizedAccount",
      "type": "error"
    },
    {
      "anonymous": false,
      "inputs": [
        {
          "indexed": true,
          "internalType": "address",
          "name": "account",
          "type": "address"
        },
        {
          "indexed": true,
          "internalType": "address",
          "name": "operator",
          "type": "address"
        },
        {
          "indexed": false,
          "internalType": "bool",
          "name": "approved",
          "type": "bool"
        }
      ],
      "name": "ApprovalForAll",
      "type": "event"
    },
    {
      "anonymous": false,
      "inputs": [
        {
          "indexed": true,
          "internalType": "address",
          "name": "previousOwner",
          "type": "address"
        },
        {
          "indexed": true,
          "internalType": "address",
          "name": "newOwner",
          "type": "address"
        }
      ],
      "name": "OwnershipTransferred",
      "type": "event"
    },
    {
      "anonymous": false,
      "inputs": [
        {
          "indexed": true,
          "internalType": "address",
          "name": "operator",
          "type": "address"
        },
        {
          "indexed": true,
          "internalType": "address",
          "name": "from",
          "type": "address"
        },
        {
          "indexed": true,
          "internalType": "address",
          "name": "to",
          "type": "address"
        },
        {
          "indexed": false,
          "internalType": "uint256[]",
          "name": "ids",
          "type": "uint256[]"
        },
        {
          "indexed": false,
          "internalType": "uint256[]",
          "name": "values",
          "type": "uint256[]"
        }
      ],
      "name": "TransferBatch",
      "type": "event"
    },
    {
      "anonymous": false,
      "inputs": [
        {
          "indexed": true,
          "internalType": "address",
          "name": "operator",
          "type": "address"
        },
        {
          "indexed": true,
          "internalType": "address",
          "name": "from",
          "type": "address"
        },
        {
          "indexed": true,
          "internalType": "address",
          "name": "to",
          "type": "address"
        },
        {
          "indexed": false,
          "internalType": "uint256",
          "name": "id",
          "type": "uint256"
        },
        {
          "indexed": false,
          "internalType": "uint256",
          "name": "value",
          "type": "uint256"
        }
      ],
      "name": "TransferSingle",
      "type": "event"
    },
    {
      "anonymous": false,
      "inputs": [
        {
          "indexed": false,
          "internalType": "string",
          "name": "value",
          "type": "string"
        },
        {
          "indexed": true,
          "internalType": "uint256",
          "name": "id",
          "type": "uint256"
        }
      ],
      "name": "URI",
      "type": "event"
    },
    {
      "inputs": [],
      "name": "HEALING_POTION",
      "outputs": [
        {
          "internalType": "uint256",
          "name": "",
          "type": "uint256"
        }
      ],
      "stateMutability": "view",
      "type": "function"
    },
    {
      "inputs": [],
      "name": "LOKIS_HAMMER",
      "outputs": [
        {
          "internalType": "uint256",
          "name": "",
          "type": "uint256"
        }
      ],
      "stateMutability": "view",
      "type": "function"
    },
    {
      "inputs": [],
      "name": "MAGIC_POTION",
      "outputs": [
        {
          "internalType": "uint256",
          "name": "",
          "type": "uint256"
        }
      ],
      "stateMutability": "view",
      "type": "function"
    },
    {
      "inputs": [],
      "name": "MANA_POTION",
      "outputs": [
        {
          "internalType": "uint256",
          "name": "",
          "type": "uint256"
        }
      ],
      "stateMutability": "view",
      "type": "function"
    },
    {
      "inputs": [],
      "name": "SHIELD",
      "outputs": [
        {
          "internalType": "uint256",
          "name": "",
          "type": "uint256"
        }
      ],
      "stateMutability": "view",
      "type": "function"
    },
    {
      "inputs": [],
      "name": "SWORD",
      "outputs": [
        {
          "internalType": "uint256",
          "name": "",
          "type": "uint256"
        }
      ],
      "stateMutability": "view",
      "type": "function"
    },
    {
      "inputs": [
        {
          "internalType": "address",
          "name": "account",
          "type": "address"
        },
        {
          "internalType": "uint256",
          "name": "id",
          "type": "uint256"
        }
      ],
      "name": "balanceOf",
      "outputs": [
        {
          "internalType": "uint256",
          "name": "",
          "type": "uint256"
        }
      ],
      "stateMutability": "view",
      "type": "function"
    },
    {
      "inputs": [
        {
          "internalType": "address[]",
          "name": "accounts",
          "type": "address[]"
        },
        {
          "internalType": "uint256[]",
          "name": "ids",
          "type": "uint256[]"
        }
      ],
      "name": "balanceOfBatch",
      "outputs": [
        {
          "internalType": "uint256[]",
          "name": "",
          "type": "uint256[]"
        }
      ],
      "stateMutability": "view",
      "type": "function"
    },
    {
      "inputs": [
        {
          "internalType": "address",
          "name": "account",
          "type": "address"
        },
        {
          "internalType": "address",
          "name": "operator",
          "type": "address"
        }
      ],
      "name": "isApprovedForAll",
      "outputs": [
        {
          "internalType": "bool",
          "name": "",
          "type": "bool"
        }
      ],
      "stateMutability": "view",
      "type": "function"
    },
    {
      "inputs": [],
      "name": "owner",
      "outputs": [
        {
          "internalType": "address",
          "name": "",
          "type": "address"
        }
      ],
      "stateMutability": "view",
      "type": "function"
    },
    {
      "inputs": [],
      "name": "renounceOwnership",
      "outputs": [],
      "stateMutability": "nonpayable",
      "type": "function"
    },
    {
      "inputs": [
        {
          "internalType": "address",
          "name": "from",
          "type": "address"
        },
        {
          "internalType": "address",
          "name": "to",
          "type": "address"
        },
        {
          "internalType": "uint256[]",
          "name": "ids",
          "type": "uint256[]"
        },
        {
          "internalType": "uint256[]",
          "name": "values",
          "type": "uint256[]"
        },
        {
          "internalType": "bytes",
          "name": "data",
          "type": "bytes"
        }
      ],
      "name": "safeBatchTransferFrom",
      "outputs": [],
      "stateMutability": "nonpayable",
      "type": "function"
    },
    {
      "inputs": [
        {
          "internalType": "address",
          "name": "from",
          "type": "address"
        },
        {
          "internalType": "address",
          "name": "to",
          "type": "address"
        },
        {
          "internalType": "uint256",
          "name": "id",
          "type": "uint256"
        },
        {
          "internalType": "uint256",
          "name": "value",
          "type": "uint256"
        },
        {
          "internalType": "bytes",
          "name": "data",
          "type": "bytes"
        }
      ],
      "name": "safeTransferFrom",
      "outputs": [],
      "stateMutability": "nonpayable",
      "type": "function"
    },
    {
      "inputs": [
        {
          "internalType": "address",
          "name": "operator",
          "type": "address"
        },
        {
          "internalType": "bool",
          "name": "approved",
          "type": "bool"
        }
      ],
      "name": "setApprovalForAll",
      "outputs": [],
      "stateMutability": "nonpayable",
      "type": "function"
    },
    {
      "inputs": [
        {
          "internalType": "bytes4",
          "name": "interfaceId",
          "type": "bytes4"
        }
      ],
      "name": "supportsInterface",
      "outputs": [
        {
          "internalType": "bool",
          "name": "",
          "type": "bool"
        }
      ],
      "stateMutability": "view",
      "type": "function"
    },
    {
      "inputs": [
        {
          "internalType": "address",
          "name": "newOwner",
          "type": "address"
        }
      ],
      "name": "transferOwnership",
      "outputs": [],
      "stateMutability": "nonpayable",
      "type": "function"
    },
    {
      "inputs": [
        {
          "internalType": "address",
          "name": "to",
          "type": "address"
        },
        {
          "internalType": "uint256",
          "name": "id",
          "type": "uint256"
        },
        {
          "internalType": "uint256",
          "name": "amount",
          "type": "uint256"
        }
      ],
      "name": "transferToken",
      "outputs": [],
      "stateMutability": "nonpayable",
      "type": "function"
    },
    {
      "inputs": [
        {
          "internalType": "uint256",
          "name": "",
          "type": "uint256"
        }
      ],
      "name": "uri",
      "outputs": [
        {
          "internalType": "string",
          "name": "",
          "type": "string"
        }
      ],
      "stateMutability": "view",
      "type": "function"
    }
  ],
  "bytecode": "0x60806040523480156200001157600080fd5b5033604051806020016040528060008152506200003481620001e260201b60201c565b50600073ffffffffffffffffffffffffffffffffffffffff168173ffffffffffffffffffffffffffffffffffffffff1603620000aa5760006040517f1e4fbdf7000000000000000000000000000000000000000000000000000000008152600401620000a1919062000c2b565b60405180910390fd5b620000bb81620001f760201b60201c565b50620000ec3360006b033b2e3c9fd0803ce800000060405180602001604052806000815250620002bd60201b60201c565b6200011c3360016b033b2e3c9fd0803ce800000060405180602001604052806000815250620002bd60201b60201c565b6200014c3360026b033b2e3c9fd0803ce800000060405180602001604052806000815250620002bd60201b60201c565b6200017c3360036b033b2e3c9fd0803ce800000060405180602001604052806000815250620002bd60201b60201c565b620001ac3360046b033b2e3c9fd0803ce800000060405180602001604052806000815250620002bd60201b60201c565b620001dc3360056b033b2e3c9fd0803ce800000060405180602001604052806000815250620002bd60201b60201c565b620013f8565b8060029081620001f3919062000ec2565b5050565b6000600360009054906101000a900473ffffffffffffffffffffffffffffffffffffffff16905081600360006101000a81548173ffffffffffffffffffffffffffffffffffffffff021916908373ffffffffffffffffffffffffffffffffffffffff1602179055508173ffffffffffffffffffffffffffffffffffffffff168173ffffffffffffffffffffffffffffffffffffffff167f8be0079c531659141344cd1fd0a4f28419497f9722a3daafe3b4186f6b6457e060405160405180910390a35050565b600073ffffffffffffffffffffffffffffffffffffffff168473ffffffffffffffffffffffffffffffffffffffff1603620003325760006040517f57f447ce00000000000000000000000000000000000000000000000000000000815260040162000329919062000c2b565b60405180910390fd5b6000806200034785856200036960201b60201c565b91509150620003616000878484876200039960201b60201c565b505050505050565b60608060405191506001825283602083015260408201905060018152826020820152604081016040529250929050565b620003ad858585856200047260201b60201c565b600073ffffffffffffffffffffffffffffffffffffffff168473ffffffffffffffffffffffffffffffffffffffff16146200046b576000620003f46200084460201b60201c565b9050600184510362000452576000620004186000866200084c60201b90919060201c565b90506000620004326000866200084c60201b90919060201c565b90506200044a8389898585896200086060201b60201c565b505062000469565b6200046881878787878762000a2360201b60201c565b5b505b5050505050565b8051825114620004bf57815181516040517f5b059991000000000000000000000000000000000000000000000000000000008152600401620004b692919062000fba565b60405180910390fd5b6000620004d16200084460201b60201c565b905060005b8351811015620006f5576000620004f782866200084c60201b90919060201c565b905060006200051083866200084c60201b90919060201c565b9050600073ffffffffffffffffffffffffffffffffffffffff168873ffffffffffffffffffffffffffffffffffffffff16146200064157600080600084815260200190815260200160002060008a73ffffffffffffffffffffffffffffffffffffffff1673ffffffffffffffffffffffffffffffffffffffff16815260200190815260200160002054905081811015620005e957888183856040517f03dee4c5000000000000000000000000000000000000000000000000000000008152600401620005e0949392919062000fe7565b60405180910390fd5b81810360008085815260200190815260200160002060008b73ffffffffffffffffffffffffffffffffffffffff1673ffffffffffffffffffffffffffffffffffffffff16815260200190815260200160002081905550505b600073ffffffffffffffffffffffffffffffffffffffff168773ffffffffffffffffffffffffffffffffffffffff1614620006df578060008084815260200190815260200160002060008973ffffffffffffffffffffffffffffffffffffffff1673ffffffffffffffffffffffffffffffffffffffff1681526020019081526020016000206000828254620006d7919062001063565b925050819055505b505080620006ed906200109e565b9050620004d6565b506001835103620007bc576000620007186000856200084c60201b90919060201c565b90506000620007326000856200084c60201b90919060201c565b90508573ffffffffffffffffffffffffffffffffffffffff168773ffffffffffffffffffffffffffffffffffffffff168473ffffffffffffffffffffffffffffffffffffffff167fc3d58168c5ae7397731d063d5bbf3d657854427343f4c083240f7aacaa2d0f628585604051620007ac92919062000fba565b60405180910390a450506200083d565b8373ffffffffffffffffffffffffffffffffffffffff168573ffffffffffffffffffffffffffffffffffffffff168273ffffffffffffffffffffffffffffffffffffffff167f4a39dc06d4c0dbc64b70af90fd698a233a518aa5d07e595d983b8c0526c8f7fb868660405162000834929190620011b9565b60405180910390a45b5050505050565b600033905090565b600060208202602084010151905092915050565b60008473ffffffffffffffffffffffffffffffffffffffff163b111562000a1b578373ffffffffffffffffffffffffffffffffffffffff1663f23a6e6187878686866040518663ffffffff1660e01b8152600401620008c49594939291906200128e565b6020604051808303816000875af19250505080156200090357506040513d601f19601f8201168201806040525081019062000900919062001354565b60015b6200098d573d806000811462000936576040519150601f19603f3d011682016040523d82523d6000602084013e6200093b565b606091505b5060008151036200098557846040517f57f447ce0000000000000000000000000000000000000000000000000000000081526004016200097c919062000c2b565b60405180910390fd5b805181602001fd5b63f23a6e6160e01b7bffffffffffffffffffffffffffffffffffffffffffffffffffffffff1916817bffffffffffffffffffffffffffffffffffffffffffffffffffffffff19161462000a1957846040517f57f447ce00000000000000000000000000000000000000000000000000000000815260040162000a10919062000c2b565b60405180910390fd5b505b505050505050565b60008473ffffffffffffffffffffffffffffffffffffffff163b111562000bde578373ffffffffffffffffffffffffffffffffffffffff1663bc197c8187878686866040518663ffffffff1660e01b815260040162000a8795949392919062001386565b6020604051808303816000875af192505050801562000ac657506040513d601f19601f8201168201806040525081019062000ac3919062001354565b60015b62000b50573d806000811462000af9576040519150601f19603f3d011682016040523d82523d6000602084013e62000afe565b606091505b50600081510362000b4857846040517f57f447ce00000000000000000000000000000000000000000000000000000000815260040162000b3f919062000c2b565b60405180910390fd5b805181602001fd5b63bc197c8160e01b7bffffffffffffffffffffffffffffffffffffffffffffffffffffffff1916817bffffffffffffffffffffffffffffffffffffffffffffffffffffffff19161462000bdc57846040517f57f447ce00000000000000000000000000000000000000000000000000000000815260040162000bd3919062000c2b565b60405180910390fd5b505b505050505050565b600073ffffffffffffffffffffffffffffffffffffffff82169050919050565b600062000c138262000be6565b9050919050565b62000c258162000c06565b82525050565b600060208201905062000c42600083018462000c1a565b92915050565b600081519050919050565b7f4e487b7100000000000000000000000000000000000000000000000000000000600052604160045260246000fd5b7f4e487b7100000000000000000000000000000000000000000000000000000000600052602260045260246000fd5b6000600282049050600182168062000cca57607f821691505b60208210810362000ce05762000cdf62000c82565b5b50919050565b60008190508160005260206000209050919050565b60006020601f8301049050919050565b600082821b905092915050565b60006008830262000d4a7fffffffffffffffffffffffffffffffffffffffffffffffffffffffffffffffff8262000d0b565b62000d56868362000d0b565b95508019841693508086168417925050509392505050565b6000819050919050565b6000819050919050565b600062000da362000d9d62000d978462000d6e565b62000d78565b62000d6e565b9050919050565b6000819050919050565b62000dbf8362000d82565b62000dd762000dce8262000daa565b84845462000d18565b825550505050565b600090565b62000dee62000ddf565b62000dfb81848462000db4565b505050565b5b8181101562000e235762000e1760008262000de4565b60018101905062000e01565b5050565b601f82111562000e725762000e3c8162000ce6565b62000e478462000cfb565b8101602085101562000e57578190505b62000e6f62000e668562000cfb565b83018262000e00565b50505b505050565b600082821c905092915050565b600062000e976000198460080262000e77565b1980831691505092915050565b600062000eb2838362000e84565b9150826002028217905092915050565b62000ecd8262000c48565b67ffffffffffffffff81111562000ee95762000ee862000c53565b5b62000ef5825462000cb1565b62000f0282828562000e27565b600060209050601f83116001811462000f3a576000841562000f25578287015190505b62000f31858262000ea4565b86555062000fa1565b601f19841662000f4a8662000ce6565b60005b8281101562000f745784890151825560018201915060208501945060208101905062000f4d565b8683101562000f94578489015162000f90601f89168262000e84565b8355505b6001600288020188555050505b505050505050565b62000fb48162000d6e565b82525050565b600060408201905062000fd1600083018562000fa9565b62000fe0602083018462000fa9565b9392505050565b600060808201905062000ffe600083018762000c1a565b6200100d602083018662000fa9565b6200101c604083018562000fa9565b6200102b606083018462000fa9565b95945050505050565b7f4e487b7100000000000000000000000000000000000000000000000000000000600052601160045260246000fd5b6000620010708262000d6e565b91506200107d8362000d6e565b925082820190508082111562001098576200109762001034565b5b92915050565b6000620010ab8262000d6e565b91507fffffffffffffffffffffffffffffffffffffffffffffffffffffffffffffffff8203620010e057620010df62001034565b5b600182019050919050565b600081519050919050565b600082825260208201905092915050565b6000819050602082019050919050565b620011228162000d6e565b82525050565b600062001136838362001117565b60208301905092915050565b6000602082019050919050565b60006200115c82620010eb565b620011688185620010f6565b9350620011758362001107565b8060005b83811015620011ac57815162001190888262001128565b97506200119d8362001142565b92505060018101905062001179565b5085935050505092915050565b60006040820190508181036000830152620011d581856200114f565b90508181036020830152620011eb81846200114f565b90509392505050565b600081519050919050565b600082825260208201905092915050565b60005b838110156200123057808201518184015260208101905062001213565b60008484015250505050565b6000601f19601f8301169050919050565b60006200125a82620011f4565b620012668185620011ff565b93506200127881856020860162001210565b62001283816200123c565b840191505092915050565b600060a082019050620012a5600083018862000c1a565b620012b4602083018762000c1a565b620012c3604083018662000fa9565b620012d2606083018562000fa9565b8181036080830152620012e681846200124d565b90509695505050505050565b600080fd5b60007fffffffff0000000000000000000000000000000000000000000000000000000082169050919050565b6200132e81620012f7565b81146200133a57600080fd5b50565b6000815190506200134e8162001323565b92915050565b6000602082840312156200136d576200136c620012f2565b5b60006200137d848285016200133d565b91505092915050565b600060a0820190506200139d600083018862000c1a565b620013ac602083018762000c1a565b8181036040830152620013c081866200114f565b90508181036060830152620013d681856200114f565b90508181036080830152620013ec81846200124d565b90509695505050505050565b6123bf80620014086000396000f3fe608060405234801561001057600080fd5b50600436106101155760003560e01c80634e1273f4116100a257806394175a681161007157806394175a68146102d0578063a22cb465146102ee578063e985e9c51461030a578063f242432a1461033a578063f2fde38b1461035657610115565b80634e1273f41461025a5780635b2725ed1461028a578063715018a6146102a85780638da5cb5b146102b257610115565b806313dc989f116100e957806313dc989f146101c857806321663893146101e65780632e1faf75146102045780632eb2c2d61461022057806340b870a91461023c57610115565b8062fdd58e1461011a57806301ffc9a71461014a578063065bcf951461017a5780630e89341c14610198575b600080fd5b610134600480360381019061012f9190611750565b610372565b604051610141919061179f565b60405180910390f35b610164600480360381019061015f9190611812565b6103cc565b604051610171919061185a565b60405180910390f35b6101826104ae565b60405161018f919061179f565b60405180910390f35b6101b260048036038101906101ad9190611875565b6104b3565b6040516101bf9190611932565b60405180910390f35b6101d0610547565b6040516101dd919061179f565b60405180910390f35b6101ee61054c565b6040516101fb919061179f565b60405180910390f35b61021e60048036038101906102199190611954565b610551565b005b61023a60048036038101906102359190611ba4565b61057a565b005b610244610622565b604051610251919061179f565b60405180910390f35b610274600480360381019061026f9190611d36565b610627565b6040516102819190611e6c565b60405180910390f35b610292610736565b60405161029f919061179f565b60405180910390f35b6102b061073b565b005b6102ba61074f565b6040516102c79190611e9d565b60405180910390f35b6102d8610779565b6040516102e5919061179f565b60405180910390f35b61030860048036038101906103039190611ee4565b61077e565b005b610324600480360381019061031f9190611f24565b610794565b604051610331919061185a565b60405180910390f35b610354600480360381019061034f9190611f64565b610828565b005b610370600480360381019061036b9190611ffb565b6108d0565b005b600080600083815260200190815260200160002060008473ffffffffffffffffffffffffffffffffffffffff1673ffffffffffffffffffffffffffffffffffffffff16815260200190815260200160002054905092915050565b60007fd9b67a26000000000000000000000000000000000000000000000000000000007bffffffffffffffffffffffffffffffffffffffffffffffffffffffff1916827bffffffffffffffffffffffffffffffffffffffffffffffffffffffff1916148061049757507f0e89341c000000000000000000000000000000000000000000000000000000007bffffffffffffffffffffffffffffffffffffffffffffffffffffffff1916827bffffffffffffffffffffffffffffffffffffffffffffffffffffffff1916145b806104a757506104a682610956565b5b9050919050565b600581565b6060600280546104c290612057565b80601f01602080910402602001604051908101604052809291908181526020018280546104ee90612057565b801561053b5780601f106105105761010080835404028352916020019161053b565b820191906000526020600020905b81548152906001019060200180831161051e57829003601f168201915b50505050509050919050565b600381565b600081565b6105596109c0565b6105753384848460405180602001604052806000815250610828565b505050565b6000610584610a47565b90508073ffffffffffffffffffffffffffffffffffffffff168673ffffffffffffffffffffffffffffffffffffffff16141580156105c957506105c78682610794565b155b1561060d5780866040517fe237d922000000000000000000000000000000000000000000000000000000008152600401610604929190612088565b60405180910390fd5b61061a8686868686610a4f565b505050505050565b600281565b6060815183511461067357815183516040517f5b05999100000000000000000000000000000000000000000000000000000000815260040161066a9291906120b1565b60405180910390fd5b6000835167ffffffffffffffff8111156106905761068f6119ac565b5b6040519080825280602002602001820160405280156106be5781602001602082028036833780820191505090505b50905060005b845181101561072b576106fb6106e38287610b4790919063ffffffff16565b6106f68387610b5b90919063ffffffff16565b610372565b82828151811061070e5761070d6120da565b5b6020026020010181815250508061072490612138565b90506106c4565b508091505092915050565b600481565b6107436109c0565b61074d6000610b6f565b565b6000600360009054906101000a900473ffffffffffffffffffffffffffffffffffffffff16905090565b600181565b610790610789610a47565b8383610c35565b5050565b6000600160008473ffffffffffffffffffffffffffffffffffffffff1673ffffffffffffffffffffffffffffffffffffffff16815260200190815260200160002060008373ffffffffffffffffffffffffffffffffffffffff1673ffffffffffffffffffffffffffffffffffffffff16815260200190815260200160002060009054906101000a900460ff16905092915050565b6000610832610a47565b90508073ffffffffffffffffffffffffffffffffffffffff168673ffffffffffffffffffffffffffffffffffffffff161415801561087757506108758682610794565b155b156108bb5780866040517fe237d9220000000000000000000000000000000000000000000000000000000081526004016108b2929190612088565b60405180910390fd5b6108c88686868686610da5565b505050505050565b6108d86109c0565b600073ffffffffffffffffffffffffffffffffffffffff168173ffffffffffffffffffffffffffffffffffffffff160361094a5760006040517f1e4fbdf70000000000000000000000000000000000000000000000000000000081526004016109419190611e9d565b60405180910390fd5b61095381610b6f565b50565b60007f01ffc9a7000000000000000000000000000000000000000000000000000000007bffffffffffffffffffffffffffffffffffffffffffffffffffffffff1916827bffffffffffffffffffffffffffffffffffffffffffffffffffffffff1916149050919050565b6109c8610a47565b73ffffffffffffffffffffffffffffffffffffffff166109e661074f565b73ffffffffffffffffffffffffffffffffffffffff1614610a4557610a09610a47565b6040517f118cdaa7000000000000000000000000000000000000000000000000000000008152600401610a3c9190611e9d565b60405180910390fd5b565b600033905090565b600073ffffffffffffffffffffffffffffffffffffffff168473ffffffffffffffffffffffffffffffffffffffff1603610ac15760006040517f57f447ce000000000000000000000000000000000000000000000000000000008152600401610ab89190611e9d565b60405180910390fd5b600073ffffffffffffffffffffffffffffffffffffffff168573ffffffffffffffffffffffffffffffffffffffff1603610b335760006040517f01a83514000000000000000000000000000000000000000000000000000000008152600401610b2a9190611e9d565b60405180910390fd5b610b408585858585610eb0565b5050505050565b600060208202602084010151905092915050565b600060208202602084010151905092915050565b6000600360009054906101000a900473ffffffffffffffffffffffffffffffffffffffff16905081600360006101000a81548173ffffffffffffffffffffffffffffffffffffffff021916908373ffffffffffffffffffffffffffffffffffffffff1602179055508173ffffffffffffffffffffffffffffffffffffffff168173ffffffffffffffffffffffffffffffffffffffff167f8be0079c531659141344cd1fd0a4f28419497f9722a3daafe3b4186f6b6457e060405160405180910390a35050565b600073ffffffffffffffffffffffffffffffffffffffff168273ffffffffffffffffffffffffffffffffffffffff1603610ca75760006040517fced3e100000000000000000000000000000000000000000000000000000000008152600401610c9e9190611e9d565b60405180910390fd5b80600160008573ffffffffffffffffffffffffffffffffffffffff1673ffffffffffffffffffffffffffffffffffffffff16815260200190815260200160002060008473ffffffffffffffffffffffffffffffffffffffff1673ffffffffffffffffffffffffffffffffffffffff16815260200190815260200160002060006101000a81548160ff0219169083151502179055508173ffffffffffffffffffffffffffffffffffffffff168373ffffffffffffffffffffffffffffffffffffffff167f17307eab39ab6107e8899845ad3d59bd9653f200f220920489ca2b5937696c3183604051610d98919061185a565b60405180910390a3505050565b600073ffffffffffffffffffffffffffffffffffffffff168473ffffffffffffffffffffffffffffffffffffffff1603610e175760006040517f57f447ce000000000000000000000000000000000000000000000000000000008152600401610e0e9190611e9d565b60405180910390fd5b600073ffffffffffffffffffffffffffffffffffffffff168573ffffffffffffffffffffffffffffffffffffffff1603610e895760006040517f01a83514000000000000000000000000000000000000000000000000000000008152600401610e809190611e9d565b60405180910390fd5b600080610e968585610f62565b91509150610ea78787848487610eb0565b50505050505050565b610ebc85858585610f92565b600073ffffffffffffffffffffffffffffffffffffffff168473ffffffffffffffffffffffffffffffffffffffff1614610f5b576000610efa610a47565b90506001845103610f4a576000610f1b600086610b5b90919063ffffffff16565b90506000610f33600086610b5b90919063ffffffff16565b9050610f43838989858589611340565b5050610f59565b610f588187878787876114f4565b5b505b5050505050565b60608060405191506001825283602083015260408201905060018152826020820152604081016040529250929050565b8051825114610fdc57815181516040517f5b059991000000000000000000000000000000000000000000000000000000008152600401610fd39291906120b1565b60405180910390fd5b6000610fe6610a47565b905060005b83518110156111fb5760006110098286610b5b90919063ffffffff16565b905060006110208386610b5b90919063ffffffff16565b9050600073ffffffffffffffffffffffffffffffffffffffff168873ffffffffffffffffffffffffffffffffffffffff161461114d57600080600084815260200190815260200160002060008a73ffffffffffffffffffffffffffffffffffffffff1673ffffffffffffffffffffffffffffffffffffffff168152602001908152602001600020549050818110156110f557888183856040517f03dee4c50000000000000000000000000000000000000000000000000000000081526004016110ec9493929190612180565b60405180910390fd5b81810360008085815260200190815260200160002060008b73ffffffffffffffffffffffffffffffffffffffff1673ffffffffffffffffffffffffffffffffffffffff16815260200190815260200160002081905550505b600073ffffffffffffffffffffffffffffffffffffffff168773ffffffffffffffffffffffffffffffffffffffff16146111e8578060008084815260200190815260200160002060008973ffffffffffffffffffffffffffffffffffffffff1673ffffffffffffffffffffffffffffffffffffffff16815260200190815260200160002060008282546111e091906121c5565b925050819055505b5050806111f490612138565b9050610feb565b5060018351036112ba57600061121b600085610b5b90919063ffffffff16565b90506000611233600085610b5b90919063ffffffff16565b90508573ffffffffffffffffffffffffffffffffffffffff168773ffffffffffffffffffffffffffffffffffffffff168473ffffffffffffffffffffffffffffffffffffffff167fc3d58168c5ae7397731d063d5bbf3d657854427343f4c083240f7aacaa2d0f6285856040516112ab9291906120b1565b60405180910390a45050611339565b8373ffffffffffffffffffffffffffffffffffffffff168573ffffffffffffffffffffffffffffffffffffffff168273ffffffffffffffffffffffffffffffffffffffff167f4a39dc06d4c0dbc64b70af90fd698a233a518aa5d07e595d983b8c0526c8f7fb86866040516113309291906121f9565b60405180910390a45b5050505050565b60008473ffffffffffffffffffffffffffffffffffffffff163b11156114ec578373ffffffffffffffffffffffffffffffffffffffff1663f23a6e6187878686866040518663ffffffff1660e01b81526004016113a1959493929190612285565b6020604051808303816000875af19250505080156113dd57506040513d601f19601f820116820180604052508101906113da91906122f4565b60015b611461573d806000811461140d576040519150601f19603f3d011682016040523d82523d6000602084013e611412565b606091505b50600081510361145957846040517f57f447ce0000000000000000000000000000000000000000000000000000000081526004016114509190611e9d565b60405180910390fd5b805181602001fd5b63f23a6e6160e01b7bffffffffffffffffffffffffffffffffffffffffffffffffffffffff1916817bffffffffffffffffffffffffffffffffffffffffffffffffffffffff1916146114ea57846040517f57f447ce0000000000000000000000000000000000000000000000000000000081526004016114e19190611e9d565b60405180910390fd5b505b505050505050565b60008473ffffffffffffffffffffffffffffffffffffffff163b11156116a0578373ffffffffffffffffffffffffffffffffffffffff1663bc197c8187878686866040518663ffffffff1660e01b8152600401611555959493929190612321565b6020604051808303816000875af192505050801561159157506040513d601f19601f8201168201806040525081019061158e91906122f4565b60015b611615573d80600081146115c1576040519150601f19603f3d011682016040523d82523d6000602084013e6115c6565b606091505b50600081510361160d57846040517f57f447ce0000000000000000000000000000000000000000000000000000000081526004016116049190611e9d565b60405180910390fd5b805181602001fd5b63bc197c8160e01b7bffffffffffffffffffffffffffffffffffffffffffffffffffffffff1916817bffffffffffffffffffffffffffffffffffffffffffffffffffffffff19161461169e57846040517f57f447ce0000000000000000000000000000000000000000000000000000000081526004016116959190611e9d565b60405180910390fd5b505b505050505050565b6000604051905090565b600080fd5b600080fd5b600073ffffffffffffffffffffffffffffffffffffffff82169050919050565b60006116e7826116bc565b9050919050565b6116f7816116dc565b811461170257600080fd5b50565b600081359050611714816116ee565b92915050565b6000819050919050565b61172d8161171a565b811461173857600080fd5b50565b60008135905061174a81611724565b92915050565b60008060408385031215611767576117666116b2565b5b600061177585828601611705565b92505060206117868582860161173b565b9150509250929050565b6117998161171a565b82525050565b60006020820190506117b46000830184611790565b92915050565b60007fffffffff0000000000000000000000000000000000000000000000000000000082169050919050565b6117ef816117ba565b81146117fa57600080fd5b50565b60008135905061180c816117e6565b92915050565b600060208284031215611828576118276116b2565b5b6000611836848285016117fd565b91505092915050565b60008115159050919050565b6118548161183f565b82525050565b600060208201905061186f600083018461184b565b92915050565b60006020828403121561188b5761188a6116b2565b5b60006118998482850161173b565b91505092915050565b600081519050919050565b600082825260208201905092915050565b60005b838110156118dc5780820151818401526020810190506118c1565b60008484015250505050565b6000601f19601f8301169050919050565b6000611904826118a2565b61190e81856118ad565b935061191e8185602086016118be565b611927816118e8565b840191505092915050565b6000602082019050818103600083015261194c81846118f9565b905092915050565b60008060006060848603121561196d5761196c6116b2565b5b600061197b86828701611705565b935050602061198c8682870161173b565b925050604061199d8682870161173b565b9150509250925092565b600080fd5b7f4e487b7100000000000000000000000000000000000000000000000000000000600052604160045260246000fd5b6119e4826118e8565b810181811067ffffffffffffffff82111715611a0357611a026119ac565b5b80604052505050565b6000611a166116a8565b9050611a2282826119db565b919050565b600067ffffffffffffffff821115611a4257611a416119ac565b5b602082029050602081019050919050565b600080fd5b6000611a6b611a6684611a27565b611a0c565b90508083825260208201905060208402830185811115611a8e57611a8d611a53565b5b835b81811015611ab75780611aa3888261173b565b845260208401935050602081019050611a90565b5050509392505050565b600082601f830112611ad657611ad56119a7565b5b8135611ae6848260208601611a58565b91505092915050565b600080fd5b600067ffffffffffffffff821115611b0f57611b0e6119ac565b5b611b18826118e8565b9050602081019050919050565b82818337600083830152505050565b6000611b47611b4284611af4565b611a0c565b905082815260208101848484011115611b6357611b62611aef565b5b611b6e848285611b25565b509392505050565b600082601f830112611b8b57611b8a6119a7565b5b8135611b9b848260208601611b34565b91505092915050565b600080600080600060a08688031215611bc057611bbf6116b2565b5b6000611bce88828901611705565b9550506020611bdf88828901611705565b945050604086013567ffffffffffffffff811115611c0057611bff6116b7565b5b611c0c88828901611ac1565b935050606086013567ffffffffffffffff811115611c2d57611c2c6116b7565b5b611c3988828901611ac1565b925050608086013567ffffffffffffffff811115611c5a57611c596116b7565b5b611c6688828901611b76565b9150509295509295909350565b600067ffffffffffffffff821115611c8e57611c8d6119ac565b5b602082029050602081019050919050565b6000611cb2611cad84611c73565b611a0c565b90508083825260208201905060208402830185811115611cd557611cd4611a53565b5b835b81811015611cfe5780611cea8882611705565b845260208401935050602081019050611cd7565b5050509392505050565b600082601f830112611d1d57611d1c6119a7565b5b8135611d2d848260208601611c9f565b91505092915050565b60008060408385031215611d4d57611d4c6116b2565b5b600083013567ffffffffffffffff811115611d6b57611d6a6116b7565b5b611d7785828601611d08565b925050602083013567ffffffffffffffff811115611d9857611d976116b7565b5b611da485828601611ac1565b9150509250929050565b600081519050919050565b600082825260208201905092915050565b6000819050602082019050919050565b611de38161171a565b82525050565b6000611df58383611dda565b60208301905092915050565b6000602082019050919050565b6000611e1982611dae565b611e238185611db9565b9350611e2e83611dca565b8060005b83811015611e5f578151611e468882611de9565b9750611e5183611e01565b925050600181019050611e32565b5085935050505092915050565b60006020820190508181036000830152611e868184611e0e565b905092915050565b611e97816116dc565b82525050565b6000602082019050611eb26000830184611e8e565b92915050565b611ec18161183f565b8114611ecc57600080fd5b50565b600081359050611ede81611eb8565b92915050565b60008060408385031215611efb57611efa6116b2565b5b6000611f0985828601611705565b9250506020611f1a85828601611ecf565b9150509250929050565b60008060408385031215611f3b57611f3a6116b2565b5b6000611f4985828601611705565b9250506020611f5a85828601611705565b9150509250929050565b600080600080600060a08688031215611f8057611f7f6116b2565b5b6000611f8e88828901611705565b9550506020611f9f88828901611705565b9450506040611fb08882890161173b565b9350506060611fc18882890161173b565b925050608086013567ffffffffffffffff811115611fe257611fe16116b7565b5b611fee88828901611b76565b9150509295509295909350565b600060208284031215612011576120106116b2565b5b600061201f84828501611705565b91505092915050565b7f4e487b7100000000000000000000000000000000000000000000000000000000600052602260045260246000fd5b6000600282049050600182168061206f57607f821691505b60208210810361208257612081612028565b5b50919050565b600060408201905061209d6000830185611e8e565b6120aa6020830184611e8e565b9392505050565b60006040820190506120c66000830185611790565b6120d36020830184611790565b9392505050565b7f4e487b7100000000000000000000000000000000000000000000000000000000600052603260045260246000fd5b7f4e487b7100000000000000000000000000000000000000000000000000000000600052601160045260246000fd5b60006121438261171a565b91507fffffffffffffffffffffffffffffffffffffffffffffffffffffffffffffffff820361217557612174612109565b5b600182019050919050565b60006080820190506121956000830187611e8e565b6121a26020830186611790565b6121af6040830185611790565b6121bc6060830184611790565b95945050505050565b60006121d08261171a565b91506121db8361171a565b92508282019050808211156121f3576121f2612109565b5b92915050565b600060408201905081810360008301526122138185611e0e565b905081810360208301526122278184611e0e565b90509392505050565b600081519050919050565b600082825260208201905092915050565b600061225782612230565b612261818561223b565b93506122718185602086016118be565b61227a816118e8565b840191505092915050565b600060a08201905061229a6000830188611e8e565b6122a76020830187611e8e565b6122b46040830186611790565b6122c16060830185611790565b81810360808301526122d3818461224c565b90509695505050505050565b6000815190506122ee816117e6565b92915050565b60006020828403121561230a576123096116b2565b5b6000612318848285016122df565b91505092915050565b600060a0820190506123366000830188611e8e565b6123436020830187611e8e565b81810360408301526123558186611e0e565b905081810360608301526123698185611e0e565b9050818103608083015261237d818461224c565b9050969550505050505056fea2646970667358221220820e57e045d046ff59cbd77093c0041e5e621b3fceb20648940a09db2d9474bf64736f6c63430008140033",
  "linkReferences": {},
  "deployedLinkReferences": {}
}