{"contracts/CryptoMonster.sol":{"CryptoMonster":{"abi":[{"inputs":[{"internalType":"contract TokenMonster","name":"_erc20","type":"address"},{"internalType":"contract IERC1155","name":"_ierc1155","type":"address"}],"stateMutability":"nonpayable","type":"constructor"},{"anonymous":false,"inputs":[{"indexed":false,"internalType":"address","name":"addr","type":"address"},{"indexed":false,"internalType":"uint256","name":"_itemNumber","type":"uint256"},{"indexed":false,"internalType":"uint256","name":"_uints","type":"uint256"}],"name":"BurnItem","type":"event"},{"anonymous":false,"inputs":[{"indexed":false,"internalType":"address","name":"addr","type":"address"},{"indexed":false,"internalType":"uint256","name":"_itemNumber","type":"uint256"},{"indexed":false,"internalType":"uint256","name":"_uints","type":"uint256"}],"name":"BuyItem","type":"event"},{"anonymous":false,"inputs":[{"indexed":false,"internalType":"uint256","name":"monstId","type":"uint256"}],"name":"CreateMonster","type":"event"},{"anonymous":false,"inputs":[{"indexed":false,"internalType":"uint256","name":"_winerId","type":"uint256"}],"name":"FightResult","type":"event"},{"anonymous":false,"inputs":[{"indexed":false,"internalType":"uint256","name":"_rewards","type":"uint256"},{"indexed":false,"internalType":"address","name":"addr","type":"address"}],"name":"Rewards","type":"event"},{"inputs":[],"name":"EQUITMENTSPRICE","outputs":[{"internalType":"uint256","name":"","type":"uint256"}],"stateMutability":"view","type":"function"},{"inputs":[],"name":"EVOAMOUNT","outputs":[{"internalType":"uint256","name":"","type":"uint256"}],"stateMutability":"view","type":"function"},{"inputs":[],"name":"MAX","outputs":[{"internalType":"uint256","name":"","type":"uint256"}],"stateMutability":"view","type":"function"},{"inputs":[],"name":"POTIONSPRICE","outputs":[{"internalType":"uint256","name":"","type":"uint256"}],"stateMutability":"view","type":"function"},{"inputs":[],"name":"REWARDAMOUNT","outputs":[{"internalType":"uint256","name":"","type":"uint256"}],"stateMutability":"view","type":"function"},{"inputs":[{"internalType":"uint256","name":"_id","type":"uint256"},{"internalType":"uint256","name":"_price","type":"uint256"}],"name":"addSale","outputs":[],"stateMutability":"nonpayable","type":"function"},{"inputs":[{"internalType":"uint256","name":"_id1","type":"uint256"},{"internalType":"uint256","name":"_id2","type":"uint256"}],"name":"breedMonster","outputs":[],"stateMutability":"nonpayable","type":"function"},{"inputs":[{"internalType":"uint256","name":"_itemNumber","type":"uint256"},{"internalType":"uint256","name":"_uints","type":"uint256"}],"name":"burnItem","outputs":[],"stateMutability":"nonpayable","type":"function"},{"inputs":[{"internalType":"uint256","name":"_itemNumber","type":"uint256"},{"internalType":"uint256","name":"_uints","type":"uint256"}],"name":"buyItem","outputs":[],"stateMutability":"nonpayable","type":"function"},{"inputs":[{"internalType":"uint256","name":"_id","type":"uint256"}],"name":"buyMonster","outputs":[],"stateMutability":"payable","type":"function"},{"inputs":[{"internalType":"uint8","name":"_spIndex","type":"uint8"},{"internalType":"uint256","name":"_price","type":"uint256"},{"internalType":"bool","name":"_sale","type":"bool"}],"name":"createMonster","outputs":[],"stateMutability":"nonpayable","type":"function"},{"inputs":[{"internalType":"uint256","name":"_amount","type":"uint256"}],"name":"deposit","outputs":[],"stateMutability":"nonpayable","type":"function"},{"inputs":[{"internalType":"uint256","name":"_id","type":"uint256"}],"name":"envMater","outputs":[],"stateMutability":"nonpayable","type":"function"},{"inputs":[{"internalType":"uint256","name":"_id1","type":"uint256"},{"internalType":"uint256","name":"_id2","type":"uint256"}],"name":"fight","outputs":[],"stateMutability":"nonpayable","type":"function"},{"inputs":[],"name":"manager","outputs":[{"internalType":"address","name":"","type":"address"}],"stateMutability":"view","type":"function"},{"inputs":[{"internalType":"uint256","name":"_amount","type":"uint256"}],"name":"mintToken","outputs":[],"stateMutability":"nonpayable","type":"function"},{"inputs":[{"internalType":"uint256","name":"","type":"uint256"}],"name":"mons","outputs":[{"internalType":"uint256","name":"id","type":"uint256"},{"internalType":"address payable","name":"owner","type":"address"},{"internalType":"enum CryptoMonster.Species","name":"species","type":"uint8"},{"internalType":"uint256","name":"price","type":"uint256"},{"internalType":"bool","name":"sale","type":"bool"},{"internalType":"uint8","name":"monsterType","type":"uint8"},{"internalType":"bool","name":"evolve","type":"bool"},{"internalType":"uint256","name":"hp","type":"uint256"},{"internalType":"uint256","name":"atk","type":"uint256"},{"internalType":"uint256","name":"def","type":"uint256"},{"internalType":"uint256","name":"speed","type":"uint256"},{"internalType":"address","name":"sharedTo","type":"address"}],"stateMutability":"view","type":"function"},{"inputs":[{"internalType":"address","name":"","type":"address"},{"internalType":"address","name":"","type":"address"},{"internalType":"uint256[]","name":"","type":"uint256[]"},{"internalType":"uint256[]","name":"","type":"uint256[]"},{"internalType":"bytes","name":"","type":"bytes"}],"name":"onERC1155BatchReceived","outputs":[{"internalType":"bytes4","name":"","type":"bytes4"}],"stateMutability":"nonpayable","type":"function"},{"inputs":[{"internalType":"address","name":"","type":"address"},{"internalType":"address","name":"","type":"address"},{"internalType":"uint256","name":"","type":"uint256"},{"internalType":"uint256","name":"","type":"uint256"},{"internalType":"bytes","name":"","type":"bytes"}],"name":"onERC1155Received","outputs":[{"internalType":"bytes4","name":"","type":"bytes4"}],"stateMutability":"nonpayable","type":"function"},{"inputs":[{"internalType":"uint256","name":"i","type":"uint256"}],"name":"randomGen","outputs":[{"internalType":"uint8","name":"","type":"uint8"}],"stateMutability":"nonpayable","type":"function"},{"inputs":[{"internalType":"uint256","name":"_id","type":"uint256"}],"name":"removeSale","outputs":[],"stateMutability":"nonpayable","type":"function"},{"inputs":[{"internalType":"uint256","name":"_potionsPrice","type":"uint256"},{"internalType":"uint256","name":"_equipmentsPrice","type":"uint256"}],"name":"setItemPrices","outputs":[],"stateMutability":"nonpayable","type":"function"},{"inputs":[{"internalType":"uint256","name":"_id","type":"uint256"},{"internalType":"address","name":"_addr","type":"address"}],"name":"startSharing","outputs":[],"stateMutability":"nonpayable","type":"function"},{"inputs":[{"internalType":"uint256","name":"_id","type":"uint256"}],"name":"stopSharing","outputs":[],"stateMutability":"nonpayable","type":"function"},{"inputs":[{"internalType":"bytes4","name":"interfaceId","type":"bytes4"}],"name":"supportsInterface","outputs":[{"internalType":"bool","name":"","type":"bool"}],"stateMutability":"view","type":"function"},{"inputs":[],"name":"totalMonster","outputs":[{"internalType":"uint256","name":"","type":"uint256"}],"stateMutability":"view","type":"function"},{"inputs":[{"internalType":"uint256","name":"_amount","type":"uint256"}],"name":"withdraw","outputs":[],"stateMutability":"nonpayable","type":"function"}],"evm":{"bytecode":{"linkReferences":{},"object":"6080604052604051806112e00160405280600060ff168152602001600060ff168152602001600060ff168152602001600160ff168152602001600160ff168152602001600160ff168152602001600260ff168152602001600260ff168152602001600260ff168152602001600360ff168152602001600360ff168152602001600360ff168152602001600360ff168152602001600360ff168152602001600360ff168152602001600460ff168152602001600460ff168152602001600460ff168152602001600460ff168152602001600460ff168152602001600460ff168152602001600460ff168152602001600560ff168152602001600560ff168152602001600660ff168152602001600660ff168152602001600760ff168152602001600760ff168152602001600460ff168152602001600460ff168152602001600460ff168152602001600460ff168152602001600460ff168152602001600460ff168152602001600460ff168152602001600460ff168152602001600160ff168152602001600160ff168152602001600460ff168152602001600460ff168152602001600560ff168152602001600560ff168152602001600060ff168152602001600060ff168152602001600060ff168152602001600360ff168152602001600360ff168152602001600360ff168152602001600360ff168152602001600760ff168152602001600760ff168152602001600460ff168152602001600460ff168152602001600260ff168152602001600260ff168152602001600460ff168152602001600460ff168152602001600160ff168152602001600160ff168152602001600260ff168152602001600260ff168152602001600260ff168152602001600860ff168152602001600860ff168152602001600860ff168152602001600460ff168152602001600460ff168152602001600460ff168152602001600060ff168152602001600060ff168152602001600060ff168152602001600260ff168152602001600260ff168152602001600760ff168152602001600760ff168152602001600760ff168152602001600160ff168152602001600160ff168152602001600260ff168152602001600260ff168152602001600660ff168152602001600660ff168152602001600460ff168152602001600460ff168152602001600460ff168152602001600260ff168152602001600260ff168152602001600560ff168152602001600560ff168152602001600260ff168152602001600260ff168152602001600860ff168152602001600860ff168152602001600860ff168152602001600760ff168152602001600860ff168152602001600860ff168152602001600260ff168152602001600260ff168152602001600660ff168152602001600660ff168152602001600860ff168152602001600860ff168152602001600760ff168152602001600760ff168152602001600460ff168152602001600460ff168152602001600460ff168152602001600560ff168152602001600560ff168152602001600760ff168152602001600760ff168152602001600460ff168152602001600060ff168152602001600460ff168152602001600260ff168152602001600260ff168152602001600260ff168152602001600260ff168152602001600260ff168152602001600260ff168152602001600460ff168152602001600360ff168152602001600860ff168152602001600660ff168152602001600160ff168152602001600360ff168152602001600460ff168152602001600260ff168152602001600260ff168152602001600260ff168152602001600960ff168152602001600a60ff168152602001600260ff168152602001600660ff168152602001600160ff168152602001600460ff168152602001600260ff168152602001600260ff168152602001600260ff168152602001600260ff168152602001600460ff168152602001600460ff168152602001600260ff168152602001600660ff168152602001600160ff168152602001600860ff168152602001600860ff168152602001600860ff168152602001600860ff168152602001600860ff1681525060029060976200060692919062001323565b50604051806112e00160405280600115151515815260200160011515151581526020016000151515158152602001600115151515815260200160011515151581526020016000151515158152602001600115151515815260200160011515151581526020016000151515158152602001600115151515815260200160011515151581526020016000151515158152602001600115151515815260200160011515151581526020016000151515158152602001600115151515815260200160011515151581526020016000151515158152602001600115151515815260200160001515151581526020016001151515158152602001600015151515815260200160011515151581526020016000151515158152602001600115151515815260200160001515151581526020016001151515158152602001600015151515815260200160011515151581526020016001151515158152602001600015151515815260200160011515151581526020016001151515158152602001600015151515815260200160011515151581526020016000151515158152602001600115151515815260200160001515151581526020016001151515158152602001600015151515815260200160011515151581526020016000151515158152602001600115151515815260200160011515151581526020016000151515158152602001600115151515815260200160001515151581526020016001151515158152602001600015151515815260200160011515151581526020016000151515158152602001600115151515815260200160001515151581526020016001151515158152602001600015151515815260200160011515151581526020016000151515158152602001600115151515815260200160001515151581526020016001151515158152602001600115151515815260200160001515151581526020016001151515158152602001600115151515815260200160001515151581526020016001151515158152602001600115151515815260200160001515151581526020016001151515158152602001600115151515815260200160001515151581526020016001151515158152602001600015151515815260200160011515151581526020016001151515158152602001600015151515815260200160011515151581526020016000151515158152602001600115151515815260200160001515151581526020016001151515158152602001600015151515815260200160001515151581526020016001151515158152602001600015151515815260200160011515151581526020016000151515158152602001600115151515815260200160001515151581526020016001151515158152602001600015151515815260200160011515151581526020016001151515158152602001600015151515815260200160001515151581526020016001151515158152602001600015151515815260200160011515151581526020016000151515158152602001600115151515815260200160001515151581526020016001151515158152602001600015151515815260200160011515151581526020016000151515158152602001600115151515815260200160001515151581526020016000151515158152602001600115151515815260200160001515151581526020016001151515158152602001600015151515815260200160001515151581526020016000151515158152602001600015151515815260200160011515151581526020016000151515158152602001600115151515815260200160001515151581526020016001151515158152602001600015151515815260200160001515151581526020016000151515158152602001600015151515815260200160001515151581526020016000151515158152602001600015151515815260200160001515151581526020016001151515158152602001600015151515815260200160001515151581526020016000151515158152602001600015151515815260200160001515151581526020016000151515158152602001600015151515815260200160001515151581526020016001151515158152602001600015151515815260200160011515151581526020016000151515158152602001600015151515815260200160001515151581526020016000151515158152602001600015151515815260200160001515151581526020016001151515158152602001600115151515815260200160001515151581526020016001151515158152602001600015151515815250600790609762000ca0929190620013c4565b506000600e557fffffffffffffffffffffffffffffffffffffffffffffffffffffffffffffffff600f556000601055674563918244f40000601155670de0b6b3a764000060125567016345785d8a000060135567016345785d8a000060145534801562000d0c57600080fd5b5060405162005b6038038062005b60833981810160405281019062000d329190620015ef565b816000806101000a81548173ffffffffffffffffffffffffffffffffffffffff021916908373ffffffffffffffffffffffffffffffffffffffff16021790555080600160006101000a81548173ffffffffffffffffffffffffffffffffffffffff021916908373ffffffffffffffffffffffffffffffffffffffff16021790555033600c60006101000a81548173ffffffffffffffffffffffffffffffffffffffff021916908373ffffffffffffffffffffffffffffffffffffffff16021790555062000e0a6000600a600062000eac60201b60201c565b62000e206001600a600062000eac60201b60201c565b62000e366002600a600062000eac60201b60201c565b62000e4c6003600a600162000eac60201b60201c565b62000e626009600a600162000eac60201b60201c565b62000e786009600a600162000eac60201b60201c565b62000e8e6004600a600162000eac60201b60201c565b62000ea46004600a600162000eac60201b60201c565b505062001933565b600f54600e541062000ef5576040517f08c379a000000000000000000000000000000000000000000000000000000000815260040162000eec9062001697565b60405180910390fd5b60008360ff16609681111562000f105762000f0f620016b9565b5b905062000f1c62001464565b600e5481600001818152505033816020019073ffffffffffffffffffffffffffffffffffffffff16908173ffffffffffffffffffffffffffffffffffffffff1681525050818160400190609681111562000f7b5762000f7a620016b9565b5b9081609681111562000f925762000f91620016b9565b5b8152505060028560ff166097811062000fb05762000faf620016e8565b5b602091828204019190069054906101000a900460ff168160a0019060ff16908160ff168152505060078560ff166097811062000ff15762000ff0620016e8565b5b602091828204019190069054906101000a900460ff168160c00190151590811515815250508381606001818152505082816080019015159081151581525050620010426029620012bc60201b60201c565b606462001050919062001753565b60ff168160e00181815250506200106e6029620012bc60201b60201c565b60646200107c919062001753565b60ff16816101000181815250506200109b6029620012bc60201b60201c565b6064620010a9919062001753565b60ff1681610120018181525050620010c86029620012bc60201b60201c565b6064620010d6919062001753565b60ff168161014001818152505080600d6000600e5481526020019081526020016000206000820151816000015560208201518160010160006101000a81548173ffffffffffffffffffffffffffffffffffffffff021916908373ffffffffffffffffffffffffffffffffffffffff16021790555060408201518160010160146101000a81548160ff02191690836096811115620011785762001177620016b9565b5b02179055506060820151816002015560808201518160030160006101000a81548160ff02191690831515021790555060a08201518160030160016101000a81548160ff021916908360ff16021790555060c08201518160030160026101000a81548160ff02191690831515021790555060e082015181600401556101008201518160050155610120820151816006015561014082015181600701556101608201518160080160006101000a81548173ffffffffffffffffffffffffffffffffffffffff021916908373ffffffffffffffffffffffffffffffffffffffff160217905550905050600e6000815480929190620012739062001799565b91905055507fb6d21026ac3ab2edc35f484b1bb7362a0287a0629b892a158b6907a04deba22d8160000151604051620012ad9190620017f7565b60405180910390a15050505050565b600080824233601054604051602001620012d99392919062001889565b6040516020818303038152906040528051906020012060001c620012fe9190620018fb565b905060106000815480929190620013159062001799565b919050555080915050919050565b826097601f01602090048101928215620013b15791602002820160005b838211156200138057835183826101000a81548160ff021916908360ff160217905550926020019260010160208160000104928301926001030262001340565b8015620013af5782816101000a81549060ff021916905560010160208160000104928301926001030262001380565b505b509050620013c091906200150d565b5090565b826097601f01602090048101928215620014515791602002820160005b838211156200142057835183826101000a81548160ff0219169083151502179055509260200192600101602081600001049283019260010302620013e1565b80156200144f5782816101000a81549060ff021916905560010160208160000104928301926001030262001420565b505b5090506200146091906200150d565b5090565b60405180610180016040528060008152602001600073ffffffffffffffffffffffffffffffffffffffff16815260200160006096811115620014ab57620014aa620016b9565b5b815260200160008152602001600015158152602001600060ff16815260200160001515815260200160008152602001600081526020016000815260200160008152602001600073ffffffffffffffffffffffffffffffffffffffff1681525090565b5b80821115620015285760008160009055506001016200150e565b5090565b600080fd5b600073ffffffffffffffffffffffffffffffffffffffff82169050919050565b60006200155e8262001531565b9050919050565b6000620015728262001551565b9050919050565b620015848162001565565b81146200159057600080fd5b50565b600081519050620015a48162001579565b92915050565b6000620015b78262001551565b9050919050565b620015c981620015aa565b8114620015d557600080fd5b50565b600081519050620015e981620015be565b92915050565b600080604083850312156200160957620016086200152c565b5b6000620016198582860162001593565b92505060206200162c85828601620015d8565b9150509250929050565b600082825260208201905092915050565b7f746f74616c4d6f6e73746572206269676572207468656e206d61780000000000600082015250565b60006200167f601b8362001636565b91506200168c8262001647565b602082019050919050565b60006020820190508181036000830152620016b28162001670565b9050919050565b7f4e487b7100000000000000000000000000000000000000000000000000000000600052602160045260246000fd5b7f4e487b7100000000000000000000000000000000000000000000000000000000600052603260045260246000fd5b600060ff82169050919050565b7f4e487b7100000000000000000000000000000000000000000000000000000000600052601160045260246000fd5b6000620017608262001717565b91506200176d8362001717565b9250828201905060ff81111562001789576200178862001724565b5b92915050565b6000819050919050565b6000620017a6826200178f565b91507fffffffffffffffffffffffffffffffffffffffffffffffffffffffffffffffff8203620017db57620017da62001724565b5b600182019050919050565b620017f1816200178f565b82525050565b60006020820190506200180e6000830184620017e6565b92915050565b6000819050919050565b620018336200182d826200178f565b62001814565b82525050565b60008160601b9050919050565b6000620018538262001839565b9050919050565b6000620018678262001846565b9050919050565b620018836200187d8262001551565b6200185a565b82525050565b60006200189782866200181e565b602082019150620018a982856200186e565b601482019150620018bb82846200181e565b602082019150819050949350505050565b7f4e487b7100000000000000000000000000000000000000000000000000000000600052601260045260246000fd5b600062001908826200178f565b915062001915836200178f565b925082620019285762001927620018cc565b5b828206905092915050565b61421d80620019436000396000f3fe60806040526004361061019c5760003560e01c8063931e5b36116100ec578063c634d0321161008a578063d49d518111610064578063d49d518114610589578063de13cbad146105b4578063f23a6e61146105fc578063fe6601a5146106395761019c565b8063c634d0321461050e578063c9be429514610537578063ca39e5ef146105605761019c565b8063aecd8054116100c6578063aecd805414610454578063b12a991d1461047d578063b6b55f25146104a8578063bc197c81146104d15761019c565b8063931e5b36146103d75780639968270b146104025780639979c0091461042b5761019c565b8063434b14e711610159578063540bb3b511610133578063540bb3b51461032f5780637a09defe146103585780637d025a621461038357806388e81f7f146103ac5761019c565b8063434b14e71461029e57806344e797e9146102db578063481c6a75146103045761019c565b806301ffc9a7146101a157806308afa05d146101de578063154bd55214610207578063199a37fe146102235780632e1a7d4d1461024c578063357c5cc214610275575b600080fd5b3480156101ad57600080fd5b506101c860048036038101906101c39190612fd1565b610664565b6040516101d59190613019565b60405180910390f35b3480156101ea57600080fd5b50610205600480360381019061020091906130c8565b6106de565b005b610221600480360381019061021c9190613108565b6107e1565b005b34801561022f57600080fd5b5061024a60048036038101906102459190613135565b6109ae565b005b34801561025857600080fd5b50610273600480360381019061026e9190613108565b610a50565b005b34801561028157600080fd5b5061029c60048036038101906102979190613135565b610c65565b005b3480156102aa57600080fd5b506102c560048036038101906102c09190613108565b610e24565b6040516102d29190613191565b60405180910390f35b3480156102e757600080fd5b5061030260048036038101906102fd9190613108565b610e85565b005b34801561031057600080fd5b50610319610fa7565b60405161032691906131bb565b60405180910390f35b34801561033b57600080fd5b5061035660048036038101906103519190613108565b610fcd565b005b34801561036457600080fd5b5061036d6110fe565b60405161037a91906131e5565b60405180910390f35b34801561038f57600080fd5b506103aa60048036038101906103a59190613135565b611104565b005b3480156103b857600080fd5b506103c1611273565b6040516103ce91906131e5565b60405180910390f35b3480156103e357600080fd5b506103ec611279565b6040516103f991906131e5565b60405180910390f35b34801561040e57600080fd5b5061042960048036038101906104249190613108565b61127f565b005b34801561043757600080fd5b50610452600480360381019061044d9190613135565b611381565b005b34801561046057600080fd5b5061047b60048036038101906104769190613258565b6115a7565b005b34801561048957600080fd5b50610492611974565b60405161049f91906131e5565b60405180910390f35b3480156104b457600080fd5b506104cf60048036038101906104ca9190613108565b61197a565b005b3480156104dd57600080fd5b506104f860048036038101906104f391906134b9565b611b93565b6040516105059190613597565b60405180910390f35b34801561051a57600080fd5b5061053560048036038101906105309190613108565b611ba8565b005b34801561054357600080fd5b5061055e60048036038101906105599190613135565b611c38565b005b34801561056c57600080fd5b5061058760048036038101906105829190613135565b611dbc565b005b34801561059557600080fd5b5061059e611f97565b6040516105ab91906131e5565b60405180910390f35b3480156105c057600080fd5b506105db60048036038101906105d69190613108565b611f9d565b6040516105f39c9b9a9998979695949392919061364a565b60405180910390f35b34801561060857600080fd5b50610623600480360381019061061e9190613704565b612071565b6040516106309190613597565b60405180910390f35b34801561064557600080fd5b5061064e612086565b60405161065b91906131e5565b60405180910390f35b60007f4e2312e0000000000000000000000000000000000000000000000000000000007bffffffffffffffffffffffffffffffffffffffffffffffffffffffff1916827bffffffffffffffffffffffffffffffffffffffffffffffffffffffff191614806106d757506106d68261208c565b5b9050919050565b3373ffffffffffffffffffffffffffffffffffffffff16600d600084815260200190815260200160002060010160009054906101000a900473ffffffffffffffffffffffffffffffffffffffff1673ffffffffffffffffffffffffffffffffffffffff1614610782576040517f08c379a0000000000000000000000000000000000000000000000000000000008152600401610779906137f8565b60405180910390fd5b6000600d60008481526020019081526020016000209050818160080160006101000a81548173ffffffffffffffffffffffffffffffffffffffff021916908373ffffffffffffffffffffffffffffffffffffffff160217905550505050565b6000600d600083815260200190815260200160002090508060020154341161083e576040517f08c379a000000000000000000000000000000000000000000000000000000000815260040161083590613864565b60405180910390fd5b600115158160030160009054906101000a900460ff16151514610896576040517f08c379a000000000000000000000000000000000000000000000000000000000815260040161088d906138d0565b60405180910390fd5b60008160010160009054906101000a900473ffffffffffffffffffffffffffffffffffffffff169050338260010160006101000a81548173ffffffffffffffffffffffffffffffffffffffff021916908373ffffffffffffffffffffffffffffffffffffffff160217905550338260080160006101000a81548173ffffffffffffffffffffffffffffffffffffffff021916908373ffffffffffffffffffffffffffffffffffffffff16021790555060008260030160006101000a81548160ff0219169083151502179055508073ffffffffffffffffffffffffffffffffffffffff166108fc349081150290604051600060405180830381858888f193505050501580156109a8573d6000803e3d6000fd5b50505050565b600c60009054906101000a900473ffffffffffffffffffffffffffffffffffffffff1673ffffffffffffffffffffffffffffffffffffffff163373ffffffffffffffffffffffffffffffffffffffff1614610a3e576040517f08c379a0000000000000000000000000000000000000000000000000000000008152600401610a359061393c565b60405180910390fd5b81601281905550806011819055505050565b600c60009054906101000a900473ffffffffffffffffffffffffffffffffffffffff1673ffffffffffffffffffffffffffffffffffffffff163373ffffffffffffffffffffffffffffffffffffffff1614610ae0576040517f08c379a0000000000000000000000000000000000000000000000000000000008152600401610ad79061393c565b60405180910390fd5b60008060009054906101000a900473ffffffffffffffffffffffffffffffffffffffff1673ffffffffffffffffffffffffffffffffffffffff166370a08231306040518263ffffffff1660e01b8152600401610b3c91906131bb565b602060405180830381865afa158015610b59573d6000803e3d6000fd5b505050506040513d601f19601f82011682018060405250810190610b7d9190613971565b905080821115610bc2576040517f08c379a0000000000000000000000000000000000000000000000000000000008152600401610bb9906139ea565b60405180910390fd5b60008054906101000a900473ffffffffffffffffffffffffffffffffffffffff1673ffffffffffffffffffffffffffffffffffffffff1663a9059cbb33846040518363ffffffff1660e01b8152600401610c1d929190613a0a565b6020604051808303816000875af1158015610c3c573d6000803e3d6000fd5b505050506040513d601f19601f82011682018060405250810190610c609190613a48565b505050565b600f54600e5410610cab576040517f08c379a0000000000000000000000000000000000000000000000000000000008152600401610ca290613ac1565b60405180910390fd5b3373ffffffffffffffffffffffffffffffffffffffff16600d600084815260200190815260200160002060010160009054906101000a900473ffffffffffffffffffffffffffffffffffffffff1673ffffffffffffffffffffffffffffffffffffffff1614610d4f576040517f08c379a0000000000000000000000000000000000000000000000000000000008152600401610d4690613b2d565b60405180910390fd5b3373ffffffffffffffffffffffffffffffffffffffff16600d600083815260200190815260200160002060010160009054906101000a900473ffffffffffffffffffffffffffffffffffffffff1673ffffffffffffffffffffffffffffffffffffffff1614610df3576040517f08c379a0000000000000000000000000000000000000000000000000000000008152600401610dea90613b2d565b60405180910390fd5b6000610dff83836120f6565b9050610e1f816096811115610e1757610e166135d3565b5b6000806115a7565b505050565b600080824233601054604051602001610e3f93929190613bb6565b6040516020818303038152906040528051906020012060001c610e629190613c22565b905060106000815480929190610e7790613c82565b919050555080915050919050565b6000600d60008381526020019081526020016000209050600115158160030160009054906101000a900460ff16151514610ef4576040517f08c379a0000000000000000000000000000000000000000000000000000000008152600401610eeb90613d16565b60405180910390fd5b3373ffffffffffffffffffffffffffffffffffffffff168160010160009054906101000a900473ffffffffffffffffffffffffffffffffffffffff1673ffffffffffffffffffffffffffffffffffffffff1614610f86576040517f08c379a0000000000000000000000000000000000000000000000000000000008152600401610f7d90613d82565b60405180910390fd5b60008160030160006101000a81548160ff0219169083151502179055505050565b600c60009054906101000a900473ffffffffffffffffffffffffffffffffffffffff1681565b6000600d60008381526020019081526020016000209050600060018260010160149054906101000a900460ff16609681111561100c5761100b6135d3565b5b6110169190613da2565b905080609681111561102b5761102a6135d3565b5b8260010160146101000a81548160ff02191690836096811115611051576110506135d3565b5b021790555060008054906101000a900473ffffffffffffffffffffffffffffffffffffffff1673ffffffffffffffffffffffffffffffffffffffff166323b872dd33306014546040518463ffffffff1660e01b81526004016110b593929190613dd6565b6020604051808303816000875af11580156110d4573d6000803e3d6000fd5b505050506040513d601f19601f820116820180604052508101906110f89190613a48565b50505050565b600e5481565b6000600d60008481526020019081526020016000209050600015158160030160009054906101000a900460ff16151514611173576040517f08c379a000000000000000000000000000000000000000000000000000000000815260040161116a90613e59565b60405180910390fd5b3373ffffffffffffffffffffffffffffffffffffffff168160010160009054906101000a900473ffffffffffffffffffffffffffffffffffffffff1673ffffffffffffffffffffffffffffffffffffffff1614611205576040517f08c379a00000000000000000000000000000000000000000000000000000000081526004016111fc90613d82565b60405180910390fd5b60018160030160006101000a81548160ff021916908315150217905550818160020181905550338160080160006101000a81548173ffffffffffffffffffffffffffffffffffffffff021916908373ffffffffffffffffffffffffffffffffffffffff160217905550505050565b60135481565b60115481565b3373ffffffffffffffffffffffffffffffffffffffff16600d600083815260200190815260200160002060010160009054906101000a900473ffffffffffffffffffffffffffffffffffffffff1673ffffffffffffffffffffffffffffffffffffffff1614611323576040517f08c379a000000000000000000000000000000000000000000000000000000000815260040161131a90613ec5565b60405180910390fd5b6000600d60008381526020019081526020016000209050338160080160006101000a81548173ffffffffffffffffffffffffffffffffffffffff021916908373ffffffffffffffffffffffffffffffffffffffff1602179055505050565b60008060009054906101000a900473ffffffffffffffffffffffffffffffffffffffff1673ffffffffffffffffffffffffffffffffffffffff166370a08231336040518263ffffffff1660e01b81526004016113dd91906131bb565b602060405180830381865afa1580156113fa573d6000803e3d6000fd5b505050506040513d601f19601f8201168201806040525081019061141e9190613971565b90506000826011546114309190613ee5565b905060008054906101000a900473ffffffffffffffffffffffffffffffffffffffff1673ffffffffffffffffffffffffffffffffffffffff166323b872dd3330846040518463ffffffff1660e01b815260040161148f93929190613dd6565b6020604051808303816000875af11580156114ae573d6000803e3d6000fd5b505050506040513d601f19601f820116820180604052508101906114d29190613a48565b50600160009054906101000a900473ffffffffffffffffffffffffffffffffffffffff1673ffffffffffffffffffffffffffffffffffffffff1663f242432a303387876040518563ffffffff1660e01b81526004016115349493929190613f5e565b600060405180830381600087803b15801561154e57600080fd5b505af1158015611562573d6000803e3d6000fd5b505050507fb30f5ca9d541fe04588c910f69c1e7c2456b7822e7073df9b59908509cbc4f4d33858560405161159993929190613fb6565b60405180910390a150505050565b600f54600e54106115ed576040517f08c379a00000000000000000000000000000000000000000000000000000000081526004016115e490614039565b60405180910390fd5b60008360ff166096811115611605576116046135d3565b5b905061160f612ebf565b600e5481600001818152505033816020019073ffffffffffffffffffffffffffffffffffffffff16908173ffffffffffffffffffffffffffffffffffffffff1681525050818160400190609681111561166b5761166a6135d3565b5b9081609681111561167f5761167e6135d3565b5b8152505060028560ff166097811061169a57611699614059565b5b602091828204019190069054906101000a900460ff168160a0019060ff16908160ff168152505060078560ff16609781106116d8576116d7614059565b5b602091828204019190069054906101000a900460ff168160c001901515908115158152505083816060018181525050828160800190151590811515815250506117216029610e24565b606461172d9190614088565b60ff168160e00181815250506117436029610e24565b606461174f9190614088565b60ff16816101000181815250506117666029610e24565b60646117729190614088565b60ff16816101200181815250506117896029610e24565b60646117959190614088565b60ff168161014001818152505080600d6000600e5481526020019081526020016000206000820151816000015560208201518160010160006101000a81548173ffffffffffffffffffffffffffffffffffffffff021916908373ffffffffffffffffffffffffffffffffffffffff16021790555060408201518160010160146101000a81548160ff02191690836096811115611834576118336135d3565b5b02179055506060820151816002015560808201518160030160006101000a81548160ff02191690831515021790555060a08201518160030160016101000a81548160ff021916908360ff16021790555060c08201518160030160026101000a81548160ff02191690831515021790555060e082015181600401556101008201518160050155610120820151816006015561014082015181600701556101608201518160080160006101000a81548173ffffffffffffffffffffffffffffffffffffffff021916908373ffffffffffffffffffffffffffffffffffffffff160217905550905050600e600081548092919061192d90613c82565b91905055507fb6d21026ac3ab2edc35f484b1bb7362a0287a0629b892a158b6907a04deba22d816000015160405161196591906131e5565b60405180910390a15050505050565b60145481565b600c60009054906101000a900473ffffffffffffffffffffffffffffffffffffffff1673ffffffffffffffffffffffffffffffffffffffff163373ffffffffffffffffffffffffffffffffffffffff1614611a0a576040517f08c379a0000000000000000000000000000000000000000000000000000000008152600401611a019061393c565b60405180910390fd5b60008060009054906101000a900473ffffffffffffffffffffffffffffffffffffffff1673ffffffffffffffffffffffffffffffffffffffff1663dd62ed3e33306040518363ffffffff1660e01b8152600401611a689291906140bd565b602060405180830381865afa158015611a85573d6000803e3d6000fd5b505050506040513d601f19601f82011682018060405250810190611aa99190613971565b905081811015611aee576040517f08c379a0000000000000000000000000000000000000000000000000000000008152600401611ae590614132565b60405180910390fd5b60008054906101000a900473ffffffffffffffffffffffffffffffffffffffff1673ffffffffffffffffffffffffffffffffffffffff166323b872dd3330856040518463ffffffff1660e01b8152600401611b4b93929190613dd6565b6020604051808303816000875af1158015611b6a573d6000803e3d6000fd5b505050506040513d601f19601f82011682018060405250810190611b8e9190613a48565b505050565b600063bc197c8160e01b905095945050505050565b60008054906101000a900473ffffffffffffffffffffffffffffffffffffffff1673ffffffffffffffffffffffffffffffffffffffff166340c10f1933836040518363ffffffff1660e01b8152600401611c03929190613a0a565b600060405180830381600087803b158015611c1d57600080fd5b505af1158015611c31573d6000803e3d6000fd5b5050505050565b600060115482611c489190613ee5565b905060008054906101000a900473ffffffffffffffffffffffffffffffffffffffff1673ffffffffffffffffffffffffffffffffffffffff1663a9059cbb33836040518363ffffffff1660e01b8152600401611ca5929190613a0a565b6020604051808303816000875af1158015611cc4573d6000803e3d6000fd5b505050506040513d601f19601f82011682018060405250810190611ce89190613a48565b50600160009054906101000a900473ffffffffffffffffffffffffffffffffffffffff1673ffffffffffffffffffffffffffffffffffffffff1663f242432a333086866040518563ffffffff1660e01b8152600401611d4a9493929190613f5e565b600060405180830381600087803b158015611d6457600080fd5b505af1158015611d78573d6000803e3d6000fd5b505050507ff2082e83ef8b94076d0d23e425eda9735767f9056d494ba309f480a835849e4d338484604051611daf93929190613fb6565b60405180910390a1505050565b6000600d60008481526020019081526020016000206004015490506000600d60008481526020019081526020016000206004015490506000600d600085815260200190815260200160002060070154600d6000878152602001908152602001600020600701541115611e6a57611e328585612cf3565b60ff16821015611e4457849050611e65565b611e4e8486612cf3565b60ff16831015611e6057839050611e64565b8490505b5b611ea8565b611e748486612cf3565b60ff16831015611e8657839050611ea7565b611e908585612cf3565b60ff16821015611ea257849050611ea6565b8390505b5b5b3373ffffffffffffffffffffffffffffffffffffffff16600d600083815260200190815260200160002060010160009054906101000a900473ffffffffffffffffffffffffffffffffffffffff1673ffffffffffffffffffffffffffffffffffffffff1603611f5957611f1d60135433612d3a565b7f79ef545e967eee66f30bc0ea214bd902f628ce7a939427ebd830ceaa54693d5c60135433604051611f50929190614152565b60405180910390a15b7f1900ede490c2177924f2506408c9d65c23b9352a0332dbd66c0fb8164e5b60b481604051611f8891906131e5565b60405180910390a15050505050565b600f5481565b600d6020528060005260406000206000915090508060000154908060010160009054906101000a900473ffffffffffffffffffffffffffffffffffffffff16908060010160149054906101000a900460ff16908060020154908060030160009054906101000a900460ff16908060030160019054906101000a900460ff16908060030160029054906101000a900460ff16908060040154908060050154908060060154908060070154908060080160009054906101000a900473ffffffffffffffffffffffffffffffffffffffff1690508c565b600063f23a6e6160e01b905095945050505050565b60125481565b60007f01ffc9a7000000000000000000000000000000000000000000000000000000007bffffffffffffffffffffffffffffffffffffffffffffffffffffffff1916827bffffffffffffffffffffffffffffffffffffffffffffffffffffffff1916149050919050565b6000806040518060a00160405280600060ff168152602001602a60ff168152602001603b60ff168152602001604460ff168152602001607160ff16815250905060006040518060c00160405280600360ff168152602001602460ff168152602001603960ff168152602001604c60ff168152602001607d60ff168152602001609160ff1681525090506000604051806102000160405280600660ff168152602001603560ff168152602001603b60ff168152602001604760ff168152602001604e60ff168152602001605560ff168152602001605960ff168152602001606160ff168152602001607360ff168152602001607560ff168152602001607760ff168152602001608060ff168152602001608260ff168152602001608960ff168152602001608b60ff168152602001608f60ff16815250905060006040518060c00160405280600960ff168152602001600c60ff168152602001602d60ff168152602001602f60ff168152602001607a60ff168152602001607e60ff1681525090506000604051806102600160405280600f60ff168152602001601260ff168152602001601460ff168152602001601c60ff168152602001601f60ff168152602001602260ff168152602001602660ff168152602001603360ff168152602001603760ff168152602001604160ff168152602001605260ff168152602001605360ff168152602001606960ff168152602001606b60ff168152602001607060ff168152602001607f60ff168152602001608860ff168152602001608d60ff168152602001608e60ff16815250905060006040518060800160405280601660ff168152602001602860ff168152602001605760ff168152602001606c60ff16815250905060006040518060a00160405280601860ff168152602001605060ff168152602001606360ff168152602001607c60ff168152602001609060ff16815250905060006040518060e00160405280601a60ff168152602001603160ff168152602001604960ff168152602001605e60ff168152602001606760ff168152602001606e60ff168152602001607260ff1681525090506000604051806101000160405280603e60ff168152602001605b60ff168152602001605f60ff168152602001606560ff168152602001607960ff168152602001607b60ff168152602001609260ff168152602001609560ff16815250905060006009600d60008e815260200190815260200160002060030160019054906101000a900460ff1660ff16036124c257600d60008e815260200190815260200160002060010160149054906101000a900460ff169050612ce0565b6009600d60008f815260200190815260200160002060030160019054906101000a900460ff1660ff160361251b57600d60008d815260200190815260200160002060010160149054906101000a900460ff169050612cdf565b600a600d60008f815260200190815260200160002060030160019054906101000a900460ff1660ff1603612642576001600d60008e815260200190815260200160002060030160019054906101000a900460ff1660ff1603612592576087609681111561258b5761258a6135d3565b5b905061263d565b6002600d60008e815260200190815260200160002060030160019054906101000a900460ff1660ff16036125db57608560968111156125d4576125d36135d3565b5b905061263c565b6006600d60008e815260200190815260200160002060030160019054906101000a900460ff1660ff1603612624576086609681111561261d5761261c6135d3565b5b905061263b565b60846096811115612638576126376135d3565b5b90505b5b5b612cde565b600a600d60008e815260200190815260200160002060030160019054906101000a900460ff1660ff1603612769576001600d60008f815260200190815260200160002060030160019054906101000a900460ff1660ff16036126b957608760968111156126b2576126b16135d3565b5b9050612764565b6002600d60008f815260200190815260200160002060030160019054906101000a900460ff1660ff160361270257608560968111156126fb576126fa6135d3565b5b9050612763565b6006600d60008f815260200190815260200160002060030160019054906101000a900460ff1660ff160361274b5760866096811115612744576127436135d3565b5b9050612762565b6084609681111561275f5761275e6135d3565b5b90505b5b5b612cdd565b600d60008d815260200190815260200160002060030160019054906101000a900460ff1660ff16600d60008f815260200190815260200160002060030160019054906101000a900460ff1660ff1603612cc557600d60008d815260200190815260200160002060010160149054906101000a900460ff1660968111156127f2576127f16135d3565b5b600d60008f815260200190815260200160002060010160149054906101000a900460ff166096811115612828576128276135d3565b5b036128dd57600d60008e815260200190815260200160002060030160029054906101000a900460ff16156128b1576001600d60008f815260200190815260200160002060010160149054906101000a900460ff16609681111561288e5761288d6135d3565b5b6128989190613da2565b60968111156128aa576128a96135d3565b5b90506128d8565b600d60008e815260200190815260200160002060010160149054906101000a900460ff1690505b612cc0565b6000600d60008f815260200190815260200160002060030160019054906101000a900460ff1660ff160361294b57896129166005610e24565b60ff166005811061292a57612929614059565b5b602002015160ff166096811115612944576129436135d3565b5b9050612cbf565b6001600d60008f815260200190815260200160002060030160019054906101000a900460ff1660ff16036129b957886129846006610e24565b60ff166006811061299857612997614059565b5b602002015160ff1660968111156129b2576129b16135d3565b5b9050612cbe565b6002600d60008f815260200190815260200160002060030160019054906101000a900460ff1660ff1603612a2757876129f26010610e24565b60ff1660108110612a0657612a05614059565b5b602002015160ff166096811115612a2057612a1f6135d3565b5b9050612cbd565b6003600d60008f815260200190815260200160002060030160019054906101000a900460ff1660ff1603612a955786612a606006610e24565b60ff1660068110612a7457612a73614059565b5b602002015160ff166096811115612a8e57612a8d6135d3565b5b9050612cbc565b6004600d60008f815260200190815260200160002060030160019054906101000a900460ff1660ff1603612b035785612ace6013610e24565b60ff1660138110612ae257612ae1614059565b5b602002015160ff166096811115612afc57612afb6135d3565b5b9050612cbb565b6005600d60008f815260200190815260200160002060030160019054906101000a900460ff1660ff1603612b715784612b3c6004610e24565b60ff1660048110612b5057612b4f614059565b5b602002015160ff166096811115612b6a57612b696135d3565b5b9050612cba565b6006600d60008f815260200190815260200160002060030160019054906101000a900460ff1660ff1603612bdf5783612baa6005610e24565b60ff1660058110612bbe57612bbd614059565b5b602002015160ff166096811115612bd857612bd76135d3565b5b9050612cb9565b6007600d60008f815260200190815260200160002060030160019054906101000a900460ff1660ff1603612c4d5782612c186007610e24565b60ff1660078110612c2c57612c2b614059565b5b602002015160ff166096811115612c4657612c456135d3565b5b9050612cb8565b6008600d60008f815260200190815260200160002060030160019054906101000a900460ff1660ff1603612cb75781612c866008610e24565b60ff1660088110612c9a57612c99614059565b5b602002015160ff166096811115612cb457612cb36135d3565b5b90505b5b5b5b5b5b5b5b5b5b612cdc565b60806096811115612cd957612cd86135d3565b5b90505b5b5b5b5b809a505050505050505050505092915050565b6000600d600083815260200190815260200160002060060154600d60008581526020019081526020016000206005015411612d2f576005612d32565b600a5b905092915050565b60008060009054906101000a900473ffffffffffffffffffffffffffffffffffffffff1673ffffffffffffffffffffffffffffffffffffffff166370a08231306040518263ffffffff1660e01b8152600401612d9691906131bb565b602060405180830381865afa158015612db3573d6000803e3d6000fd5b505050506040513d601f19601f82011682018060405250810190612dd79190613971565b9050828111612e1b576040517f08c379a0000000000000000000000000000000000000000000000000000000008152600401612e12906141c7565b60405180910390fd5b60008054906101000a900473ffffffffffffffffffffffffffffffffffffffff1673ffffffffffffffffffffffffffffffffffffffff1663a9059cbb83856040518363ffffffff1660e01b8152600401612e76929190613a0a565b6020604051808303816000875af1158015612e95573d6000803e3d6000fd5b505050506040513d601f19601f82011682018060405250810190612eb99190613a48565b50505050565b60405180610180016040528060008152602001600073ffffffffffffffffffffffffffffffffffffffff16815260200160006096811115612f0357612f026135d3565b5b815260200160008152602001600015158152602001600060ff16815260200160001515815260200160008152602001600081526020016000815260200160008152602001600073ffffffffffffffffffffffffffffffffffffffff1681525090565b6000604051905090565b600080fd5b600080fd5b60007fffffffff0000000000000000000000000000000000000000000000000000000082169050919050565b612fae81612f79565b8114612fb957600080fd5b50565b600081359050612fcb81612fa5565b92915050565b600060208284031215612fe757612fe6612f6f565b5b6000612ff584828501612fbc565b91505092915050565b60008115159050919050565b61301381612ffe565b82525050565b600060208201905061302e600083018461300a565b92915050565b6000819050919050565b61304781613034565b811461305257600080fd5b50565b6000813590506130648161303e565b92915050565b600073ffffffffffffffffffffffffffffffffffffffff82169050919050565b60006130958261306a565b9050919050565b6130a58161308a565b81146130b057600080fd5b50565b6000813590506130c28161309c565b92915050565b600080604083850312156130df576130de612f6f565b5b60006130ed85828601613055565b92505060206130fe858286016130b3565b9150509250929050565b60006020828403121561311e5761311d612f6f565b5b600061312c84828501613055565b91505092915050565b6000806040838503121561314c5761314b612f6f565b5b600061315a85828601613055565b925050602061316b85828601613055565b9150509250929050565b600060ff82169050919050565b61318b81613175565b82525050565b60006020820190506131a66000830184613182565b92915050565b6131b58161308a565b82525050565b60006020820190506131d060008301846131ac565b92915050565b6131df81613034565b82525050565b60006020820190506131fa60008301846131d6565b92915050565b61320981613175565b811461321457600080fd5b50565b60008135905061322681613200565b92915050565b61323581612ffe565b811461324057600080fd5b50565b6000813590506132528161322c565b92915050565b60008060006060848603121561327157613270612f6f565b5b600061327f86828701613217565b935050602061329086828701613055565b92505060406132a186828701613243565b9150509250925092565b600080fd5b6000601f19601f8301169050919050565b7f4e487b7100000000000000000000000000000000000000000000000000000000600052604160045260246000fd5b6132f9826132b0565b810181811067ffffffffffffffff82111715613318576133176132c1565b5b80604052505050565b600061332b612f65565b905061333782826132f0565b919050565b600067ffffffffffffffff821115613357576133566132c1565b5b602082029050602081019050919050565b600080fd5b600061338061337b8461333c565b613321565b905080838252602082019050602084028301858111156133a3576133a2613368565b5b835b818110156133cc57806133b88882613055565b8452602084019350506020810190506133a5565b5050509392505050565b600082601f8301126133eb576133ea6132ab565b5b81356133fb84826020860161336d565b91505092915050565b600080fd5b600067ffffffffffffffff821115613424576134236132c1565b5b61342d826132b0565b9050602081019050919050565b82818337600083830152505050565b600061345c61345784613409565b613321565b90508281526020810184848401111561347857613477613404565b5b61348384828561343a565b509392505050565b600082601f8301126134a05761349f6132ab565b5b81356134b0848260208601613449565b91505092915050565b600080600080600060a086880312156134d5576134d4612f6f565b5b60006134e3888289016130b3565b95505060206134f4888289016130b3565b945050604086013567ffffffffffffffff81111561351557613514612f74565b5b613521888289016133d6565b935050606086013567ffffffffffffffff81111561354257613541612f74565b5b61354e888289016133d6565b925050608086013567ffffffffffffffff81111561356f5761356e612f74565b5b61357b8882890161348b565b9150509295509295909350565b61359181612f79565b82525050565b60006020820190506135ac6000830184613588565b92915050565b60006135bd8261306a565b9050919050565b6135cd816135b2565b82525050565b7f4e487b7100000000000000000000000000000000000000000000000000000000600052602160045260246000fd5b60978110613613576136126135d3565b5b50565b600081905061362482613602565b919050565b600061363482613616565b9050919050565b61364481613629565b82525050565b600061018082019050613660600083018f6131d6565b61366d602083018e6135c4565b61367a604083018d61363b565b613687606083018c6131d6565b613694608083018b61300a565b6136a160a083018a613182565b6136ae60c083018961300a565b6136bb60e08301886131d6565b6136c96101008301876131d6565b6136d76101208301866131d6565b6136e56101408301856131d6565b6136f36101608301846131ac565b9d9c50505050505050505050505050565b600080600080600060a086880312156137205761371f612f6f565b5b600061372e888289016130b3565b955050602061373f888289016130b3565b945050604061375088828901613055565b935050606061376188828901613055565b925050608086013567ffffffffffffffff81111561378257613781612f74565b5b61378e8882890161348b565b9150509295509295909350565b600082825260208201905092915050565b7f6e6f74206f776e65722e2063616e27742073746172742073686172696e670000600082015250565b60006137e2601e8361379b565b91506137ed826137ac565b602082019050919050565b60006020820190508181036000830152613811816137d5565b9050919050565b7f6e6f20656e6f75677468206d6f6e657900000000000000000000000000000000600082015250565b600061384e60108361379b565b915061385982613818565b602082019050919050565b6000602082019050818103600083015261387d81613841565b9050919050565b7f6e6f20696e2073656c6c00000000000000000000000000000000000000000000600082015250565b60006138ba600a8361379b565b91506138c582613884565b602082019050919050565b600060208201905081810360008301526138e9816138ad565b9050919050565b7f6e6f74206f776e65722100000000000000000000000000000000000000000000600082015250565b6000613926600a8361379b565b9150613931826138f0565b602082019050919050565b6000602082019050818103600083015261395581613919565b9050919050565b60008151905061396b8161303e565b92915050565b60006020828403121561398757613986612f6f565b5b60006139958482850161395c565b91505092915050565b7f4e6f7420656e6f75676820746f6b656e7320696e207468652072657365727665600082015250565b60006139d460208361379b565b91506139df8261399e565b602082019050919050565b60006020820190508181036000830152613a03816139c7565b9050919050565b6000604082019050613a1f60008301856131ac565b613a2c60208301846131d6565b9392505050565b600081519050613a428161322c565b92915050565b600060208284031215613a5e57613a5d612f6f565b5b6000613a6c84828501613a33565b91505092915050565b7f6d6f6e7374657220626967657220746865206d61780000000000000000000000600082015250565b6000613aab60158361379b565b9150613ab682613a75565b602082019050919050565b60006020820190508181036000830152613ada81613a9e565b9050919050565b7f6e6f74206f776e65720000000000000000000000000000000000000000000000600082015250565b6000613b1760098361379b565b9150613b2282613ae1565b602082019050919050565b60006020820190508181036000830152613b4681613b0a565b9050919050565b6000819050919050565b613b68613b6382613034565b613b4d565b82525050565b60008160601b9050919050565b6000613b8682613b6e565b9050919050565b6000613b9882613b7b565b9050919050565b613bb0613bab8261308a565b613b8d565b82525050565b6000613bc28286613b57565b602082019150613bd28285613b9f565b601482019150613be28284613b57565b602082019150819050949350505050565b7f4e487b7100000000000000000000000000000000000000000000000000000000600052601260045260246000fd5b6000613c2d82613034565b9150613c3883613034565b925082613c4857613c47613bf3565b5b828206905092915050565b7f4e487b7100000000000000000000000000000000000000000000000000000000600052601160045260246000fd5b6000613c8d82613034565b91507fffffffffffffffffffffffffffffffffffffffffffffffffffffffffffffffff8203613cbf57613cbe613c53565b5b600182019050919050565b7f6e6f742073616c65000000000000000000000000000000000000000000000000600082015250565b6000613d0060088361379b565b9150613d0b82613cca565b602082019050919050565b60006020820190508181036000830152613d2f81613cf3565b9050919050565b7f6e6f206d6f6e73746572206f776e657200000000000000000000000000000000600082015250565b6000613d6c60108361379b565b9150613d7782613d36565b602082019050919050565b60006020820190508181036000830152613d9b81613d5f565b9050919050565b6000613dad82613034565b9150613db883613034565b9250828201905080821115613dd057613dcf613c53565b5b92915050565b6000606082019050613deb60008301866131ac565b613df860208301856131ac565b613e0560408301846131d6565b949350505050565b7f69732073616c6500000000000000000000000000000000000000000000000000600082015250565b6000613e4360078361379b565b9150613e4e82613e0d565b602082019050919050565b60006020820190508181036000830152613e7281613e36565b9050919050565b7f6e6f74206f776e65722e2063616e27742073746f702073686172696e67000000600082015250565b6000613eaf601d8361379b565b9150613eba82613e79565b602082019050919050565b60006020820190508181036000830152613ede81613ea2565b9050919050565b6000613ef082613034565b9150613efb83613034565b9250828202613f0981613034565b91508282048414831517613f2057613f1f613c53565b5b5092915050565b600082825260208201905092915050565b50565b6000613f48600083613f27565b9150613f5382613f38565b600082019050919050565b600060a082019050613f7360008301876131ac565b613f8060208301866131ac565b613f8d60408301856131d6565b613f9a60608301846131d6565b8181036080830152613fab81613f3b565b905095945050505050565b6000606082019050613fcb60008301866131ac565b613fd860208301856131d6565b613fe560408301846131d6565b949350505050565b7f746f74616c4d6f6e73746572206269676572207468656e206d61780000000000600082015250565b6000614023601b8361379b565b915061402e82613fed565b602082019050919050565b6000602082019050818103600083015261405281614016565b9050919050565b7f4e487b7100000000000000000000000000000000000000000000000000000000600052603260045260246000fd5b600061409382613175565b915061409e83613175565b9250828201905060ff8111156140b7576140b6613c53565b5b92915050565b60006040820190506140d260008301856131ac565b6140df60208301846131ac565b9392505050565b7f436865636b20796f757220746f6b656e20616c6c6f77616e6365000000000000600082015250565b600061411c601a8361379b565b9150614127826140e6565b602082019050919050565b6000602082019050818103600083015261414b8161410f565b9050919050565b600060408201905061416760008301856131d6565b61417460208301846131ac565b9392505050565b7f6e6f20656e6f75677468206d6f6e65792073656e6420746f206d736700000000600082015250565b60006141b1601c8361379b565b91506141bc8261417b565b602082019050919050565b600060208201905081810360008301526141e0816141a4565b905091905056fea2646970667358221220ad5d80b025b6725d9beec26398e3e15ccdf429c91c287090bba4bb677034723964736f6c63430008140033","opcodes":"PUSH1 0x80 PUSH1 0x40 MSTORE PUSH1 0x40 MLOAD DUP1 PUSH2 0x12E0 ADD PUSH1 0x40 MSTORE DUP1 PUSH1 0x0 PUSH1 0xFF AND DUP2 MSTORE PUSH1 0x20 ADD PUSH1 0x0 PUSH1 0xFF AND DUP2 MSTORE PUSH1 0x20 ADD PUSH1 0x0 PUSH1 0xFF AND DUP2 MSTORE PUSH1 0x20 ADD PUSH1 0x1 PUSH1 0xFF AND DUP2 MSTORE PUSH1 0x20 ADD PUSH1 0x1 PUSH1 0xFF AND DUP2 MSTORE PUSH1 0x20 ADD PUSH1 0x1 PUSH1 0xFF AND DUP2 MSTORE PUSH1 0x20 ADD PUSH1 0x2 PUSH1 0xFF AND DUP2 MSTORE PUSH1 0x20 ADD PUSH1 0x2 PUSH1 0xFF AND DUP2 MSTORE PUSH1 0x20 ADD PUSH1 0x2 PUSH1 0xFF AND DUP2 MSTORE PUSH1 0x20 ADD PUSH1 0x3 PUSH1 0xFF AND DUP2 MSTORE PUSH1 0x20 ADD PUSH1 0x3 PUSH1 0xFF AND DUP2 MSTORE PUSH1 0x20 ADD PUSH1 0x3 PUSH1 0xFF AND DUP2 MSTORE PUSH1 0x20 ADD PUSH1 0x3 PUSH1 0xFF AND DUP2 MSTORE PUSH1 0x20 ADD PUSH1 0x3 PUSH1 0xFF AND DUP2 MSTORE PUSH1 0x20 ADD PUSH1 0x3 PUSH1 0xFF AND DUP2 MSTORE PUSH1 0x20 ADD PUSH1 0x4 PUSH1 0xFF AND DUP2 MSTORE PUSH1 0x20 ADD PUSH1 0x4 PUSH1 0xFF AND DUP2 MSTORE PUSH1 0x20 ADD PUSH1 0x4 PUSH1 0xFF AND DUP2 MSTORE PUSH1 0x20 ADD PUSH1 0x4 PUSH1 0xFF AND DUP2 MSTORE PUSH1 0x20 ADD PUSH1 0x4 PUSH1 0xFF AND DUP2 MSTORE PUSH1 0x20 ADD PUSH1 0x4 PUSH1 0xFF AND DUP2 MSTORE PUSH1 0x20 ADD PUSH1 0x4 PUSH1 0xFF AND DUP2 MSTORE PUSH1 0x20 ADD PUSH1 0x5 PUSH1 0xFF AND DUP2 MSTORE PUSH1 0x20 ADD PUSH1 0x5 PUSH1 0xFF AND DUP2 MSTORE PUSH1 0x20 ADD PUSH1 0x6 PUSH1 0xFF AND DUP2 MSTORE PUSH1 0x20 ADD PUSH1 0x6 PUSH1 0xFF AND DUP2 MSTORE PUSH1 0x20 ADD PUSH1 0x7 PUSH1 0xFF AND DUP2 MSTORE PUSH1 0x20 ADD PUSH1 0x7 PUSH1 0xFF AND DUP2 MSTORE PUSH1 0x20 ADD PUSH1 0x4 PUSH1 0xFF AND DUP2 MSTORE PUSH1 0x20 ADD PUSH1 0x4 PUSH1 0xFF AND DUP2 MSTORE PUSH1 0x20 ADD PUSH1 0x4 PUSH1 0xFF AND DUP2 MSTORE PUSH1 0x20 ADD PUSH1 0x4 PUSH1 0xFF AND DUP2 MSTORE PUSH1 0x20 ADD PUSH1 0x4 PUSH1 0xFF AND DUP2 MSTORE PUSH1 0x20 ADD PUSH1 0x4 PUSH1 0xFF AND DUP2 MSTORE PUSH1 0x20 ADD PUSH1 0x4 PUSH1 0xFF AND DUP2 MSTORE PUSH1 0x20 ADD PUSH1 0x4 PUSH1 0xFF AND DUP2 MSTORE PUSH1 0x20 ADD PUSH1 0x1 PUSH1 0xFF AND DUP2 MSTORE PUSH1 0x20 ADD PUSH1 0x1 PUSH1 0xFF AND DUP2 MSTORE PUSH1 0x20 ADD PUSH1 0x4 PUSH1 0xFF AND DUP2 MSTORE PUSH1 0x20 ADD PUSH1 0x4 PUSH1 0xFF AND DUP2 MSTORE PUSH1 0x20 ADD PUSH1 0x5 PUSH1 0xFF AND DUP2 MSTORE PUSH1 0x20 ADD PUSH1 0x5 PUSH1 0xFF AND DUP2 MSTORE PUSH1 0x20 ADD PUSH1 0x0 PUSH1 0xFF AND DUP2 MSTORE PUSH1 0x20 ADD PUSH1 0x0 PUSH1 0xFF AND DUP2 MSTORE PUSH1 0x20 ADD PUSH1 0x0 PUSH1 0xFF AND DUP2 MSTORE PUSH1 0x20 ADD PUSH1 0x3 PUSH1 0xFF AND DUP2 MSTORE PUSH1 0x20 ADD PUSH1 0x3 PUSH1 0xFF AND DUP2 MSTORE PUSH1 0x20 ADD PUSH1 0x3 PUSH1 0xFF AND DUP2 MSTORE PUSH1 0x20 ADD PUSH1 0x3 PUSH1 0xFF AND DUP2 MSTORE PUSH1 0x20 ADD PUSH1 0x7 PUSH1 0xFF AND DUP2 MSTORE PUSH1 0x20 ADD PUSH1 0x7 PUSH1 0xFF AND DUP2 MSTORE PUSH1 0x20 ADD PUSH1 0x4 PUSH1 0xFF AND DUP2 MSTORE PUSH1 0x20 ADD PUSH1 0x4 PUSH1 0xFF AND DUP2 MSTORE PUSH1 0x20 ADD PUSH1 0x2 PUSH1 0xFF AND DUP2 MSTORE PUSH1 0x20 ADD PUSH1 0x2 PUSH1 0xFF AND DUP2 MSTORE PUSH1 0x20 ADD PUSH1 0x4 PUSH1 0xFF AND DUP2 MSTORE PUSH1 0x20 ADD PUSH1 0x4 PUSH1 0xFF AND DUP2 MSTORE PUSH1 0x20 ADD PUSH1 0x1 PUSH1 0xFF AND DUP2 MSTORE PUSH1 0x20 ADD PUSH1 0x1 PUSH1 0xFF AND DUP2 MSTORE PUSH1 0x20 ADD PUSH1 0x2 PUSH1 0xFF AND DUP2 MSTORE PUSH1 0x20 ADD PUSH1 0x2 PUSH1 0xFF AND DUP2 MSTORE PUSH1 0x20 ADD PUSH1 0x2 PUSH1 0xFF AND DUP2 MSTORE PUSH1 0x20 ADD PUSH1 0x8 PUSH1 0xFF AND DUP2 MSTORE PUSH1 0x20 ADD PUSH1 0x8 PUSH1 0xFF AND DUP2 MSTORE PUSH1 0x20 ADD PUSH1 0x8 PUSH1 0xFF AND DUP2 MSTORE PUSH1 0x20 ADD PUSH1 0x4 PUSH1 0xFF AND DUP2 MSTORE PUSH1 0x20 ADD PUSH1 0x4 PUSH1 0xFF AND DUP2 MSTORE PUSH1 0x20 ADD PUSH1 0x4 PUSH1 0xFF AND DUP2 MSTORE PUSH1 0x20 ADD PUSH1 0x0 PUSH1 0xFF AND DUP2 MSTORE PUSH1 0x20 ADD PUSH1 0x0 PUSH1 0xFF AND DUP2 MSTORE PUSH1 0x20 ADD PUSH1 0x0 PUSH1 0xFF AND DUP2 MSTORE PUSH1 0x20 ADD PUSH1 0x2 PUSH1 0xFF AND DUP2 MSTORE PUSH1 0x20 ADD PUSH1 0x2 PUSH1 0xFF AND DUP2 MSTORE PUSH1 0x20 ADD PUSH1 0x7 PUSH1 0xFF AND DUP2 MSTORE PUSH1 0x20 ADD PUSH1 0x7 PUSH1 0xFF AND DUP2 MSTORE PUSH1 0x20 ADD PUSH1 0x7 PUSH1 0xFF AND DUP2 MSTORE PUSH1 0x20 ADD PUSH1 0x1 PUSH1 0xFF AND DUP2 MSTORE PUSH1 0x20 ADD PUSH1 0x1 PUSH1 0xFF AND DUP2 MSTORE PUSH1 0x20 ADD PUSH1 0x2 PUSH1 0xFF AND DUP2 MSTORE PUSH1 0x20 ADD PUSH1 0x2 PUSH1 0xFF AND DUP2 MSTORE PUSH1 0x20 ADD PUSH1 0x6 PUSH1 0xFF AND DUP2 MSTORE PUSH1 0x20 ADD PUSH1 0x6 PUSH1 0xFF AND DUP2 MSTORE PUSH1 0x20 ADD PUSH1 0x4 PUSH1 0xFF AND DUP2 MSTORE PUSH1 0x20 ADD PUSH1 0x4 PUSH1 0xFF AND DUP2 MSTORE PUSH1 0x20 ADD PUSH1 0x4 PUSH1 0xFF AND DUP2 MSTORE PUSH1 0x20 ADD PUSH1 0x2 PUSH1 0xFF AND DUP2 MSTORE PUSH1 0x20 ADD PUSH1 0x2 PUSH1 0xFF AND DUP2 MSTORE PUSH1 0x20 ADD PUSH1 0x5 PUSH1 0xFF AND DUP2 MSTORE PUSH1 0x20 ADD PUSH1 0x5 PUSH1 0xFF AND DUP2 MSTORE PUSH1 0x20 ADD PUSH1 0x2 PUSH1 0xFF AND DUP2 MSTORE PUSH1 0x20 ADD PUSH1 0x2 PUSH1 0xFF AND DUP2 MSTORE PUSH1 0x20 ADD PUSH1 0x8 PUSH1 0xFF AND DUP2 MSTORE PUSH1 0x20 ADD PUSH1 0x8 PUSH1 0xFF AND DUP2 MSTORE PUSH1 0x20 ADD PUSH1 0x8 PUSH1 0xFF AND DUP2 MSTORE PUSH1 0x20 ADD PUSH1 0x7 PUSH1 0xFF AND DUP2 MSTORE PUSH1 0x20 ADD PUSH1 0x8 PUSH1 0xFF AND DUP2 MSTORE PUSH1 0x20 ADD PUSH1 0x8 PUSH1 0xFF AND DUP2 MSTORE PUSH1 0x20 ADD PUSH1 0x2 PUSH1 0xFF AND DUP2 MSTORE PUSH1 0x20 ADD PUSH1 0x2 PUSH1 0xFF AND DUP2 MSTORE PUSH1 0x20 ADD PUSH1 0x6 PUSH1 0xFF AND DUP2 MSTORE PUSH1 0x20 ADD PUSH1 0x6 PUSH1 0xFF AND DUP2 MSTORE PUSH1 0x20 ADD PUSH1 0x8 PUSH1 0xFF AND DUP2 MSTORE PUSH1 0x20 ADD PUSH1 0x8 PUSH1 0xFF AND DUP2 MSTORE PUSH1 0x20 ADD PUSH1 0x7 PUSH1 0xFF AND DUP2 MSTORE PUSH1 0x20 ADD PUSH1 0x7 PUSH1 0xFF AND DUP2 MSTORE PUSH1 0x20 ADD PUSH1 0x4 PUSH1 0xFF AND DUP2 MSTORE PUSH1 0x20 ADD PUSH1 0x4 PUSH1 0xFF AND DUP2 MSTORE PUSH1 0x20 ADD PUSH1 0x4 PUSH1 0xFF AND DUP2 MSTORE PUSH1 0x20 ADD PUSH1 0x5 PUSH1 0xFF AND DUP2 MSTORE PUSH1 0x20 ADD PUSH1 0x5 PUSH1 0xFF AND DUP2 MSTORE PUSH1 0x20 ADD PUSH1 0x7 PUSH1 0xFF AND DUP2 MSTORE PUSH1 0x20 ADD PUSH1 0x7 PUSH1 0xFF AND DUP2 MSTORE PUSH1 0x20 ADD PUSH1 0x4 PUSH1 0xFF AND DUP2 MSTORE PUSH1 0x20 ADD PUSH1 0x0 PUSH1 0xFF AND DUP2 MSTORE PUSH1 0x20 ADD PUSH1 0x4 PUSH1 0xFF AND DUP2 MSTORE PUSH1 0x20 ADD PUSH1 0x2 PUSH1 0xFF AND DUP2 MSTORE PUSH1 0x20 ADD PUSH1 0x2 PUSH1 0xFF AND DUP2 MSTORE PUSH1 0x20 ADD PUSH1 0x2 PUSH1 0xFF AND DUP2 MSTORE PUSH1 0x20 ADD PUSH1 0x2 PUSH1 0xFF AND DUP2 MSTORE PUSH1 0x20 ADD PUSH1 0x2 PUSH1 0xFF AND DUP2 MSTORE PUSH1 0x20 ADD PUSH1 0x2 PUSH1 0xFF AND DUP2 MSTORE PUSH1 0x20 ADD PUSH1 0x4 PUSH1 0xFF AND DUP2 MSTORE PUSH1 0x20 ADD PUSH1 0x3 PUSH1 0xFF AND DUP2 MSTORE PUSH1 0x20 ADD PUSH1 0x8 PUSH1 0xFF AND DUP2 MSTORE PUSH1 0x20 ADD PUSH1 0x6 PUSH1 0xFF AND DUP2 MSTORE PUSH1 0x20 ADD PUSH1 0x1 PUSH1 0xFF AND DUP2 MSTORE PUSH1 0x20 ADD PUSH1 0x3 PUSH1 0xFF AND DUP2 MSTORE PUSH1 0x20 ADD PUSH1 0x4 PUSH1 0xFF AND DUP2 MSTORE PUSH1 0x20 ADD PUSH1 0x2 PUSH1 0xFF AND DUP2 MSTORE PUSH1 0x20 ADD PUSH1 0x2 PUSH1 0xFF AND DUP2 MSTORE PUSH1 0x20 ADD PUSH1 0x2 PUSH1 0xFF AND DUP2 MSTORE PUSH1 0x20 ADD PUSH1 0x9 PUSH1 0xFF AND DUP2 MSTORE PUSH1 0x20 ADD PUSH1 0xA PUSH1 0xFF AND DUP2 MSTORE PUSH1 0x20 ADD PUSH1 0x2 PUSH1 0xFF AND DUP2 MSTORE PUSH1 0x20 ADD PUSH1 0x6 PUSH1 0xFF AND DUP2 MSTORE PUSH1 0x20 ADD PUSH1 0x1 PUSH1 0xFF AND DUP2 MSTORE PUSH1 0x20 ADD PUSH1 0x4 PUSH1 0xFF AND DUP2 MSTORE PUSH1 0x20 ADD PUSH1 0x2 PUSH1 0xFF AND DUP2 MSTORE PUSH1 0x20 ADD PUSH1 0x2 PUSH1 0xFF AND DUP2 MSTORE PUSH1 0x20 ADD PUSH1 0x2 PUSH1 0xFF AND DUP2 MSTORE PUSH1 0x20 ADD PUSH1 0x2 PUSH1 0xFF AND DUP2 MSTORE PUSH1 0x20 ADD PUSH1 0x4 PUSH1 0xFF AND DUP2 MSTORE PUSH1 0x20 ADD PUSH1 0x4 PUSH1 0xFF AND DUP2 MSTORE PUSH1 0x20 ADD PUSH1 0x2 PUSH1 0xFF AND DUP2 MSTORE PUSH1 0x20 ADD PUSH1 0x6 PUSH1 0xFF AND DUP2 MSTORE PUSH1 0x20 ADD PUSH1 0x1 PUSH1 0xFF AND DUP2 MSTORE PUSH1 0x20 ADD PUSH1 0x8 PUSH1 0xFF AND DUP2 MSTORE PUSH1 0x20 ADD PUSH1 0x8 PUSH1 0xFF AND DUP2 MSTORE PUSH1 0x20 ADD PUSH1 0x8 PUSH1 0xFF AND DUP2 MSTORE PUSH1 0x20 ADD PUSH1 0x8 PUSH1 0xFF AND DUP2 MSTORE PUSH1 0x20 ADD PUSH1 0x8 PUSH1 0xFF AND DUP2 MSTORE POP PUSH1 0x2 SWAP1 PUSH1 0x97 PUSH3 0x606 SWAP3 SWAP2 SWAP1 PUSH3 0x1323 JUMP JUMPDEST POP PUSH1 0x40 MLOAD DUP1 PUSH2 0x12E0 ADD PUSH1 0x40 MSTORE DUP1 PUSH1 0x1 ISZERO ISZERO ISZERO ISZERO DUP2 MSTORE PUSH1 0x20 ADD PUSH1 0x1 ISZERO ISZERO ISZERO ISZERO DUP2 MSTORE PUSH1 0x20 ADD PUSH1 0x0 ISZERO ISZERO ISZERO ISZERO DUP2 MSTORE PUSH1 0x20 ADD PUSH1 0x1 ISZERO ISZERO ISZERO ISZERO DUP2 MSTORE PUSH1 0x20 ADD PUSH1 0x1 ISZERO ISZERO ISZERO ISZERO DUP2 MSTORE PUSH1 0x20 ADD PUSH1 0x0 ISZERO ISZERO ISZERO ISZERO DUP2 MSTORE PUSH1 0x20 ADD PUSH1 0x1 ISZERO ISZERO ISZERO ISZERO DUP2 MSTORE PUSH1 0x20 ADD PUSH1 0x1 ISZERO ISZERO ISZERO ISZERO DUP2 MSTORE PUSH1 0x20 ADD PUSH1 0x0 ISZERO ISZERO ISZERO ISZERO DUP2 MSTORE PUSH1 0x20 ADD PUSH1 0x1 ISZERO ISZERO ISZERO ISZERO DUP2 MSTORE PUSH1 0x20 ADD PUSH1 0x1 ISZERO ISZERO ISZERO ISZERO DUP2 MSTORE PUSH1 0x20 ADD PUSH1 0x0 ISZERO ISZERO ISZERO ISZERO DUP2 MSTORE PUSH1 0x20 ADD PUSH1 0x1 ISZERO ISZERO ISZERO ISZERO DUP2 MSTORE PUSH1 0x20 ADD PUSH1 0x1 ISZERO ISZERO ISZERO ISZERO DUP2 MSTORE PUSH1 0x20 ADD PUSH1 0x0 ISZERO ISZERO ISZERO ISZERO DUP2 MSTORE PUSH1 0x20 ADD PUSH1 0x1 ISZERO ISZERO ISZERO ISZERO DUP2 MSTORE PUSH1 0x20 ADD PUSH1 0x1 ISZERO ISZERO ISZERO ISZERO DUP2 MSTORE PUSH1 0x20 ADD PUSH1 0x0 ISZERO ISZERO ISZERO ISZERO DUP2 MSTORE PUSH1 0x20 ADD PUSH1 0x1 ISZERO ISZERO ISZERO ISZERO DUP2 MSTORE PUSH1 0x20 ADD PUSH1 0x0 ISZERO ISZERO ISZERO ISZERO DUP2 MSTORE PUSH1 0x20 ADD PUSH1 0x1 ISZERO ISZERO ISZERO ISZERO DUP2 MSTORE PUSH1 0x20 ADD PUSH1 0x0 ISZERO ISZERO ISZERO ISZERO DUP2 MSTORE PUSH1 0x20 ADD PUSH1 0x1 ISZERO ISZERO ISZERO ISZERO DUP2 MSTORE PUSH1 0x20 ADD PUSH1 0x0 ISZERO ISZERO ISZERO ISZERO DUP2 MSTORE PUSH1 0x20 ADD PUSH1 0x1 ISZERO ISZERO ISZERO ISZERO DUP2 MSTORE PUSH1 0x20 ADD PUSH1 0x0 ISZERO ISZERO ISZERO ISZERO DUP2 MSTORE PUSH1 0x20 ADD PUSH1 0x1 ISZERO ISZERO ISZERO ISZERO DUP2 MSTORE PUSH1 0x20 ADD PUSH1 0x0 ISZERO ISZERO ISZERO ISZERO DUP2 MSTORE PUSH1 0x20 ADD PUSH1 0x1 ISZERO ISZERO ISZERO ISZERO DUP2 MSTORE PUSH1 0x20 ADD PUSH1 0x1 ISZERO ISZERO ISZERO ISZERO DUP2 MSTORE PUSH1 0x20 ADD PUSH1 0x0 ISZERO ISZERO ISZERO ISZERO DUP2 MSTORE PUSH1 0x20 ADD PUSH1 0x1 ISZERO ISZERO ISZERO ISZERO DUP2 MSTORE PUSH1 0x20 ADD PUSH1 0x1 ISZERO ISZERO ISZERO ISZERO DUP2 MSTORE PUSH1 0x20 ADD PUSH1 0x0 ISZERO ISZERO ISZERO ISZERO DUP2 MSTORE PUSH1 0x20 ADD PUSH1 0x1 ISZERO ISZERO ISZERO ISZERO DUP2 MSTORE PUSH1 0x20 ADD PUSH1 0x0 ISZERO ISZERO ISZERO ISZERO DUP2 MSTORE PUSH1 0x20 ADD PUSH1 0x1 ISZERO ISZERO ISZERO ISZERO DUP2 MSTORE PUSH1 0x20 ADD PUSH1 0x0 ISZERO ISZERO ISZERO ISZERO DUP2 MSTORE PUSH1 0x20 ADD PUSH1 0x1 ISZERO ISZERO ISZERO ISZERO DUP2 MSTORE PUSH1 0x20 ADD PUSH1 0x0 ISZERO ISZERO ISZERO ISZERO DUP2 MSTORE PUSH1 0x20 ADD PUSH1 0x1 ISZERO ISZERO ISZERO ISZERO DUP2 MSTORE PUSH1 0x20 ADD PUSH1 0x0 ISZERO ISZERO ISZERO ISZERO DUP2 MSTORE PUSH1 0x20 ADD PUSH1 0x1 ISZERO ISZERO ISZERO ISZERO DUP2 MSTORE PUSH1 0x20 ADD PUSH1 0x1 ISZERO ISZERO ISZERO ISZERO DUP2 MSTORE PUSH1 0x20 ADD PUSH1 0x0 ISZERO ISZERO ISZERO ISZERO DUP2 MSTORE PUSH1 0x20 ADD PUSH1 0x1 ISZERO ISZERO ISZERO ISZERO DUP2 MSTORE PUSH1 0x20 ADD PUSH1 0x0 ISZERO ISZERO ISZERO ISZERO DUP2 MSTORE PUSH1 0x20 ADD PUSH1 0x1 ISZERO ISZERO ISZERO ISZERO DUP2 MSTORE PUSH1 0x20 ADD PUSH1 0x0 ISZERO ISZERO ISZERO ISZERO DUP2 MSTORE PUSH1 0x20 ADD PUSH1 0x1 ISZERO ISZERO ISZERO ISZERO DUP2 MSTORE PUSH1 0x20 ADD PUSH1 0x0 ISZERO ISZERO ISZERO ISZERO DUP2 MSTORE PUSH1 0x20 ADD PUSH1 0x1 ISZERO ISZERO ISZERO ISZERO DUP2 MSTORE PUSH1 0x20 ADD PUSH1 0x0 ISZERO ISZERO ISZERO ISZERO DUP2 MSTORE PUSH1 0x20 ADD PUSH1 0x1 ISZERO ISZERO ISZERO ISZERO DUP2 MSTORE PUSH1 0x20 ADD PUSH1 0x0 ISZERO ISZERO ISZERO ISZERO DUP2 MSTORE PUSH1 0x20 ADD PUSH1 0x1 ISZERO ISZERO ISZERO ISZERO DUP2 MSTORE PUSH1 0x20 ADD PUSH1 0x0 ISZERO ISZERO ISZERO ISZERO DUP2 MSTORE PUSH1 0x20 ADD PUSH1 0x1 ISZERO ISZERO ISZERO ISZERO DUP2 MSTORE PUSH1 0x20 ADD PUSH1 0x0 ISZERO ISZERO ISZERO ISZERO DUP2 MSTORE PUSH1 0x20 ADD PUSH1 0x1 ISZERO ISZERO ISZERO ISZERO DUP2 MSTORE PUSH1 0x20 ADD PUSH1 0x1 ISZERO ISZERO ISZERO ISZERO DUP2 MSTORE PUSH1 0x20 ADD PUSH1 0x0 ISZERO ISZERO ISZERO ISZERO DUP2 MSTORE PUSH1 0x20 ADD PUSH1 0x1 ISZERO ISZERO ISZERO ISZERO DUP2 MSTORE PUSH1 0x20 ADD PUSH1 0x1 ISZERO ISZERO ISZERO ISZERO DUP2 MSTORE PUSH1 0x20 ADD PUSH1 0x0 ISZERO ISZERO ISZERO ISZERO DUP2 MSTORE PUSH1 0x20 ADD PUSH1 0x1 ISZERO ISZERO ISZERO ISZERO DUP2 MSTORE PUSH1 0x20 ADD PUSH1 0x1 ISZERO ISZERO ISZERO ISZERO DUP2 MSTORE PUSH1 0x20 ADD PUSH1 0x0 ISZERO ISZERO ISZERO ISZERO DUP2 MSTORE PUSH1 0x20 ADD PUSH1 0x1 ISZERO ISZERO ISZERO ISZERO DUP2 MSTORE PUSH1 0x20 ADD PUSH1 0x1 ISZERO ISZERO ISZERO ISZERO DUP2 MSTORE PUSH1 0x20 ADD PUSH1 0x0 ISZERO ISZERO ISZERO ISZERO DUP2 MSTORE PUSH1 0x20 ADD PUSH1 0x1 ISZERO ISZERO ISZERO ISZERO DUP2 MSTORE PUSH1 0x20 ADD PUSH1 0x0 ISZERO ISZERO ISZERO ISZERO DUP2 MSTORE PUSH1 0x20 ADD PUSH1 0x1 ISZERO ISZERO ISZERO ISZERO DUP2 MSTORE PUSH1 0x20 ADD PUSH1 0x1 ISZERO ISZERO ISZERO ISZERO DUP2 MSTORE PUSH1 0x20 ADD PUSH1 0x0 ISZERO ISZERO ISZERO ISZERO DUP2 MSTORE PUSH1 0x20 ADD PUSH1 0x1 ISZERO ISZERO ISZERO ISZERO DUP2 MSTORE PUSH1 0x20 ADD PUSH1 0x0 ISZERO ISZERO ISZERO ISZERO DUP2 MSTORE PUSH1 0x20 ADD PUSH1 0x1 ISZERO ISZERO ISZERO ISZERO DUP2 MSTORE PUSH1 0x20 ADD PUSH1 0x0 ISZERO ISZERO ISZERO ISZERO DUP2 MSTORE PUSH1 0x20 ADD PUSH1 0x1 ISZERO ISZERO ISZERO ISZERO DUP2 MSTORE PUSH1 0x20 ADD PUSH1 0x0 ISZERO ISZERO ISZERO ISZERO DUP2 MSTORE PUSH1 0x20 ADD PUSH1 0x0 ISZERO ISZERO ISZERO ISZERO DUP2 MSTORE PUSH1 0x20 ADD PUSH1 0x1 ISZERO ISZERO ISZERO ISZERO DUP2 MSTORE PUSH1 0x20 ADD PUSH1 0x0 ISZERO ISZERO ISZERO ISZERO DUP2 MSTORE PUSH1 0x20 ADD PUSH1 0x1 ISZERO ISZERO ISZERO ISZERO DUP2 MSTORE PUSH1 0x20 ADD PUSH1 0x0 ISZERO ISZERO ISZERO ISZERO DUP2 MSTORE PUSH1 0x20 ADD PUSH1 0x1 ISZERO ISZERO ISZERO ISZERO DUP2 MSTORE PUSH1 0x20 ADD PUSH1 0x0 ISZERO ISZERO ISZERO ISZERO DUP2 MSTORE PUSH1 0x20 ADD PUSH1 0x1 ISZERO ISZERO ISZERO ISZERO DUP2 MSTORE PUSH1 0x20 ADD PUSH1 0x0 ISZERO ISZERO ISZERO ISZERO DUP2 MSTORE PUSH1 0x20 ADD PUSH1 0x1 ISZERO ISZERO ISZERO ISZERO DUP2 MSTORE PUSH1 0x20 ADD PUSH1 0x1 ISZERO ISZERO ISZERO ISZERO DUP2 MSTORE PUSH1 0x20 ADD PUSH1 0x0 ISZERO ISZERO ISZERO ISZERO DUP2 MSTORE PUSH1 0x20 ADD PUSH1 0x0 ISZERO ISZERO ISZERO ISZERO DUP2 MSTORE PUSH1 0x20 ADD PUSH1 0x1 ISZERO ISZERO ISZERO ISZERO DUP2 MSTORE PUSH1 0x20 ADD PUSH1 0x0 ISZERO ISZERO ISZERO ISZERO DUP2 MSTORE PUSH1 0x20 ADD PUSH1 0x1 ISZERO ISZERO ISZERO ISZERO DUP2 MSTORE PUSH1 0x20 ADD PUSH1 0x0 ISZERO ISZERO ISZERO ISZERO DUP2 MSTORE PUSH1 0x20 ADD PUSH1 0x1 ISZERO ISZERO ISZERO ISZERO DUP2 MSTORE PUSH1 0x20 ADD PUSH1 0x0 ISZERO ISZERO ISZERO ISZERO DUP2 MSTORE PUSH1 0x20 ADD PUSH1 0x1 ISZERO ISZERO ISZERO ISZERO DUP2 MSTORE PUSH1 0x20 ADD PUSH1 0x0 ISZERO ISZERO ISZERO ISZERO DUP2 MSTORE PUSH1 0x20 ADD PUSH1 0x1 ISZERO ISZERO ISZERO ISZERO DUP2 MSTORE PUSH1 0x20 ADD PUSH1 0x0 ISZERO ISZERO ISZERO ISZERO DUP2 MSTORE PUSH1 0x20 ADD PUSH1 0x1 ISZERO ISZERO ISZERO ISZERO DUP2 MSTORE PUSH1 0x20 ADD PUSH1 0x0 ISZERO ISZERO ISZERO ISZERO DUP2 MSTORE PUSH1 0x20 ADD PUSH1 0x0 ISZERO ISZERO ISZERO ISZERO DUP2 MSTORE PUSH1 0x20 ADD PUSH1 0x1 ISZERO ISZERO ISZERO ISZERO DUP2 MSTORE PUSH1 0x20 ADD PUSH1 0x0 ISZERO ISZERO ISZERO ISZERO DUP2 MSTORE PUSH1 0x20 ADD PUSH1 0x1 ISZERO ISZERO ISZERO ISZERO DUP2 MSTORE PUSH1 0x20 ADD PUSH1 0x0 ISZERO ISZERO ISZERO ISZERO DUP2 MSTORE PUSH1 0x20 ADD PUSH1 0x0 ISZERO ISZERO ISZERO ISZERO DUP2 MSTORE PUSH1 0x20 ADD PUSH1 0x0 ISZERO ISZERO ISZERO ISZERO DUP2 MSTORE PUSH1 0x20 ADD PUSH1 0x0 ISZERO ISZERO ISZERO ISZERO DUP2 MSTORE PUSH1 0x20 ADD PUSH1 0x1 ISZERO ISZERO ISZERO ISZERO DUP2 MSTORE PUSH1 0x20 ADD PUSH1 0x0 ISZERO ISZERO ISZERO ISZERO DUP2 MSTORE PUSH1 0x20 ADD PUSH1 0x1 ISZERO ISZERO ISZERO ISZERO DUP2 MSTORE PUSH1 0x20 ADD PUSH1 0x0 ISZERO ISZERO ISZERO ISZERO DUP2 MSTORE PUSH1 0x20 ADD PUSH1 0x1 ISZERO ISZERO ISZERO ISZERO DUP2 MSTORE PUSH1 0x20 ADD PUSH1 0x0 ISZERO ISZERO ISZERO ISZERO DUP2 MSTORE PUSH1 0x20 ADD PUSH1 0x0 ISZERO ISZERO ISZERO ISZERO DUP2 MSTORE PUSH1 0x20 ADD PUSH1 0x0 ISZERO ISZERO ISZERO ISZERO DUP2 MSTORE PUSH1 0x20 ADD PUSH1 0x0 ISZERO ISZERO ISZERO ISZERO DUP2 MSTORE PUSH1 0x20 ADD PUSH1 0x0 ISZERO ISZERO ISZERO ISZERO DUP2 MSTORE PUSH1 0x20 ADD PUSH1 0x0 ISZERO ISZERO ISZERO ISZERO DUP2 MSTORE PUSH1 0x20 ADD PUSH1 0x0 ISZERO ISZERO ISZERO ISZERO DUP2 MSTORE PUSH1 0x20 ADD PUSH1 0x0 ISZERO ISZERO ISZERO ISZERO DUP2 MSTORE PUSH1 0x20 ADD PUSH1 0x1 ISZERO ISZERO ISZERO ISZERO DUP2 MSTORE PUSH1 0x20 ADD PUSH1 0x0 ISZERO ISZERO ISZERO ISZERO DUP2 MSTORE PUSH1 0x20 ADD PUSH1 0x0 ISZERO ISZERO ISZERO ISZERO DUP2 MSTORE PUSH1 0x20 ADD PUSH1 0x0 ISZERO ISZERO ISZERO ISZERO DUP2 MSTORE PUSH1 0x20 ADD PUSH1 0x0 ISZERO ISZERO ISZERO ISZERO DUP2 MSTORE PUSH1 0x20 ADD PUSH1 0x0 ISZERO ISZERO ISZERO ISZERO DUP2 MSTORE PUSH1 0x20 ADD PUSH1 0x0 ISZERO ISZERO ISZERO ISZERO DUP2 MSTORE PUSH1 0x20 ADD PUSH1 0x0 ISZERO ISZERO ISZERO ISZERO DUP2 MSTORE PUSH1 0x20 ADD PUSH1 0x0 ISZERO ISZERO ISZERO ISZERO DUP2 MSTORE PUSH1 0x20 ADD PUSH1 0x1 ISZERO ISZERO ISZERO ISZERO DUP2 MSTORE PUSH1 0x20 ADD PUSH1 0x0 ISZERO ISZERO ISZERO ISZERO DUP2 MSTORE PUSH1 0x20 ADD PUSH1 0x1 ISZERO ISZERO ISZERO ISZERO DUP2 MSTORE PUSH1 0x20 ADD PUSH1 0x0 ISZERO ISZERO ISZERO ISZERO DUP2 MSTORE PUSH1 0x20 ADD PUSH1 0x0 ISZERO ISZERO ISZERO ISZERO DUP2 MSTORE PUSH1 0x20 ADD PUSH1 0x0 ISZERO ISZERO ISZERO ISZERO DUP2 MSTORE PUSH1 0x20 ADD PUSH1 0x0 ISZERO ISZERO ISZERO ISZERO DUP2 MSTORE PUSH1 0x20 ADD PUSH1 0x0 ISZERO ISZERO ISZERO ISZERO DUP2 MSTORE PUSH1 0x20 ADD PUSH1 0x0 ISZERO ISZERO ISZERO ISZERO DUP2 MSTORE PUSH1 0x20 ADD PUSH1 0x1 ISZERO ISZERO ISZERO ISZERO DUP2 MSTORE PUSH1 0x20 ADD PUSH1 0x1 ISZERO ISZERO ISZERO ISZERO DUP2 MSTORE PUSH1 0x20 ADD PUSH1 0x0 ISZERO ISZERO ISZERO ISZERO DUP2 MSTORE PUSH1 0x20 ADD PUSH1 0x1 ISZERO ISZERO ISZERO ISZERO DUP2 MSTORE PUSH1 0x20 ADD PUSH1 0x0 ISZERO ISZERO ISZERO ISZERO DUP2 MSTORE POP PUSH1 0x7 SWAP1 PUSH1 0x97 PUSH3 0xCA0 SWAP3 SWAP2 SWAP1 PUSH3 0x13C4 JUMP JUMPDEST POP PUSH1 0x0 PUSH1 0xE SSTORE PUSH32 0xFFFFFFFFFFFFFFFFFFFFFFFFFFFFFFFFFFFFFFFFFFFFFFFFFFFFFFFFFFFFFFFF PUSH1 0xF SSTORE PUSH1 0x0 PUSH1 0x10 SSTORE PUSH8 0x4563918244F40000 PUSH1 0x11 SSTORE PUSH8 0xDE0B6B3A7640000 PUSH1 0x12 SSTORE PUSH8 0x16345785D8A0000 PUSH1 0x13 SSTORE PUSH8 0x16345785D8A0000 PUSH1 0x14 SSTORE CALLVALUE DUP1 ISZERO PUSH3 0xD0C JUMPI PUSH1 0x0 DUP1 REVERT JUMPDEST POP PUSH1 0x40 MLOAD PUSH3 0x5B60 CODESIZE SUB DUP1 PUSH3 0x5B60 DUP4 CODECOPY DUP2 DUP2 ADD PUSH1 0x40 MSTORE DUP2 ADD SWAP1 PUSH3 0xD32 SWAP2 SWAP1 PUSH3 0x15EF JUMP JUMPDEST DUP2 PUSH1 0x0 DUP1 PUSH2 0x100 EXP DUP2 SLOAD DUP2 PUSH20 0xFFFFFFFFFFFFFFFFFFFFFFFFFFFFFFFFFFFFFFFF MUL NOT AND SWAP1 DUP4 PUSH20 0xFFFFFFFFFFFFFFFFFFFFFFFFFFFFFFFFFFFFFFFF AND MUL OR SWAP1 SSTORE POP DUP1 PUSH1 0x1 PUSH1 0x0 PUSH2 0x100 EXP DUP2 SLOAD DUP2 PUSH20 0xFFFFFFFFFFFFFFFFFFFFFFFFFFFFFFFFFFFFFFFF MUL NOT AND SWAP1 DUP4 PUSH20 0xFFFFFFFFFFFFFFFFFFFFFFFFFFFFFFFFFFFFFFFF AND MUL OR SWAP1 SSTORE POP CALLER PUSH1 0xC PUSH1 0x0 PUSH2 0x100 EXP DUP2 SLOAD DUP2 PUSH20 0xFFFFFFFFFFFFFFFFFFFFFFFFFFFFFFFFFFFFFFFF MUL NOT AND SWAP1 DUP4 PUSH20 0xFFFFFFFFFFFFFFFFFFFFFFFFFFFFFFFFFFFFFFFF AND MUL OR SWAP1 SSTORE POP PUSH3 0xE0A PUSH1 0x0 PUSH1 0xA PUSH1 0x0 PUSH3 0xEAC PUSH1 0x20 SHL PUSH1 0x20 SHR JUMP JUMPDEST PUSH3 0xE20 PUSH1 0x1 PUSH1 0xA PUSH1 0x0 PUSH3 0xEAC PUSH1 0x20 SHL PUSH1 0x20 SHR JUMP JUMPDEST PUSH3 0xE36 PUSH1 0x2 PUSH1 0xA PUSH1 0x0 PUSH3 0xEAC PUSH1 0x20 SHL PUSH1 0x20 SHR JUMP JUMPDEST PUSH3 0xE4C PUSH1 0x3 PUSH1 0xA PUSH1 0x1 PUSH3 0xEAC PUSH1 0x20 SHL PUSH1 0x20 SHR JUMP JUMPDEST PUSH3 0xE62 PUSH1 0x9 PUSH1 0xA PUSH1 0x1 PUSH3 0xEAC PUSH1 0x20 SHL PUSH1 0x20 SHR JUMP JUMPDEST PUSH3 0xE78 PUSH1 0x9 PUSH1 0xA PUSH1 0x1 PUSH3 0xEAC PUSH1 0x20 SHL PUSH1 0x20 SHR JUMP JUMPDEST PUSH3 0xE8E PUSH1 0x4 PUSH1 0xA PUSH1 0x1 PUSH3 0xEAC PUSH1 0x20 SHL PUSH1 0x20 SHR JUMP JUMPDEST PUSH3 0xEA4 PUSH1 0x4 PUSH1 0xA PUSH1 0x1 PUSH3 0xEAC PUSH1 0x20 SHL PUSH1 0x20 SHR JUMP JUMPDEST POP POP PUSH3 0x1933 JUMP JUMPDEST PUSH1 0xF SLOAD PUSH1 0xE SLOAD LT PUSH3 0xEF5 JUMPI PUSH1 0x40 MLOAD PUSH32 0x8C379A000000000000000000000000000000000000000000000000000000000 DUP2 MSTORE PUSH1 0x4 ADD PUSH3 0xEEC SWAP1 PUSH3 0x1697 JUMP JUMPDEST PUSH1 0x40 MLOAD DUP1 SWAP2 SUB SWAP1 REVERT JUMPDEST PUSH1 0x0 DUP4 PUSH1 0xFF AND PUSH1 0x96 DUP2 GT ISZERO PUSH3 0xF10 JUMPI PUSH3 0xF0F PUSH3 0x16B9 JUMP JUMPDEST JUMPDEST SWAP1 POP PUSH3 0xF1C PUSH3 0x1464 JUMP JUMPDEST PUSH1 0xE SLOAD DUP2 PUSH1 0x0 ADD DUP2 DUP2 MSTORE POP POP CALLER DUP2 PUSH1 0x20 ADD SWAP1 PUSH20 0xFFFFFFFFFFFFFFFFFFFFFFFFFFFFFFFFFFFFFFFF AND SWAP1 DUP2 PUSH20 0xFFFFFFFFFFFFFFFFFFFFFFFFFFFFFFFFFFFFFFFF AND DUP2 MSTORE POP POP DUP2 DUP2 PUSH1 0x40 ADD SWAP1 PUSH1 0x96 DUP2 GT ISZERO PUSH3 0xF7B JUMPI PUSH3 0xF7A PUSH3 0x16B9 JUMP JUMPDEST JUMPDEST SWAP1 DUP2 PUSH1 0x96 DUP2 GT ISZERO PUSH3 0xF92 JUMPI PUSH3 0xF91 PUSH3 0x16B9 JUMP JUMPDEST JUMPDEST DUP2 MSTORE POP POP PUSH1 0x2 DUP6 PUSH1 0xFF AND PUSH1 0x97 DUP2 LT PUSH3 0xFB0 JUMPI PUSH3 0xFAF PUSH3 0x16E8 JUMP JUMPDEST JUMPDEST PUSH1 0x20 SWAP2 DUP3 DUP3 DIV ADD SWAP2 SWAP1 MOD SWAP1 SLOAD SWAP1 PUSH2 0x100 EXP SWAP1 DIV PUSH1 0xFF AND DUP2 PUSH1 0xA0 ADD SWAP1 PUSH1 0xFF AND SWAP1 DUP2 PUSH1 0xFF AND DUP2 MSTORE POP POP PUSH1 0x7 DUP6 PUSH1 0xFF AND PUSH1 0x97 DUP2 LT PUSH3 0xFF1 JUMPI PUSH3 0xFF0 PUSH3 0x16E8 JUMP JUMPDEST JUMPDEST PUSH1 0x20 SWAP2 DUP3 DUP3 DIV ADD SWAP2 SWAP1 MOD SWAP1 SLOAD SWAP1 PUSH2 0x100 EXP SWAP1 DIV PUSH1 0xFF AND DUP2 PUSH1 0xC0 ADD SWAP1 ISZERO ISZERO SWAP1 DUP2 ISZERO ISZERO DUP2 MSTORE POP POP DUP4 DUP2 PUSH1 0x60 ADD DUP2 DUP2 MSTORE POP POP DUP3 DUP2 PUSH1 0x80 ADD SWAP1 ISZERO ISZERO SWAP1 DUP2 ISZERO ISZERO DUP2 MSTORE POP POP PUSH3 0x1042 PUSH1 0x29 PUSH3 0x12BC PUSH1 0x20 SHL PUSH1 0x20 SHR JUMP JUMPDEST PUSH1 0x64 PUSH3 0x1050 SWAP2 SWAP1 PUSH3 0x1753 JUMP JUMPDEST PUSH1 0xFF AND DUP2 PUSH1 0xE0 ADD DUP2 DUP2 MSTORE POP POP PUSH3 0x106E PUSH1 0x29 PUSH3 0x12BC PUSH1 0x20 SHL PUSH1 0x20 SHR JUMP JUMPDEST PUSH1 0x64 PUSH3 0x107C SWAP2 SWAP1 PUSH3 0x1753 JUMP JUMPDEST PUSH1 0xFF AND DUP2 PUSH2 0x100 ADD DUP2 DUP2 MSTORE POP POP PUSH3 0x109B PUSH1 0x29 PUSH3 0x12BC PUSH1 0x20 SHL PUSH1 0x20 SHR JUMP JUMPDEST PUSH1 0x64 PUSH3 0x10A9 SWAP2 SWAP1 PUSH3 0x1753 JUMP JUMPDEST PUSH1 0xFF AND DUP2 PUSH2 0x120 ADD DUP2 DUP2 MSTORE POP POP PUSH3 0x10C8 PUSH1 0x29 PUSH3 0x12BC PUSH1 0x20 SHL PUSH1 0x20 SHR JUMP JUMPDEST PUSH1 0x64 PUSH3 0x10D6 SWAP2 SWAP1 PUSH3 0x1753 JUMP JUMPDEST PUSH1 0xFF AND DUP2 PUSH2 0x140 ADD DUP2 DUP2 MSTORE POP POP DUP1 PUSH1 0xD PUSH1 0x0 PUSH1 0xE SLOAD DUP2 MSTORE PUSH1 0x20 ADD SWAP1 DUP2 MSTORE PUSH1 0x20 ADD PUSH1 0x0 KECCAK256 PUSH1 0x0 DUP3 ADD MLOAD DUP2 PUSH1 0x0 ADD SSTORE PUSH1 0x20 DUP3 ADD MLOAD DUP2 PUSH1 0x1 ADD PUSH1 0x0 PUSH2 0x100 EXP DUP2 SLOAD DUP2 PUSH20 0xFFFFFFFFFFFFFFFFFFFFFFFFFFFFFFFFFFFFFFFF MUL NOT AND SWAP1 DUP4 PUSH20 0xFFFFFFFFFFFFFFFFFFFFFFFFFFFFFFFFFFFFFFFF AND MUL OR SWAP1 SSTORE POP PUSH1 0x40 DUP3 ADD MLOAD DUP2 PUSH1 0x1 ADD PUSH1 0x14 PUSH2 0x100 EXP DUP2 SLOAD DUP2 PUSH1 0xFF MUL NOT AND SWAP1 DUP4 PUSH1 0x96 DUP2 GT ISZERO PUSH3 0x1178 JUMPI PUSH3 0x1177 PUSH3 0x16B9 JUMP JUMPDEST JUMPDEST MUL OR SWAP1 SSTORE POP PUSH1 0x60 DUP3 ADD MLOAD DUP2 PUSH1 0x2 ADD SSTORE PUSH1 0x80 DUP3 ADD MLOAD DUP2 PUSH1 0x3 ADD PUSH1 0x0 PUSH2 0x100 EXP DUP2 SLOAD DUP2 PUSH1 0xFF MUL NOT AND SWAP1 DUP4 ISZERO ISZERO MUL OR SWAP1 SSTORE POP PUSH1 0xA0 DUP3 ADD MLOAD DUP2 PUSH1 0x3 ADD PUSH1 0x1 PUSH2 0x100 EXP DUP2 SLOAD DUP2 PUSH1 0xFF MUL NOT AND SWAP1 DUP4 PUSH1 0xFF AND MUL OR SWAP1 SSTORE POP PUSH1 0xC0 DUP3 ADD MLOAD DUP2 PUSH1 0x3 ADD PUSH1 0x2 PUSH2 0x100 EXP DUP2 SLOAD DUP2 PUSH1 0xFF MUL NOT AND SWAP1 DUP4 ISZERO ISZERO MUL OR SWAP1 SSTORE POP PUSH1 0xE0 DUP3 ADD MLOAD DUP2 PUSH1 0x4 ADD SSTORE PUSH2 0x100 DUP3 ADD MLOAD DUP2 PUSH1 0x5 ADD SSTORE PUSH2 0x120 DUP3 ADD MLOAD DUP2 PUSH1 0x6 ADD SSTORE PUSH2 0x140 DUP3 ADD MLOAD DUP2 PUSH1 0x7 ADD SSTORE PUSH2 0x160 DUP3 ADD MLOAD DUP2 PUSH1 0x8 ADD PUSH1 0x0 PUSH2 0x100 EXP DUP2 SLOAD DUP2 PUSH20 0xFFFFFFFFFFFFFFFFFFFFFFFFFFFFFFFFFFFFFFFF MUL NOT AND SWAP1 DUP4 PUSH20 0xFFFFFFFFFFFFFFFFFFFFFFFFFFFFFFFFFFFFFFFF AND MUL OR SWAP1 SSTORE POP SWAP1 POP POP PUSH1 0xE PUSH1 0x0 DUP2 SLOAD DUP1 SWAP3 SWAP2 SWAP1 PUSH3 0x1273 SWAP1 PUSH3 0x1799 JUMP JUMPDEST SWAP2 SWAP1 POP SSTORE POP PUSH32 0xB6D21026AC3AB2EDC35F484B1BB7362A0287A0629B892A158B6907A04DEBA22D DUP2 PUSH1 0x0 ADD MLOAD PUSH1 0x40 MLOAD PUSH3 0x12AD SWAP2 SWAP1 PUSH3 0x17F7 JUMP JUMPDEST PUSH1 0x40 MLOAD DUP1 SWAP2 SUB SWAP1 LOG1 POP POP POP POP POP JUMP JUMPDEST PUSH1 0x0 DUP1 DUP3 TIMESTAMP CALLER PUSH1 0x10 SLOAD PUSH1 0x40 MLOAD PUSH1 0x20 ADD PUSH3 0x12D9 SWAP4 SWAP3 SWAP2 SWAP1 PUSH3 0x1889 JUMP JUMPDEST PUSH1 0x40 MLOAD PUSH1 0x20 DUP2 DUP4 SUB SUB DUP2 MSTORE SWAP1 PUSH1 0x40 MSTORE DUP1 MLOAD SWAP1 PUSH1 0x20 ADD KECCAK256 PUSH1 0x0 SHR PUSH3 0x12FE SWAP2 SWAP1 PUSH3 0x18FB JUMP JUMPDEST SWAP1 POP PUSH1 0x10 PUSH1 0x0 DUP2 SLOAD DUP1 SWAP3 SWAP2 SWAP1 PUSH3 0x1315 SWAP1 PUSH3 0x1799 JUMP JUMPDEST SWAP2 SWAP1 POP SSTORE POP DUP1 SWAP2 POP POP SWAP2 SWAP1 POP JUMP JUMPDEST DUP3 PUSH1 0x97 PUSH1 0x1F ADD PUSH1 0x20 SWAP1 DIV DUP2 ADD SWAP3 DUP3 ISZERO PUSH3 0x13B1 JUMPI SWAP2 PUSH1 0x20 MUL DUP3 ADD PUSH1 0x0 JUMPDEST DUP4 DUP3 GT ISZERO PUSH3 0x1380 JUMPI DUP4 MLOAD DUP4 DUP3 PUSH2 0x100 EXP DUP2 SLOAD DUP2 PUSH1 0xFF MUL NOT AND SWAP1 DUP4 PUSH1 0xFF AND MUL OR SWAP1 SSTORE POP SWAP3 PUSH1 0x20 ADD SWAP3 PUSH1 0x1 ADD PUSH1 0x20 DUP2 PUSH1 0x0 ADD DIV SWAP3 DUP4 ADD SWAP3 PUSH1 0x1 SUB MUL PUSH3 0x1340 JUMP JUMPDEST DUP1 ISZERO PUSH3 0x13AF JUMPI DUP3 DUP2 PUSH2 0x100 EXP DUP2 SLOAD SWAP1 PUSH1 0xFF MUL NOT AND SWAP1 SSTORE PUSH1 0x1 ADD PUSH1 0x20 DUP2 PUSH1 0x0 ADD DIV SWAP3 DUP4 ADD SWAP3 PUSH1 0x1 SUB MUL PUSH3 0x1380 JUMP JUMPDEST POP JUMPDEST POP SWAP1 POP PUSH3 0x13C0 SWAP2 SWAP1 PUSH3 0x150D JUMP JUMPDEST POP SWAP1 JUMP JUMPDEST DUP3 PUSH1 0x97 PUSH1 0x1F ADD PUSH1 0x20 SWAP1 DIV DUP2 ADD SWAP3 DUP3 ISZERO PUSH3 0x1451 JUMPI SWAP2 PUSH1 0x20 MUL DUP3 ADD PUSH1 0x0 JUMPDEST DUP4 DUP3 GT ISZERO PUSH3 0x1420 JUMPI DUP4 MLOAD DUP4 DUP3 PUSH2 0x100 EXP DUP2 SLOAD DUP2 PUSH1 0xFF MUL NOT AND SWAP1 DUP4 ISZERO ISZERO MUL OR SWAP1 SSTORE POP SWAP3 PUSH1 0x20 ADD SWAP3 PUSH1 0x1 ADD PUSH1 0x20 DUP2 PUSH1 0x0 ADD DIV SWAP3 DUP4 ADD SWAP3 PUSH1 0x1 SUB MUL PUSH3 0x13E1 JUMP JUMPDEST DUP1 ISZERO PUSH3 0x144F JUMPI DUP3 DUP2 PUSH2 0x100 EXP DUP2 SLOAD SWAP1 PUSH1 0xFF MUL NOT AND SWAP1 SSTORE PUSH1 0x1 ADD PUSH1 0x20 DUP2 PUSH1 0x0 ADD DIV SWAP3 DUP4 ADD SWAP3 PUSH1 0x1 SUB MUL PUSH3 0x1420 JUMP JUMPDEST POP JUMPDEST POP SWAP1 POP PUSH3 0x1460 SWAP2 SWAP1 PUSH3 0x150D JUMP JUMPDEST POP SWAP1 JUMP JUMPDEST PUSH1 0x40 MLOAD DUP1 PUSH2 0x180 ADD PUSH1 0x40 MSTORE DUP1 PUSH1 0x0 DUP2 MSTORE PUSH1 0x20 ADD PUSH1 0x0 PUSH20 0xFFFFFFFFFFFFFFFFFFFFFFFFFFFFFFFFFFFFFFFF AND DUP2 MSTORE PUSH1 0x20 ADD PUSH1 0x0 PUSH1 0x96 DUP2 GT ISZERO PUSH3 0x14AB JUMPI PUSH3 0x14AA PUSH3 0x16B9 JUMP JUMPDEST JUMPDEST DUP2 MSTORE PUSH1 0x20 ADD PUSH1 0x0 DUP2 MSTORE PUSH1 0x20 ADD PUSH1 0x0 ISZERO ISZERO DUP2 MSTORE PUSH1 0x20 ADD PUSH1 0x0 PUSH1 0xFF AND DUP2 MSTORE PUSH1 0x20 ADD PUSH1 0x0 ISZERO ISZERO DUP2 MSTORE PUSH1 0x20 ADD PUSH1 0x0 DUP2 MSTORE PUSH1 0x20 ADD PUSH1 0x0 DUP2 MSTORE PUSH1 0x20 ADD PUSH1 0x0 DUP2 MSTORE PUSH1 0x20 ADD PUSH1 0x0 DUP2 MSTORE PUSH1 0x20 ADD PUSH1 0x0 PUSH20 0xFFFFFFFFFFFFFFFFFFFFFFFFFFFFFFFFFFFFFFFF AND DUP2 MSTORE POP SWAP1 JUMP JUMPDEST JUMPDEST DUP1 DUP3 GT ISZERO PUSH3 0x1528 JUMPI PUSH1 0x0 DUP2 PUSH1 0x0 SWAP1 SSTORE POP PUSH1 0x1 ADD PUSH3 0x150E JUMP JUMPDEST POP SWAP1 JUMP JUMPDEST PUSH1 0x0 DUP1 REVERT JUMPDEST PUSH1 0x0 PUSH20 0xFFFFFFFFFFFFFFFFFFFFFFFFFFFFFFFFFFFFFFFF DUP3 AND SWAP1 POP SWAP2 SWAP1 POP JUMP JUMPDEST PUSH1 0x0 PUSH3 0x155E DUP3 PUSH3 0x1531 JUMP JUMPDEST SWAP1 POP SWAP2 SWAP1 POP JUMP JUMPDEST PUSH1 0x0 PUSH3 0x1572 DUP3 PUSH3 0x1551 JUMP JUMPDEST SWAP1 POP SWAP2 SWAP1 POP JUMP JUMPDEST PUSH3 0x1584 DUP2 PUSH3 0x1565 JUMP JUMPDEST DUP2 EQ PUSH3 0x1590 JUMPI PUSH1 0x0 DUP1 REVERT JUMPDEST POP JUMP JUMPDEST PUSH1 0x0 DUP2 MLOAD SWAP1 POP PUSH3 0x15A4 DUP2 PUSH3 0x1579 JUMP JUMPDEST SWAP3 SWAP2 POP POP JUMP JUMPDEST PUSH1 0x0 PUSH3 0x15B7 DUP3 PUSH3 0x1551 JUMP JUMPDEST SWAP1 POP SWAP2 SWAP1 POP JUMP JUMPDEST PUSH3 0x15C9 DUP2 PUSH3 0x15AA JUMP JUMPDEST DUP2 EQ PUSH3 0x15D5 JUMPI PUSH1 0x0 DUP1 REVERT JUMPDEST POP JUMP JUMPDEST PUSH1 0x0 DUP2 MLOAD SWAP1 POP PUSH3 0x15E9 DUP2 PUSH3 0x15BE JUMP JUMPDEST SWAP3 SWAP2 POP POP JUMP JUMPDEST PUSH1 0x0 DUP1 PUSH1 0x40 DUP4 DUP6 SUB SLT ISZERO PUSH3 0x1609 JUMPI PUSH3 0x1608 PUSH3 0x152C JUMP JUMPDEST JUMPDEST PUSH1 0x0 PUSH3 0x1619 DUP6 DUP3 DUP7 ADD PUSH3 0x1593 JUMP JUMPDEST SWAP3 POP POP PUSH1 0x20 PUSH3 0x162C DUP6 DUP3 DUP7 ADD PUSH3 0x15D8 JUMP JUMPDEST SWAP2 POP POP SWAP3 POP SWAP3 SWAP1 POP JUMP JUMPDEST PUSH1 0x0 DUP3 DUP3 MSTORE PUSH1 0x20 DUP3 ADD SWAP1 POP SWAP3 SWAP2 POP POP JUMP JUMPDEST PUSH32 0x746F74616C4D6F6E73746572206269676572207468656E206D61780000000000 PUSH1 0x0 DUP3 ADD MSTORE POP JUMP JUMPDEST PUSH1 0x0 PUSH3 0x167F PUSH1 0x1B DUP4 PUSH3 0x1636 JUMP JUMPDEST SWAP2 POP PUSH3 0x168C DUP3 PUSH3 0x1647 JUMP JUMPDEST PUSH1 0x20 DUP3 ADD SWAP1 POP SWAP2 SWAP1 POP JUMP JUMPDEST PUSH1 0x0 PUSH1 0x20 DUP3 ADD SWAP1 POP DUP2 DUP2 SUB PUSH1 0x0 DUP4 ADD MSTORE PUSH3 0x16B2 DUP2 PUSH3 0x1670 JUMP JUMPDEST SWAP1 POP SWAP2 SWAP1 POP JUMP JUMPDEST PUSH32 0x4E487B7100000000000000000000000000000000000000000000000000000000 PUSH1 0x0 MSTORE PUSH1 0x21 PUSH1 0x4 MSTORE PUSH1 0x24 PUSH1 0x0 REVERT JUMPDEST PUSH32 0x4E487B7100000000000000000000000000000000000000000000000000000000 PUSH1 0x0 MSTORE PUSH1 0x32 PUSH1 0x4 MSTORE PUSH1 0x24 PUSH1 0x0 REVERT JUMPDEST PUSH1 0x0 PUSH1 0xFF DUP3 AND SWAP1 POP SWAP2 SWAP1 POP JUMP JUMPDEST PUSH32 0x4E487B7100000000000000000000000000000000000000000000000000000000 PUSH1 0x0 MSTORE PUSH1 0x11 PUSH1 0x4 MSTORE PUSH1 0x24 PUSH1 0x0 REVERT JUMPDEST PUSH1 0x0 PUSH3 0x1760 DUP3 PUSH3 0x1717 JUMP JUMPDEST SWAP2 POP PUSH3 0x176D DUP4 PUSH3 0x1717 JUMP JUMPDEST SWAP3 POP DUP3 DUP3 ADD SWAP1 POP PUSH1 0xFF DUP2 GT ISZERO PUSH3 0x1789 JUMPI PUSH3 0x1788 PUSH3 0x1724 JUMP JUMPDEST JUMPDEST SWAP3 SWAP2 POP POP JUMP JUMPDEST PUSH1 0x0 DUP2 SWAP1 POP SWAP2 SWAP1 POP JUMP JUMPDEST PUSH1 0x0 PUSH3 0x17A6 DUP3 PUSH3 0x178F JUMP JUMPDEST SWAP2 POP PUSH32 0xFFFFFFFFFFFFFFFFFFFFFFFFFFFFFFFFFFFFFFFFFFFFFFFFFFFFFFFFFFFFFFFF DUP3 SUB PUSH3 0x17DB JUMPI PUSH3 0x17DA PUSH3 0x1724 JUMP JUMPDEST JUMPDEST PUSH1 0x1 DUP3 ADD SWAP1 POP SWAP2 SWAP1 POP JUMP JUMPDEST PUSH3 0x17F1 DUP2 PUSH3 0x178F JUMP JUMPDEST DUP3 MSTORE POP POP JUMP JUMPDEST PUSH1 0x0 PUSH1 0x20 DUP3 ADD SWAP1 POP PUSH3 0x180E PUSH1 0x0 DUP4 ADD DUP5 PUSH3 0x17E6 JUMP JUMPDEST SWAP3 SWAP2 POP POP JUMP JUMPDEST PUSH1 0x0 DUP2 SWAP1 POP SWAP2 SWAP1 POP JUMP JUMPDEST PUSH3 0x1833 PUSH3 0x182D DUP3 PUSH3 0x178F JUMP JUMPDEST PUSH3 0x1814 JUMP JUMPDEST DUP3 MSTORE POP POP JUMP JUMPDEST PUSH1 0x0 DUP2 PUSH1 0x60 SHL SWAP1 POP SWAP2 SWAP1 POP JUMP JUMPDEST PUSH1 0x0 PUSH3 0x1853 DUP3 PUSH3 0x1839 JUMP JUMPDEST SWAP1 POP SWAP2 SWAP1 POP JUMP JUMPDEST PUSH1 0x0 PUSH3 0x1867 DUP3 PUSH3 0x1846 JUMP JUMPDEST SWAP1 POP SWAP2 SWAP1 POP JUMP JUMPDEST PUSH3 0x1883 PUSH3 0x187D DUP3 PUSH3 0x1551 JUMP JUMPDEST PUSH3 0x185A JUMP JUMPDEST DUP3 MSTORE POP POP JUMP JUMPDEST PUSH1 0x0 PUSH3 0x1897 DUP3 DUP7 PUSH3 0x181E JUMP JUMPDEST PUSH1 0x20 DUP3 ADD SWAP2 POP PUSH3 0x18A9 DUP3 DUP6 PUSH3 0x186E JUMP JUMPDEST PUSH1 0x14 DUP3 ADD SWAP2 POP PUSH3 0x18BB DUP3 DUP5 PUSH3 0x181E JUMP JUMPDEST PUSH1 0x20 DUP3 ADD SWAP2 POP DUP2 SWAP1 POP SWAP5 SWAP4 POP POP POP POP JUMP JUMPDEST PUSH32 0x4E487B7100000000000000000000000000000000000000000000000000000000 PUSH1 0x0 MSTORE PUSH1 0x12 PUSH1 0x4 MSTORE PUSH1 0x24 PUSH1 0x0 REVERT JUMPDEST PUSH1 0x0 PUSH3 0x1908 DUP3 PUSH3 0x178F JUMP JUMPDEST SWAP2 POP PUSH3 0x1915 DUP4 PUSH3 0x178F JUMP JUMPDEST SWAP3 POP DUP3 PUSH3 0x1928 JUMPI PUSH3 0x1927 PUSH3 0x18CC JUMP JUMPDEST JUMPDEST DUP3 DUP3 MOD SWAP1 POP SWAP3 SWAP2 POP POP JUMP JUMPDEST PUSH2 0x421D DUP1 PUSH3 0x1943 PUSH1 0x0 CODECOPY PUSH1 0x0 RETURN INVALID PUSH1 0x80 PUSH1 0x40 MSTORE PUSH1 0x4 CALLDATASIZE LT PUSH2 0x19C JUMPI PUSH1 0x0 CALLDATALOAD PUSH1 0xE0 SHR DUP1 PUSH4 0x931E5B36 GT PUSH2 0xEC JUMPI DUP1 PUSH4 0xC634D032 GT PUSH2 0x8A JUMPI DUP1 PUSH4 0xD49D5181 GT PUSH2 0x64 JUMPI DUP1 PUSH4 0xD49D5181 EQ PUSH2 0x589 JUMPI DUP1 PUSH4 0xDE13CBAD EQ PUSH2 0x5B4 JUMPI DUP1 PUSH4 0xF23A6E61 EQ PUSH2 0x5FC JUMPI DUP1 PUSH4 0xFE6601A5 EQ PUSH2 0x639 JUMPI PUSH2 0x19C JUMP JUMPDEST DUP1 PUSH4 0xC634D032 EQ PUSH2 0x50E JUMPI DUP1 PUSH4 0xC9BE4295 EQ PUSH2 0x537 JUMPI DUP1 PUSH4 0xCA39E5EF EQ PUSH2 0x560 JUMPI PUSH2 0x19C JUMP JUMPDEST DUP1 PUSH4 0xAECD8054 GT PUSH2 0xC6 JUMPI DUP1 PUSH4 0xAECD8054 EQ PUSH2 0x454 JUMPI DUP1 PUSH4 0xB12A991D EQ PUSH2 0x47D JUMPI DUP1 PUSH4 0xB6B55F25 EQ PUSH2 0x4A8 JUMPI DUP1 PUSH4 0xBC197C81 EQ PUSH2 0x4D1 JUMPI PUSH2 0x19C JUMP JUMPDEST DUP1 PUSH4 0x931E5B36 EQ PUSH2 0x3D7 JUMPI DUP1 PUSH4 0x9968270B EQ PUSH2 0x402 JUMPI DUP1 PUSH4 0x9979C009 EQ PUSH2 0x42B JUMPI PUSH2 0x19C JUMP JUMPDEST DUP1 PUSH4 0x434B14E7 GT PUSH2 0x159 JUMPI DUP1 PUSH4 0x540BB3B5 GT PUSH2 0x133 JUMPI DUP1 PUSH4 0x540BB3B5 EQ PUSH2 0x32F JUMPI DUP1 PUSH4 0x7A09DEFE EQ PUSH2 0x358 JUMPI DUP1 PUSH4 0x7D025A62 EQ PUSH2 0x383 JUMPI DUP1 PUSH4 0x88E81F7F EQ PUSH2 0x3AC JUMPI PUSH2 0x19C JUMP JUMPDEST DUP1 PUSH4 0x434B14E7 EQ PUSH2 0x29E JUMPI DUP1 PUSH4 0x44E797E9 EQ PUSH2 0x2DB JUMPI DUP1 PUSH4 0x481C6A75 EQ PUSH2 0x304 JUMPI PUSH2 0x19C JUMP JUMPDEST DUP1 PUSH4 0x1FFC9A7 EQ PUSH2 0x1A1 JUMPI DUP1 PUSH4 0x8AFA05D EQ PUSH2 0x1DE JUMPI DUP1 PUSH4 0x154BD552 EQ PUSH2 0x207 JUMPI DUP1 PUSH4 0x199A37FE EQ PUSH2 0x223 JUMPI DUP1 PUSH4 0x2E1A7D4D EQ PUSH2 0x24C JUMPI DUP1 PUSH4 0x357C5CC2 EQ PUSH2 0x275 JUMPI JUMPDEST PUSH1 0x0 DUP1 REVERT JUMPDEST CALLVALUE DUP1 ISZERO PUSH2 0x1AD JUMPI PUSH1 0x0 DUP1 REVERT JUMPDEST POP PUSH2 0x1C8 PUSH1 0x4 DUP1 CALLDATASIZE SUB DUP2 ADD SWAP1 PUSH2 0x1C3 SWAP2 SWAP1 PUSH2 0x2FD1 JUMP JUMPDEST PUSH2 0x664 JUMP JUMPDEST PUSH1 0x40 MLOAD PUSH2 0x1D5 SWAP2 SWAP1 PUSH2 0x3019 JUMP JUMPDEST PUSH1 0x40 MLOAD DUP1 SWAP2 SUB SWAP1 RETURN JUMPDEST CALLVALUE DUP1 ISZERO PUSH2 0x1EA JUMPI PUSH1 0x0 DUP1 REVERT JUMPDEST POP PUSH2 0x205 PUSH1 0x4 DUP1 CALLDATASIZE SUB DUP2 ADD SWAP1 PUSH2 0x200 SWAP2 SWAP1 PUSH2 0x30C8 JUMP JUMPDEST PUSH2 0x6DE JUMP JUMPDEST STOP JUMPDEST PUSH2 0x221 PUSH1 0x4 DUP1 CALLDATASIZE SUB DUP2 ADD SWAP1 PUSH2 0x21C SWAP2 SWAP1 PUSH2 0x3108 JUMP JUMPDEST PUSH2 0x7E1 JUMP JUMPDEST STOP JUMPDEST CALLVALUE DUP1 ISZERO PUSH2 0x22F JUMPI PUSH1 0x0 DUP1 REVERT JUMPDEST POP PUSH2 0x24A PUSH1 0x4 DUP1 CALLDATASIZE SUB DUP2 ADD SWAP1 PUSH2 0x245 SWAP2 SWAP1 PUSH2 0x3135 JUMP JUMPDEST PUSH2 0x9AE JUMP JUMPDEST STOP JUMPDEST CALLVALUE DUP1 ISZERO PUSH2 0x258 JUMPI PUSH1 0x0 DUP1 REVERT JUMPDEST POP PUSH2 0x273 PUSH1 0x4 DUP1 CALLDATASIZE SUB DUP2 ADD SWAP1 PUSH2 0x26E SWAP2 SWAP1 PUSH2 0x3108 JUMP JUMPDEST PUSH2 0xA50 JUMP JUMPDEST STOP JUMPDEST CALLVALUE DUP1 ISZERO PUSH2 0x281 JUMPI PUSH1 0x0 DUP1 REVERT JUMPDEST POP PUSH2 0x29C PUSH1 0x4 DUP1 CALLDATASIZE SUB DUP2 ADD SWAP1 PUSH2 0x297 SWAP2 SWAP1 PUSH2 0x3135 JUMP JUMPDEST PUSH2 0xC65 JUMP JUMPDEST STOP JUMPDEST CALLVALUE DUP1 ISZERO PUSH2 0x2AA JUMPI PUSH1 0x0 DUP1 REVERT JUMPDEST POP PUSH2 0x2C5 PUSH1 0x4 DUP1 CALLDATASIZE SUB DUP2 ADD SWAP1 PUSH2 0x2C0 SWAP2 SWAP1 PUSH2 0x3108 JUMP JUMPDEST PUSH2 0xE24 JUMP JUMPDEST PUSH1 0x40 MLOAD PUSH2 0x2D2 SWAP2 SWAP1 PUSH2 0x3191 JUMP JUMPDEST PUSH1 0x40 MLOAD DUP1 SWAP2 SUB SWAP1 RETURN JUMPDEST CALLVALUE DUP1 ISZERO PUSH2 0x2E7 JUMPI PUSH1 0x0 DUP1 REVERT JUMPDEST POP PUSH2 0x302 PUSH1 0x4 DUP1 CALLDATASIZE SUB DUP2 ADD SWAP1 PUSH2 0x2FD SWAP2 SWAP1 PUSH2 0x3108 JUMP JUMPDEST PUSH2 0xE85 JUMP JUMPDEST STOP JUMPDEST CALLVALUE DUP1 ISZERO PUSH2 0x310 JUMPI PUSH1 0x0 DUP1 REVERT JUMPDEST POP PUSH2 0x319 PUSH2 0xFA7 JUMP JUMPDEST PUSH1 0x40 MLOAD PUSH2 0x326 SWAP2 SWAP1 PUSH2 0x31BB JUMP JUMPDEST PUSH1 0x40 MLOAD DUP1 SWAP2 SUB SWAP1 RETURN JUMPDEST CALLVALUE DUP1 ISZERO PUSH2 0x33B JUMPI PUSH1 0x0 DUP1 REVERT JUMPDEST POP PUSH2 0x356 PUSH1 0x4 DUP1 CALLDATASIZE SUB DUP2 ADD SWAP1 PUSH2 0x351 SWAP2 SWAP1 PUSH2 0x3108 JUMP JUMPDEST PUSH2 0xFCD JUMP JUMPDEST STOP JUMPDEST CALLVALUE DUP1 ISZERO PUSH2 0x364 JUMPI PUSH1 0x0 DUP1 REVERT JUMPDEST POP PUSH2 0x36D PUSH2 0x10FE JUMP JUMPDEST PUSH1 0x40 MLOAD PUSH2 0x37A SWAP2 SWAP1 PUSH2 0x31E5 JUMP JUMPDEST PUSH1 0x40 MLOAD DUP1 SWAP2 SUB SWAP1 RETURN JUMPDEST CALLVALUE DUP1 ISZERO PUSH2 0x38F JUMPI PUSH1 0x0 DUP1 REVERT JUMPDEST POP PUSH2 0x3AA PUSH1 0x4 DUP1 CALLDATASIZE SUB DUP2 ADD SWAP1 PUSH2 0x3A5 SWAP2 SWAP1 PUSH2 0x3135 JUMP JUMPDEST PUSH2 0x1104 JUMP JUMPDEST STOP JUMPDEST CALLVALUE DUP1 ISZERO PUSH2 0x3B8 JUMPI PUSH1 0x0 DUP1 REVERT JUMPDEST POP PUSH2 0x3C1 PUSH2 0x1273 JUMP JUMPDEST PUSH1 0x40 MLOAD PUSH2 0x3CE SWAP2 SWAP1 PUSH2 0x31E5 JUMP JUMPDEST PUSH1 0x40 MLOAD DUP1 SWAP2 SUB SWAP1 RETURN JUMPDEST CALLVALUE DUP1 ISZERO PUSH2 0x3E3 JUMPI PUSH1 0x0 DUP1 REVERT JUMPDEST POP PUSH2 0x3EC PUSH2 0x1279 JUMP JUMPDEST PUSH1 0x40 MLOAD PUSH2 0x3F9 SWAP2 SWAP1 PUSH2 0x31E5 JUMP JUMPDEST PUSH1 0x40 MLOAD DUP1 SWAP2 SUB SWAP1 RETURN JUMPDEST CALLVALUE DUP1 ISZERO PUSH2 0x40E JUMPI PUSH1 0x0 DUP1 REVERT JUMPDEST POP PUSH2 0x429 PUSH1 0x4 DUP1 CALLDATASIZE SUB DUP2 ADD SWAP1 PUSH2 0x424 SWAP2 SWAP1 PUSH2 0x3108 JUMP JUMPDEST PUSH2 0x127F JUMP JUMPDEST STOP JUMPDEST CALLVALUE DUP1 ISZERO PUSH2 0x437 JUMPI PUSH1 0x0 DUP1 REVERT JUMPDEST POP PUSH2 0x452 PUSH1 0x4 DUP1 CALLDATASIZE SUB DUP2 ADD SWAP1 PUSH2 0x44D SWAP2 SWAP1 PUSH2 0x3135 JUMP JUMPDEST PUSH2 0x1381 JUMP JUMPDEST STOP JUMPDEST CALLVALUE DUP1 ISZERO PUSH2 0x460 JUMPI PUSH1 0x0 DUP1 REVERT JUMPDEST POP PUSH2 0x47B PUSH1 0x4 DUP1 CALLDATASIZE SUB DUP2 ADD SWAP1 PUSH2 0x476 SWAP2 SWAP1 PUSH2 0x3258 JUMP JUMPDEST PUSH2 0x15A7 JUMP JUMPDEST STOP JUMPDEST CALLVALUE DUP1 ISZERO PUSH2 0x489 JUMPI PUSH1 0x0 DUP1 REVERT JUMPDEST POP PUSH2 0x492 PUSH2 0x1974 JUMP JUMPDEST PUSH1 0x40 MLOAD PUSH2 0x49F SWAP2 SWAP1 PUSH2 0x31E5 JUMP JUMPDEST PUSH1 0x40 MLOAD DUP1 SWAP2 SUB SWAP1 RETURN JUMPDEST CALLVALUE DUP1 ISZERO PUSH2 0x4B4 JUMPI PUSH1 0x0 DUP1 REVERT JUMPDEST POP PUSH2 0x4CF PUSH1 0x4 DUP1 CALLDATASIZE SUB DUP2 ADD SWAP1 PUSH2 0x4CA SWAP2 SWAP1 PUSH2 0x3108 JUMP JUMPDEST PUSH2 0x197A JUMP JUMPDEST STOP JUMPDEST CALLVALUE DUP1 ISZERO PUSH2 0x4DD JUMPI PUSH1 0x0 DUP1 REVERT JUMPDEST POP PUSH2 0x4F8 PUSH1 0x4 DUP1 CALLDATASIZE SUB DUP2 ADD SWAP1 PUSH2 0x4F3 SWAP2 SWAP1 PUSH2 0x34B9 JUMP JUMPDEST PUSH2 0x1B93 JUMP JUMPDEST PUSH1 0x40 MLOAD PUSH2 0x505 SWAP2 SWAP1 PUSH2 0x3597 JUMP JUMPDEST PUSH1 0x40 MLOAD DUP1 SWAP2 SUB SWAP1 RETURN JUMPDEST CALLVALUE DUP1 ISZERO PUSH2 0x51A JUMPI PUSH1 0x0 DUP1 REVERT JUMPDEST POP PUSH2 0x535 PUSH1 0x4 DUP1 CALLDATASIZE SUB DUP2 ADD SWAP1 PUSH2 0x530 SWAP2 SWAP1 PUSH2 0x3108 JUMP JUMPDEST PUSH2 0x1BA8 JUMP JUMPDEST STOP JUMPDEST CALLVALUE DUP1 ISZERO PUSH2 0x543 JUMPI PUSH1 0x0 DUP1 REVERT JUMPDEST POP PUSH2 0x55E PUSH1 0x4 DUP1 CALLDATASIZE SUB DUP2 ADD SWAP1 PUSH2 0x559 SWAP2 SWAP1 PUSH2 0x3135 JUMP JUMPDEST PUSH2 0x1C38 JUMP JUMPDEST STOP JUMPDEST CALLVALUE DUP1 ISZERO PUSH2 0x56C JUMPI PUSH1 0x0 DUP1 REVERT JUMPDEST POP PUSH2 0x587 PUSH1 0x4 DUP1 CALLDATASIZE SUB DUP2 ADD SWAP1 PUSH2 0x582 SWAP2 SWAP1 PUSH2 0x3135 JUMP JUMPDEST PUSH2 0x1DBC JUMP JUMPDEST STOP JUMPDEST CALLVALUE DUP1 ISZERO PUSH2 0x595 JUMPI PUSH1 0x0 DUP1 REVERT JUMPDEST POP PUSH2 0x59E PUSH2 0x1F97 JUMP JUMPDEST PUSH1 0x40 MLOAD PUSH2 0x5AB SWAP2 SWAP1 PUSH2 0x31E5 JUMP JUMPDEST PUSH1 0x40 MLOAD DUP1 SWAP2 SUB SWAP1 RETURN JUMPDEST CALLVALUE DUP1 ISZERO PUSH2 0x5C0 JUMPI PUSH1 0x0 DUP1 REVERT JUMPDEST POP PUSH2 0x5DB PUSH1 0x4 DUP1 CALLDATASIZE SUB DUP2 ADD SWAP1 PUSH2 0x5D6 SWAP2 SWAP1 PUSH2 0x3108 JUMP JUMPDEST PUSH2 0x1F9D JUMP JUMPDEST PUSH1 0x40 MLOAD PUSH2 0x5F3 SWAP13 SWAP12 SWAP11 SWAP10 SWAP9 SWAP8 SWAP7 SWAP6 SWAP5 SWAP4 SWAP3 SWAP2 SWAP1 PUSH2 0x364A JUMP JUMPDEST PUSH1 0x40 MLOAD DUP1 SWAP2 SUB SWAP1 RETURN JUMPDEST CALLVALUE DUP1 ISZERO PUSH2 0x608 JUMPI PUSH1 0x0 DUP1 REVERT JUMPDEST POP PUSH2 0x623 PUSH1 0x4 DUP1 CALLDATASIZE SUB DUP2 ADD SWAP1 PUSH2 0x61E SWAP2 SWAP1 PUSH2 0x3704 JUMP JUMPDEST PUSH2 0x2071 JUMP JUMPDEST PUSH1 0x40 MLOAD PUSH2 0x630 SWAP2 SWAP1 PUSH2 0x3597 JUMP JUMPDEST PUSH1 0x40 MLOAD DUP1 SWAP2 SUB SWAP1 RETURN JUMPDEST CALLVALUE DUP1 ISZERO PUSH2 0x645 JUMPI PUSH1 0x0 DUP1 REVERT JUMPDEST POP PUSH2 0x64E PUSH2 0x2086 JUMP JUMPDEST PUSH1 0x40 MLOAD PUSH2 0x65B SWAP2 SWAP1 PUSH2 0x31E5 JUMP JUMPDEST PUSH1 0x40 MLOAD DUP1 SWAP2 SUB SWAP1 RETURN JUMPDEST PUSH1 0x0 PUSH32 0x4E2312E000000000000000000000000000000000000000000000000000000000 PUSH28 0xFFFFFFFFFFFFFFFFFFFFFFFFFFFFFFFFFFFFFFFFFFFFFFFFFFFFFFFF NOT AND DUP3 PUSH28 0xFFFFFFFFFFFFFFFFFFFFFFFFFFFFFFFFFFFFFFFFFFFFFFFFFFFFFFFF NOT AND EQ DUP1 PUSH2 0x6D7 JUMPI POP PUSH2 0x6D6 DUP3 PUSH2 0x208C JUMP JUMPDEST JUMPDEST SWAP1 POP SWAP2 SWAP1 POP JUMP JUMPDEST CALLER PUSH20 0xFFFFFFFFFFFFFFFFFFFFFFFFFFFFFFFFFFFFFFFF AND PUSH1 0xD PUSH1 0x0 DUP5 DUP2 MSTORE PUSH1 0x20 ADD SWAP1 DUP2 MSTORE PUSH1 0x20 ADD PUSH1 0x0 KECCAK256 PUSH1 0x1 ADD PUSH1 0x0 SWAP1 SLOAD SWAP1 PUSH2 0x100 EXP SWAP1 DIV PUSH20 0xFFFFFFFFFFFFFFFFFFFFFFFFFFFFFFFFFFFFFFFF AND PUSH20 0xFFFFFFFFFFFFFFFFFFFFFFFFFFFFFFFFFFFFFFFF AND EQ PUSH2 0x782 JUMPI PUSH1 0x40 MLOAD PUSH32 0x8C379A000000000000000000000000000000000000000000000000000000000 DUP2 MSTORE PUSH1 0x4 ADD PUSH2 0x779 SWAP1 PUSH2 0x37F8 JUMP JUMPDEST PUSH1 0x40 MLOAD DUP1 SWAP2 SUB SWAP1 REVERT JUMPDEST PUSH1 0x0 PUSH1 0xD PUSH1 0x0 DUP5 DUP2 MSTORE PUSH1 0x20 ADD SWAP1 DUP2 MSTORE PUSH1 0x20 ADD PUSH1 0x0 KECCAK256 SWAP1 POP DUP2 DUP2 PUSH1 0x8 ADD PUSH1 0x0 PUSH2 0x100 EXP DUP2 SLOAD DUP2 PUSH20 0xFFFFFFFFFFFFFFFFFFFFFFFFFFFFFFFFFFFFFFFF MUL NOT AND SWAP1 DUP4 PUSH20 0xFFFFFFFFFFFFFFFFFFFFFFFFFFFFFFFFFFFFFFFF AND MUL OR SWAP1 SSTORE POP POP POP POP JUMP JUMPDEST PUSH1 0x0 PUSH1 0xD PUSH1 0x0 DUP4 DUP2 MSTORE PUSH1 0x20 ADD SWAP1 DUP2 MSTORE PUSH1 0x20 ADD PUSH1 0x0 KECCAK256 SWAP1 POP DUP1 PUSH1 0x2 ADD SLOAD CALLVALUE GT PUSH2 0x83E JUMPI PUSH1 0x40 MLOAD PUSH32 0x8C379A000000000000000000000000000000000000000000000000000000000 DUP2 MSTORE PUSH1 0x4 ADD PUSH2 0x835 SWAP1 PUSH2 0x3864 JUMP JUMPDEST PUSH1 0x40 MLOAD DUP1 SWAP2 SUB SWAP1 REVERT JUMPDEST PUSH1 0x1 ISZERO ISZERO DUP2 PUSH1 0x3 ADD PUSH1 0x0 SWAP1 SLOAD SWAP1 PUSH2 0x100 EXP SWAP1 DIV PUSH1 0xFF AND ISZERO ISZERO EQ PUSH2 0x896 JUMPI PUSH1 0x40 MLOAD PUSH32 0x8C379A000000000000000000000000000000000000000000000000000000000 DUP2 MSTORE PUSH1 0x4 ADD PUSH2 0x88D SWAP1 PUSH2 0x38D0 JUMP JUMPDEST PUSH1 0x40 MLOAD DUP1 SWAP2 SUB SWAP1 REVERT JUMPDEST PUSH1 0x0 DUP2 PUSH1 0x1 ADD PUSH1 0x0 SWAP1 SLOAD SWAP1 PUSH2 0x100 EXP SWAP1 DIV PUSH20 0xFFFFFFFFFFFFFFFFFFFFFFFFFFFFFFFFFFFFFFFF AND SWAP1 POP CALLER DUP3 PUSH1 0x1 ADD PUSH1 0x0 PUSH2 0x100 EXP DUP2 SLOAD DUP2 PUSH20 0xFFFFFFFFFFFFFFFFFFFFFFFFFFFFFFFFFFFFFFFF MUL NOT AND SWAP1 DUP4 PUSH20 0xFFFFFFFFFFFFFFFFFFFFFFFFFFFFFFFFFFFFFFFF AND MUL OR SWAP1 SSTORE POP CALLER DUP3 PUSH1 0x8 ADD PUSH1 0x0 PUSH2 0x100 EXP DUP2 SLOAD DUP2 PUSH20 0xFFFFFFFFFFFFFFFFFFFFFFFFFFFFFFFFFFFFFFFF MUL NOT AND SWAP1 DUP4 PUSH20 0xFFFFFFFFFFFFFFFFFFFFFFFFFFFFFFFFFFFFFFFF AND MUL OR SWAP1 SSTORE POP PUSH1 0x0 DUP3 PUSH1 0x3 ADD PUSH1 0x0 PUSH2 0x100 EXP DUP2 SLOAD DUP2 PUSH1 0xFF MUL NOT AND SWAP1 DUP4 ISZERO ISZERO MUL OR SWAP1 SSTORE POP DUP1 PUSH20 0xFFFFFFFFFFFFFFFFFFFFFFFFFFFFFFFFFFFFFFFF AND PUSH2 0x8FC CALLVALUE SWAP1 DUP2 ISZERO MUL SWAP1 PUSH1 0x40 MLOAD PUSH1 0x0 PUSH1 0x40 MLOAD DUP1 DUP4 SUB DUP2 DUP6 DUP9 DUP9 CALL SWAP4 POP POP POP POP ISZERO DUP1 ISZERO PUSH2 0x9A8 JUMPI RETURNDATASIZE PUSH1 0x0 DUP1 RETURNDATACOPY RETURNDATASIZE PUSH1 0x0 REVERT JUMPDEST POP POP POP POP JUMP JUMPDEST PUSH1 0xC PUSH1 0x0 SWAP1 SLOAD SWAP1 PUSH2 0x100 EXP SWAP1 DIV PUSH20 0xFFFFFFFFFFFFFFFFFFFFFFFFFFFFFFFFFFFFFFFF AND PUSH20 0xFFFFFFFFFFFFFFFFFFFFFFFFFFFFFFFFFFFFFFFF AND CALLER PUSH20 0xFFFFFFFFFFFFFFFFFFFFFFFFFFFFFFFFFFFFFFFF AND EQ PUSH2 0xA3E JUMPI PUSH1 0x40 MLOAD PUSH32 0x8C379A000000000000000000000000000000000000000000000000000000000 DUP2 MSTORE PUSH1 0x4 ADD PUSH2 0xA35 SWAP1 PUSH2 0x393C JUMP JUMPDEST PUSH1 0x40 MLOAD DUP1 SWAP2 SUB SWAP1 REVERT JUMPDEST DUP2 PUSH1 0x12 DUP2 SWAP1 SSTORE POP DUP1 PUSH1 0x11 DUP2 SWAP1 SSTORE POP POP POP JUMP JUMPDEST PUSH1 0xC PUSH1 0x0 SWAP1 SLOAD SWAP1 PUSH2 0x100 EXP SWAP1 DIV PUSH20 0xFFFFFFFFFFFFFFFFFFFFFFFFFFFFFFFFFFFFFFFF AND PUSH20 0xFFFFFFFFFFFFFFFFFFFFFFFFFFFFFFFFFFFFFFFF AND CALLER PUSH20 0xFFFFFFFFFFFFFFFFFFFFFFFFFFFFFFFFFFFFFFFF AND EQ PUSH2 0xAE0 JUMPI PUSH1 0x40 MLOAD PUSH32 0x8C379A000000000000000000000000000000000000000000000000000000000 DUP2 MSTORE PUSH1 0x4 ADD PUSH2 0xAD7 SWAP1 PUSH2 0x393C JUMP JUMPDEST PUSH1 0x40 MLOAD DUP1 SWAP2 SUB SWAP1 REVERT JUMPDEST PUSH1 0x0 DUP1 PUSH1 0x0 SWAP1 SLOAD SWAP1 PUSH2 0x100 EXP SWAP1 DIV PUSH20 0xFFFFFFFFFFFFFFFFFFFFFFFFFFFFFFFFFFFFFFFF AND PUSH20 0xFFFFFFFFFFFFFFFFFFFFFFFFFFFFFFFFFFFFFFFF AND PUSH4 0x70A08231 ADDRESS PUSH1 0x40 MLOAD DUP3 PUSH4 0xFFFFFFFF AND PUSH1 0xE0 SHL DUP2 MSTORE PUSH1 0x4 ADD PUSH2 0xB3C SWAP2 SWAP1 PUSH2 0x31BB JUMP JUMPDEST PUSH1 0x20 PUSH1 0x40 MLOAD DUP1 DUP4 SUB DUP2 DUP7 GAS STATICCALL ISZERO DUP1 ISZERO PUSH2 0xB59 JUMPI RETURNDATASIZE PUSH1 0x0 DUP1 RETURNDATACOPY RETURNDATASIZE PUSH1 0x0 REVERT JUMPDEST POP POP POP POP PUSH1 0x40 MLOAD RETURNDATASIZE PUSH1 0x1F NOT PUSH1 0x1F DUP3 ADD AND DUP3 ADD DUP1 PUSH1 0x40 MSTORE POP DUP2 ADD SWAP1 PUSH2 0xB7D SWAP2 SWAP1 PUSH2 0x3971 JUMP JUMPDEST SWAP1 POP DUP1 DUP3 GT ISZERO PUSH2 0xBC2 JUMPI PUSH1 0x40 MLOAD PUSH32 0x8C379A000000000000000000000000000000000000000000000000000000000 DUP2 MSTORE PUSH1 0x4 ADD PUSH2 0xBB9 SWAP1 PUSH2 0x39EA JUMP JUMPDEST PUSH1 0x40 MLOAD DUP1 SWAP2 SUB SWAP1 REVERT JUMPDEST PUSH1 0x0 DUP1 SLOAD SWAP1 PUSH2 0x100 EXP SWAP1 DIV PUSH20 0xFFFFFFFFFFFFFFFFFFFFFFFFFFFFFFFFFFFFFFFF AND PUSH20 0xFFFFFFFFFFFFFFFFFFFFFFFFFFFFFFFFFFFFFFFF AND PUSH4 0xA9059CBB CALLER DUP5 PUSH1 0x40 MLOAD DUP4 PUSH4 0xFFFFFFFF AND PUSH1 0xE0 SHL DUP2 MSTORE PUSH1 0x4 ADD PUSH2 0xC1D SWAP3 SWAP2 SWAP1 PUSH2 0x3A0A JUMP JUMPDEST PUSH1 0x20 PUSH1 0x40 MLOAD DUP1 DUP4 SUB DUP2 PUSH1 0x0 DUP8 GAS CALL ISZERO DUP1 ISZERO PUSH2 0xC3C JUMPI RETURNDATASIZE PUSH1 0x0 DUP1 RETURNDATACOPY RETURNDATASIZE PUSH1 0x0 REVERT JUMPDEST POP POP POP POP PUSH1 0x40 MLOAD RETURNDATASIZE PUSH1 0x1F NOT PUSH1 0x1F DUP3 ADD AND DUP3 ADD DUP1 PUSH1 0x40 MSTORE POP DUP2 ADD SWAP1 PUSH2 0xC60 SWAP2 SWAP1 PUSH2 0x3A48 JUMP JUMPDEST POP POP POP JUMP JUMPDEST PUSH1 0xF SLOAD PUSH1 0xE SLOAD LT PUSH2 0xCAB JUMPI PUSH1 0x40 MLOAD PUSH32 0x8C379A000000000000000000000000000000000000000000000000000000000 DUP2 MSTORE PUSH1 0x4 ADD PUSH2 0xCA2 SWAP1 PUSH2 0x3AC1 JUMP JUMPDEST PUSH1 0x40 MLOAD DUP1 SWAP2 SUB SWAP1 REVERT JUMPDEST CALLER PUSH20 0xFFFFFFFFFFFFFFFFFFFFFFFFFFFFFFFFFFFFFFFF AND PUSH1 0xD PUSH1 0x0 DUP5 DUP2 MSTORE PUSH1 0x20 ADD SWAP1 DUP2 MSTORE PUSH1 0x20 ADD PUSH1 0x0 KECCAK256 PUSH1 0x1 ADD PUSH1 0x0 SWAP1 SLOAD SWAP1 PUSH2 0x100 EXP SWAP1 DIV PUSH20 0xFFFFFFFFFFFFFFFFFFFFFFFFFFFFFFFFFFFFFFFF AND PUSH20 0xFFFFFFFFFFFFFFFFFFFFFFFFFFFFFFFFFFFFFFFF AND EQ PUSH2 0xD4F JUMPI PUSH1 0x40 MLOAD PUSH32 0x8C379A000000000000000000000000000000000000000000000000000000000 DUP2 MSTORE PUSH1 0x4 ADD PUSH2 0xD46 SWAP1 PUSH2 0x3B2D JUMP JUMPDEST PUSH1 0x40 MLOAD DUP1 SWAP2 SUB SWAP1 REVERT JUMPDEST CALLER PUSH20 0xFFFFFFFFFFFFFFFFFFFFFFFFFFFFFFFFFFFFFFFF AND PUSH1 0xD PUSH1 0x0 DUP4 DUP2 MSTORE PUSH1 0x20 ADD SWAP1 DUP2 MSTORE PUSH1 0x20 ADD PUSH1 0x0 KECCAK256 PUSH1 0x1 ADD PUSH1 0x0 SWAP1 SLOAD SWAP1 PUSH2 0x100 EXP SWAP1 DIV PUSH20 0xFFFFFFFFFFFFFFFFFFFFFFFFFFFFFFFFFFFFFFFF AND PUSH20 0xFFFFFFFFFFFFFFFFFFFFFFFFFFFFFFFFFFFFFFFF AND EQ PUSH2 0xDF3 JUMPI PUSH1 0x40 MLOAD PUSH32 0x8C379A000000000000000000000000000000000000000000000000000000000 DUP2 MSTORE PUSH1 0x4 ADD PUSH2 0xDEA SWAP1 PUSH2 0x3B2D JUMP JUMPDEST PUSH1 0x40 MLOAD DUP1 SWAP2 SUB SWAP1 REVERT JUMPDEST PUSH1 0x0 PUSH2 0xDFF DUP4 DUP4 PUSH2 0x20F6 JUMP JUMPDEST SWAP1 POP PUSH2 0xE1F DUP2 PUSH1 0x96 DUP2 GT ISZERO PUSH2 0xE17 JUMPI PUSH2 0xE16 PUSH2 0x35D3 JUMP JUMPDEST JUMPDEST PUSH1 0x0 DUP1 PUSH2 0x15A7 JUMP JUMPDEST POP POP POP JUMP JUMPDEST PUSH1 0x0 DUP1 DUP3 TIMESTAMP CALLER PUSH1 0x10 SLOAD PUSH1 0x40 MLOAD PUSH1 0x20 ADD PUSH2 0xE3F SWAP4 SWAP3 SWAP2 SWAP1 PUSH2 0x3BB6 JUMP JUMPDEST PUSH1 0x40 MLOAD PUSH1 0x20 DUP2 DUP4 SUB SUB DUP2 MSTORE SWAP1 PUSH1 0x40 MSTORE DUP1 MLOAD SWAP1 PUSH1 0x20 ADD KECCAK256 PUSH1 0x0 SHR PUSH2 0xE62 SWAP2 SWAP1 PUSH2 0x3C22 JUMP JUMPDEST SWAP1 POP PUSH1 0x10 PUSH1 0x0 DUP2 SLOAD DUP1 SWAP3 SWAP2 SWAP1 PUSH2 0xE77 SWAP1 PUSH2 0x3C82 JUMP JUMPDEST SWAP2 SWAP1 POP SSTORE POP DUP1 SWAP2 POP POP SWAP2 SWAP1 POP JUMP JUMPDEST PUSH1 0x0 PUSH1 0xD PUSH1 0x0 DUP4 DUP2 MSTORE PUSH1 0x20 ADD SWAP1 DUP2 MSTORE PUSH1 0x20 ADD PUSH1 0x0 KECCAK256 SWAP1 POP PUSH1 0x1 ISZERO ISZERO DUP2 PUSH1 0x3 ADD PUSH1 0x0 SWAP1 SLOAD SWAP1 PUSH2 0x100 EXP SWAP1 DIV PUSH1 0xFF AND ISZERO ISZERO EQ PUSH2 0xEF4 JUMPI PUSH1 0x40 MLOAD PUSH32 0x8C379A000000000000000000000000000000000000000000000000000000000 DUP2 MSTORE PUSH1 0x4 ADD PUSH2 0xEEB SWAP1 PUSH2 0x3D16 JUMP JUMPDEST PUSH1 0x40 MLOAD DUP1 SWAP2 SUB SWAP1 REVERT JUMPDEST CALLER PUSH20 0xFFFFFFFFFFFFFFFFFFFFFFFFFFFFFFFFFFFFFFFF AND DUP2 PUSH1 0x1 ADD PUSH1 0x0 SWAP1 SLOAD SWAP1 PUSH2 0x100 EXP SWAP1 DIV PUSH20 0xFFFFFFFFFFFFFFFFFFFFFFFFFFFFFFFFFFFFFFFF AND PUSH20 0xFFFFFFFFFFFFFFFFFFFFFFFFFFFFFFFFFFFFFFFF AND EQ PUSH2 0xF86 JUMPI PUSH1 0x40 MLOAD PUSH32 0x8C379A000000000000000000000000000000000000000000000000000000000 DUP2 MSTORE PUSH1 0x4 ADD PUSH2 0xF7D SWAP1 PUSH2 0x3D82 JUMP JUMPDEST PUSH1 0x40 MLOAD DUP1 SWAP2 SUB SWAP1 REVERT JUMPDEST PUSH1 0x0 DUP2 PUSH1 0x3 ADD PUSH1 0x0 PUSH2 0x100 EXP DUP2 SLOAD DUP2 PUSH1 0xFF MUL NOT AND SWAP1 DUP4 ISZERO ISZERO MUL OR SWAP1 SSTORE POP POP POP JUMP JUMPDEST PUSH1 0xC PUSH1 0x0 SWAP1 SLOAD SWAP1 PUSH2 0x100 EXP SWAP1 DIV PUSH20 0xFFFFFFFFFFFFFFFFFFFFFFFFFFFFFFFFFFFFFFFF AND DUP2 JUMP JUMPDEST PUSH1 0x0 PUSH1 0xD PUSH1 0x0 DUP4 DUP2 MSTORE PUSH1 0x20 ADD SWAP1 DUP2 MSTORE PUSH1 0x20 ADD PUSH1 0x0 KECCAK256 SWAP1 POP PUSH1 0x0 PUSH1 0x1 DUP3 PUSH1 0x1 ADD PUSH1 0x14 SWAP1 SLOAD SWAP1 PUSH2 0x100 EXP SWAP1 DIV PUSH1 0xFF AND PUSH1 0x96 DUP2 GT ISZERO PUSH2 0x100C JUMPI PUSH2 0x100B PUSH2 0x35D3 JUMP JUMPDEST JUMPDEST PUSH2 0x1016 SWAP2 SWAP1 PUSH2 0x3DA2 JUMP JUMPDEST SWAP1 POP DUP1 PUSH1 0x96 DUP2 GT ISZERO PUSH2 0x102B JUMPI PUSH2 0x102A PUSH2 0x35D3 JUMP JUMPDEST JUMPDEST DUP3 PUSH1 0x1 ADD PUSH1 0x14 PUSH2 0x100 EXP DUP2 SLOAD DUP2 PUSH1 0xFF MUL NOT AND SWAP1 DUP4 PUSH1 0x96 DUP2 GT ISZERO PUSH2 0x1051 JUMPI PUSH2 0x1050 PUSH2 0x35D3 JUMP JUMPDEST JUMPDEST MUL OR SWAP1 SSTORE POP PUSH1 0x0 DUP1 SLOAD SWAP1 PUSH2 0x100 EXP SWAP1 DIV PUSH20 0xFFFFFFFFFFFFFFFFFFFFFFFFFFFFFFFFFFFFFFFF AND PUSH20 0xFFFFFFFFFFFFFFFFFFFFFFFFFFFFFFFFFFFFFFFF AND PUSH4 0x23B872DD CALLER ADDRESS PUSH1 0x14 SLOAD PUSH1 0x40 MLOAD DUP5 PUSH4 0xFFFFFFFF AND PUSH1 0xE0 SHL DUP2 MSTORE PUSH1 0x4 ADD PUSH2 0x10B5 SWAP4 SWAP3 SWAP2 SWAP1 PUSH2 0x3DD6 JUMP JUMPDEST PUSH1 0x20 PUSH1 0x40 MLOAD DUP1 DUP4 SUB DUP2 PUSH1 0x0 DUP8 GAS CALL ISZERO DUP1 ISZERO PUSH2 0x10D4 JUMPI RETURNDATASIZE PUSH1 0x0 DUP1 RETURNDATACOPY RETURNDATASIZE PUSH1 0x0 REVERT JUMPDEST POP POP POP POP PUSH1 0x40 MLOAD RETURNDATASIZE PUSH1 0x1F NOT PUSH1 0x1F DUP3 ADD AND DUP3 ADD DUP1 PUSH1 0x40 MSTORE POP DUP2 ADD SWAP1 PUSH2 0x10F8 SWAP2 SWAP1 PUSH2 0x3A48 JUMP JUMPDEST POP POP POP POP JUMP JUMPDEST PUSH1 0xE SLOAD DUP2 JUMP JUMPDEST PUSH1 0x0 PUSH1 0xD PUSH1 0x0 DUP5 DUP2 MSTORE PUSH1 0x20 ADD SWAP1 DUP2 MSTORE PUSH1 0x20 ADD PUSH1 0x0 KECCAK256 SWAP1 POP PUSH1 0x0 ISZERO ISZERO DUP2 PUSH1 0x3 ADD PUSH1 0x0 SWAP1 SLOAD SWAP1 PUSH2 0x100 EXP SWAP1 DIV PUSH1 0xFF AND ISZERO ISZERO EQ PUSH2 0x1173 JUMPI PUSH1 0x40 MLOAD PUSH32 0x8C379A000000000000000000000000000000000000000000000000000000000 DUP2 MSTORE PUSH1 0x4 ADD PUSH2 0x116A SWAP1 PUSH2 0x3E59 JUMP JUMPDEST PUSH1 0x40 MLOAD DUP1 SWAP2 SUB SWAP1 REVERT JUMPDEST CALLER PUSH20 0xFFFFFFFFFFFFFFFFFFFFFFFFFFFFFFFFFFFFFFFF AND DUP2 PUSH1 0x1 ADD PUSH1 0x0 SWAP1 SLOAD SWAP1 PUSH2 0x100 EXP SWAP1 DIV PUSH20 0xFFFFFFFFFFFFFFFFFFFFFFFFFFFFFFFFFFFFFFFF AND PUSH20 0xFFFFFFFFFFFFFFFFFFFFFFFFFFFFFFFFFFFFFFFF AND EQ PUSH2 0x1205 JUMPI PUSH1 0x40 MLOAD PUSH32 0x8C379A000000000000000000000000000000000000000000000000000000000 DUP2 MSTORE PUSH1 0x4 ADD PUSH2 0x11FC SWAP1 PUSH2 0x3D82 JUMP JUMPDEST PUSH1 0x40 MLOAD DUP1 SWAP2 SUB SWAP1 REVERT JUMPDEST PUSH1 0x1 DUP2 PUSH1 0x3 ADD PUSH1 0x0 PUSH2 0x100 EXP DUP2 SLOAD DUP2 PUSH1 0xFF MUL NOT AND SWAP1 DUP4 ISZERO ISZERO MUL OR SWAP1 SSTORE POP DUP2 DUP2 PUSH1 0x2 ADD DUP2 SWAP1 SSTORE POP CALLER DUP2 PUSH1 0x8 ADD PUSH1 0x0 PUSH2 0x100 EXP DUP2 SLOAD DUP2 PUSH20 0xFFFFFFFFFFFFFFFFFFFFFFFFFFFFFFFFFFFFFFFF MUL NOT AND SWAP1 DUP4 PUSH20 0xFFFFFFFFFFFFFFFFFFFFFFFFFFFFFFFFFFFFFFFF AND MUL OR SWAP1 SSTORE POP POP POP POP JUMP JUMPDEST PUSH1 0x13 SLOAD DUP2 JUMP JUMPDEST PUSH1 0x11 SLOAD DUP2 JUMP JUMPDEST CALLER PUSH20 0xFFFFFFFFFFFFFFFFFFFFFFFFFFFFFFFFFFFFFFFF AND PUSH1 0xD PUSH1 0x0 DUP4 DUP2 MSTORE PUSH1 0x20 ADD SWAP1 DUP2 MSTORE PUSH1 0x20 ADD PUSH1 0x0 KECCAK256 PUSH1 0x1 ADD PUSH1 0x0 SWAP1 SLOAD SWAP1 PUSH2 0x100 EXP SWAP1 DIV PUSH20 0xFFFFFFFFFFFFFFFFFFFFFFFFFFFFFFFFFFFFFFFF AND PUSH20 0xFFFFFFFFFFFFFFFFFFFFFFFFFFFFFFFFFFFFFFFF AND EQ PUSH2 0x1323 JUMPI PUSH1 0x40 MLOAD PUSH32 0x8C379A000000000000000000000000000000000000000000000000000000000 DUP2 MSTORE PUSH1 0x4 ADD PUSH2 0x131A SWAP1 PUSH2 0x3EC5 JUMP JUMPDEST PUSH1 0x40 MLOAD DUP1 SWAP2 SUB SWAP1 REVERT JUMPDEST PUSH1 0x0 PUSH1 0xD PUSH1 0x0 DUP4 DUP2 MSTORE PUSH1 0x20 ADD SWAP1 DUP2 MSTORE PUSH1 0x20 ADD PUSH1 0x0 KECCAK256 SWAP1 POP CALLER DUP2 PUSH1 0x8 ADD PUSH1 0x0 PUSH2 0x100 EXP DUP2 SLOAD DUP2 PUSH20 0xFFFFFFFFFFFFFFFFFFFFFFFFFFFFFFFFFFFFFFFF MUL NOT AND SWAP1 DUP4 PUSH20 0xFFFFFFFFFFFFFFFFFFFFFFFFFFFFFFFFFFFFFFFF AND MUL OR SWAP1 SSTORE POP POP POP JUMP JUMPDEST PUSH1 0x0 DUP1 PUSH1 0x0 SWAP1 SLOAD SWAP1 PUSH2 0x100 EXP SWAP1 DIV PUSH20 0xFFFFFFFFFFFFFFFFFFFFFFFFFFFFFFFFFFFFFFFF AND PUSH20 0xFFFFFFFFFFFFFFFFFFFFFFFFFFFFFFFFFFFFFFFF AND PUSH4 0x70A08231 CALLER PUSH1 0x40 MLOAD DUP3 PUSH4 0xFFFFFFFF AND PUSH1 0xE0 SHL DUP2 MSTORE PUSH1 0x4 ADD PUSH2 0x13DD SWAP2 SWAP1 PUSH2 0x31BB JUMP JUMPDEST PUSH1 0x20 PUSH1 0x40 MLOAD DUP1 DUP4 SUB DUP2 DUP7 GAS STATICCALL ISZERO DUP1 ISZERO PUSH2 0x13FA JUMPI RETURNDATASIZE PUSH1 0x0 DUP1 RETURNDATACOPY RETURNDATASIZE PUSH1 0x0 REVERT JUMPDEST POP POP POP POP PUSH1 0x40 MLOAD RETURNDATASIZE PUSH1 0x1F NOT PUSH1 0x1F DUP3 ADD AND DUP3 ADD DUP1 PUSH1 0x40 MSTORE POP DUP2 ADD SWAP1 PUSH2 0x141E SWAP2 SWAP1 PUSH2 0x3971 JUMP JUMPDEST SWAP1 POP PUSH1 0x0 DUP3 PUSH1 0x11 SLOAD PUSH2 0x1430 SWAP2 SWAP1 PUSH2 0x3EE5 JUMP JUMPDEST SWAP1 POP PUSH1 0x0 DUP1 SLOAD SWAP1 PUSH2 0x100 EXP SWAP1 DIV PUSH20 0xFFFFFFFFFFFFFFFFFFFFFFFFFFFFFFFFFFFFFFFF AND PUSH20 0xFFFFFFFFFFFFFFFFFFFFFFFFFFFFFFFFFFFFFFFF AND PUSH4 0x23B872DD CALLER ADDRESS DUP5 PUSH1 0x40 MLOAD DUP5 PUSH4 0xFFFFFFFF AND PUSH1 0xE0 SHL DUP2 MSTORE PUSH1 0x4 ADD PUSH2 0x148F SWAP4 SWAP3 SWAP2 SWAP1 PUSH2 0x3DD6 JUMP JUMPDEST PUSH1 0x20 PUSH1 0x40 MLOAD DUP1 DUP4 SUB DUP2 PUSH1 0x0 DUP8 GAS CALL ISZERO DUP1 ISZERO PUSH2 0x14AE JUMPI RETURNDATASIZE PUSH1 0x0 DUP1 RETURNDATACOPY RETURNDATASIZE PUSH1 0x0 REVERT JUMPDEST POP POP POP POP PUSH1 0x40 MLOAD RETURNDATASIZE PUSH1 0x1F NOT PUSH1 0x1F DUP3 ADD AND DUP3 ADD DUP1 PUSH1 0x40 MSTORE POP DUP2 ADD SWAP1 PUSH2 0x14D2 SWAP2 SWAP1 PUSH2 0x3A48 JUMP JUMPDEST POP PUSH1 0x1 PUSH1 0x0 SWAP1 SLOAD SWAP1 PUSH2 0x100 EXP SWAP1 DIV PUSH20 0xFFFFFFFFFFFFFFFFFFFFFFFFFFFFFFFFFFFFFFFF AND PUSH20 0xFFFFFFFFFFFFFFFFFFFFFFFFFFFFFFFFFFFFFFFF AND PUSH4 0xF242432A ADDRESS CALLER DUP8 DUP8 PUSH1 0x40 MLOAD DUP6 PUSH4 0xFFFFFFFF AND PUSH1 0xE0 SHL DUP2 MSTORE PUSH1 0x4 ADD PUSH2 0x1534 SWAP5 SWAP4 SWAP3 SWAP2 SWAP1 PUSH2 0x3F5E JUMP JUMPDEST PUSH1 0x0 PUSH1 0x40 MLOAD DUP1 DUP4 SUB DUP2 PUSH1 0x0 DUP8 DUP1 EXTCODESIZE ISZERO DUP1 ISZERO PUSH2 0x154E JUMPI PUSH1 0x0 DUP1 REVERT JUMPDEST POP GAS CALL ISZERO DUP1 ISZERO PUSH2 0x1562 JUMPI RETURNDATASIZE PUSH1 0x0 DUP1 RETURNDATACOPY RETURNDATASIZE PUSH1 0x0 REVERT JUMPDEST POP POP POP POP PUSH32 0xB30F5CA9D541FE04588C910F69C1E7C2456B7822E7073DF9B59908509CBC4F4D CALLER DUP6 DUP6 PUSH1 0x40 MLOAD PUSH2 0x1599 SWAP4 SWAP3 SWAP2 SWAP1 PUSH2 0x3FB6 JUMP JUMPDEST PUSH1 0x40 MLOAD DUP1 SWAP2 SUB SWAP1 LOG1 POP POP POP POP JUMP JUMPDEST PUSH1 0xF SLOAD PUSH1 0xE SLOAD LT PUSH2 0x15ED JUMPI PUSH1 0x40 MLOAD PUSH32 0x8C379A000000000000000000000000000000000000000000000000000000000 DUP2 MSTORE PUSH1 0x4 ADD PUSH2 0x15E4 SWAP1 PUSH2 0x4039 JUMP JUMPDEST PUSH1 0x40 MLOAD DUP1 SWAP2 SUB SWAP1 REVERT JUMPDEST PUSH1 0x0 DUP4 PUSH1 0xFF AND PUSH1 0x96 DUP2 GT ISZERO PUSH2 0x1605 JUMPI PUSH2 0x1604 PUSH2 0x35D3 JUMP JUMPDEST JUMPDEST SWAP1 POP PUSH2 0x160F PUSH2 0x2EBF JUMP JUMPDEST PUSH1 0xE SLOAD DUP2 PUSH1 0x0 ADD DUP2 DUP2 MSTORE POP POP CALLER DUP2 PUSH1 0x20 ADD SWAP1 PUSH20 0xFFFFFFFFFFFFFFFFFFFFFFFFFFFFFFFFFFFFFFFF AND SWAP1 DUP2 PUSH20 0xFFFFFFFFFFFFFFFFFFFFFFFFFFFFFFFFFFFFFFFF AND DUP2 MSTORE POP POP DUP2 DUP2 PUSH1 0x40 ADD SWAP1 PUSH1 0x96 DUP2 GT ISZERO PUSH2 0x166B JUMPI PUSH2 0x166A PUSH2 0x35D3 JUMP JUMPDEST JUMPDEST SWAP1 DUP2 PUSH1 0x96 DUP2 GT ISZERO PUSH2 0x167F JUMPI PUSH2 0x167E PUSH2 0x35D3 JUMP JUMPDEST JUMPDEST DUP2 MSTORE POP POP PUSH1 0x2 DUP6 PUSH1 0xFF AND PUSH1 0x97 DUP2 LT PUSH2 0x169A JUMPI PUSH2 0x1699 PUSH2 0x4059 JUMP JUMPDEST JUMPDEST PUSH1 0x20 SWAP2 DUP3 DUP3 DIV ADD SWAP2 SWAP1 MOD SWAP1 SLOAD SWAP1 PUSH2 0x100 EXP SWAP1 DIV PUSH1 0xFF AND DUP2 PUSH1 0xA0 ADD SWAP1 PUSH1 0xFF AND SWAP1 DUP2 PUSH1 0xFF AND DUP2 MSTORE POP POP PUSH1 0x7 DUP6 PUSH1 0xFF AND PUSH1 0x97 DUP2 LT PUSH2 0x16D8 JUMPI PUSH2 0x16D7 PUSH2 0x4059 JUMP JUMPDEST JUMPDEST PUSH1 0x20 SWAP2 DUP3 DUP3 DIV ADD SWAP2 SWAP1 MOD SWAP1 SLOAD SWAP1 PUSH2 0x100 EXP SWAP1 DIV PUSH1 0xFF AND DUP2 PUSH1 0xC0 ADD SWAP1 ISZERO ISZERO SWAP1 DUP2 ISZERO ISZERO DUP2 MSTORE POP POP DUP4 DUP2 PUSH1 0x60 ADD DUP2 DUP2 MSTORE POP POP DUP3 DUP2 PUSH1 0x80 ADD SWAP1 ISZERO ISZERO SWAP1 DUP2 ISZERO ISZERO DUP2 MSTORE POP POP PUSH2 0x1721 PUSH1 0x29 PUSH2 0xE24 JUMP JUMPDEST PUSH1 0x64 PUSH2 0x172D SWAP2 SWAP1 PUSH2 0x4088 JUMP JUMPDEST PUSH1 0xFF AND DUP2 PUSH1 0xE0 ADD DUP2 DUP2 MSTORE POP POP PUSH2 0x1743 PUSH1 0x29 PUSH2 0xE24 JUMP JUMPDEST PUSH1 0x64 PUSH2 0x174F SWAP2 SWAP1 PUSH2 0x4088 JUMP JUMPDEST PUSH1 0xFF AND DUP2 PUSH2 0x100 ADD DUP2 DUP2 MSTORE POP POP PUSH2 0x1766 PUSH1 0x29 PUSH2 0xE24 JUMP JUMPDEST PUSH1 0x64 PUSH2 0x1772 SWAP2 SWAP1 PUSH2 0x4088 JUMP JUMPDEST PUSH1 0xFF AND DUP2 PUSH2 0x120 ADD DUP2 DUP2 MSTORE POP POP PUSH2 0x1789 PUSH1 0x29 PUSH2 0xE24 JUMP JUMPDEST PUSH1 0x64 PUSH2 0x1795 SWAP2 SWAP1 PUSH2 0x4088 JUMP JUMPDEST PUSH1 0xFF AND DUP2 PUSH2 0x140 ADD DUP2 DUP2 MSTORE POP POP DUP1 PUSH1 0xD PUSH1 0x0 PUSH1 0xE SLOAD DUP2 MSTORE PUSH1 0x20 ADD SWAP1 DUP2 MSTORE PUSH1 0x20 ADD PUSH1 0x0 KECCAK256 PUSH1 0x0 DUP3 ADD MLOAD DUP2 PUSH1 0x0 ADD SSTORE PUSH1 0x20 DUP3 ADD MLOAD DUP2 PUSH1 0x1 ADD PUSH1 0x0 PUSH2 0x100 EXP DUP2 SLOAD DUP2 PUSH20 0xFFFFFFFFFFFFFFFFFFFFFFFFFFFFFFFFFFFFFFFF MUL NOT AND SWAP1 DUP4 PUSH20 0xFFFFFFFFFFFFFFFFFFFFFFFFFFFFFFFFFFFFFFFF AND MUL OR SWAP1 SSTORE POP PUSH1 0x40 DUP3 ADD MLOAD DUP2 PUSH1 0x1 ADD PUSH1 0x14 PUSH2 0x100 EXP DUP2 SLOAD DUP2 PUSH1 0xFF MUL NOT AND SWAP1 DUP4 PUSH1 0x96 DUP2 GT ISZERO PUSH2 0x1834 JUMPI PUSH2 0x1833 PUSH2 0x35D3 JUMP JUMPDEST JUMPDEST MUL OR SWAP1 SSTORE POP PUSH1 0x60 DUP3 ADD MLOAD DUP2 PUSH1 0x2 ADD SSTORE PUSH1 0x80 DUP3 ADD MLOAD DUP2 PUSH1 0x3 ADD PUSH1 0x0 PUSH2 0x100 EXP DUP2 SLOAD DUP2 PUSH1 0xFF MUL NOT AND SWAP1 DUP4 ISZERO ISZERO MUL OR SWAP1 SSTORE POP PUSH1 0xA0 DUP3 ADD MLOAD DUP2 PUSH1 0x3 ADD PUSH1 0x1 PUSH2 0x100 EXP DUP2 SLOAD DUP2 PUSH1 0xFF MUL NOT AND SWAP1 DUP4 PUSH1 0xFF AND MUL OR SWAP1 SSTORE POP PUSH1 0xC0 DUP3 ADD MLOAD DUP2 PUSH1 0x3 ADD PUSH1 0x2 PUSH2 0x100 EXP DUP2 SLOAD DUP2 PUSH1 0xFF MUL NOT AND SWAP1 DUP4 ISZERO ISZERO MUL OR SWAP1 SSTORE POP PUSH1 0xE0 DUP3 ADD MLOAD DUP2 PUSH1 0x4 ADD SSTORE PUSH2 0x100 DUP3 ADD MLOAD DUP2 PUSH1 0x5 ADD SSTORE PUSH2 0x120 DUP3 ADD MLOAD DUP2 PUSH1 0x6 ADD SSTORE PUSH2 0x140 DUP3 ADD MLOAD DUP2 PUSH1 0x7 ADD SSTORE PUSH2 0x160 DUP3 ADD MLOAD DUP2 PUSH1 0x8 ADD PUSH1 0x0 PUSH2 0x100 EXP DUP2 SLOAD DUP2 PUSH20 0xFFFFFFFFFFFFFFFFFFFFFFFFFFFFFFFFFFFFFFFF MUL NOT AND SWAP1 DUP4 PUSH20 0xFFFFFFFFFFFFFFFFFFFFFFFFFFFFFFFFFFFFFFFF AND MUL OR SWAP1 SSTORE POP SWAP1 POP POP PUSH1 0xE PUSH1 0x0 DUP2 SLOAD DUP1 SWAP3 SWAP2 SWAP1 PUSH2 0x192D SWAP1 PUSH2 0x3C82 JUMP JUMPDEST SWAP2 SWAP1 POP SSTORE POP PUSH32 0xB6D21026AC3AB2EDC35F484B1BB7362A0287A0629B892A158B6907A04DEBA22D DUP2 PUSH1 0x0 ADD MLOAD PUSH1 0x40 MLOAD PUSH2 0x1965 SWAP2 SWAP1 PUSH2 0x31E5 JUMP JUMPDEST PUSH1 0x40 MLOAD DUP1 SWAP2 SUB SWAP1 LOG1 POP POP POP POP POP JUMP JUMPDEST PUSH1 0x14 SLOAD DUP2 JUMP JUMPDEST PUSH1 0xC PUSH1 0x0 SWAP1 SLOAD SWAP1 PUSH2 0x100 EXP SWAP1 DIV PUSH20 0xFFFFFFFFFFFFFFFFFFFFFFFFFFFFFFFFFFFFFFFF AND PUSH20 0xFFFFFFFFFFFFFFFFFFFFFFFFFFFFFFFFFFFFFFFF AND CALLER PUSH20 0xFFFFFFFFFFFFFFFFFFFFFFFFFFFFFFFFFFFFFFFF AND EQ PUSH2 0x1A0A JUMPI PUSH1 0x40 MLOAD PUSH32 0x8C379A000000000000000000000000000000000000000000000000000000000 DUP2 MSTORE PUSH1 0x4 ADD PUSH2 0x1A01 SWAP1 PUSH2 0x393C JUMP JUMPDEST PUSH1 0x40 MLOAD DUP1 SWAP2 SUB SWAP1 REVERT JUMPDEST PUSH1 0x0 DUP1 PUSH1 0x0 SWAP1 SLOAD SWAP1 PUSH2 0x100 EXP SWAP1 DIV PUSH20 0xFFFFFFFFFFFFFFFFFFFFFFFFFFFFFFFFFFFFFFFF AND PUSH20 0xFFFFFFFFFFFFFFFFFFFFFFFFFFFFFFFFFFFFFFFF AND PUSH4 0xDD62ED3E CALLER ADDRESS PUSH1 0x40 MLOAD DUP4 PUSH4 0xFFFFFFFF AND PUSH1 0xE0 SHL DUP2 MSTORE PUSH1 0x4 ADD PUSH2 0x1A68 SWAP3 SWAP2 SWAP1 PUSH2 0x40BD JUMP JUMPDEST PUSH1 0x20 PUSH1 0x40 MLOAD DUP1 DUP4 SUB DUP2 DUP7 GAS STATICCALL ISZERO DUP1 ISZERO PUSH2 0x1A85 JUMPI RETURNDATASIZE PUSH1 0x0 DUP1 RETURNDATACOPY RETURNDATASIZE PUSH1 0x0 REVERT JUMPDEST POP POP POP POP PUSH1 0x40 MLOAD RETURNDATASIZE PUSH1 0x1F NOT PUSH1 0x1F DUP3 ADD AND DUP3 ADD DUP1 PUSH1 0x40 MSTORE POP DUP2 ADD SWAP1 PUSH2 0x1AA9 SWAP2 SWAP1 PUSH2 0x3971 JUMP JUMPDEST SWAP1 POP DUP2 DUP2 LT ISZERO PUSH2 0x1AEE JUMPI PUSH1 0x40 MLOAD PUSH32 0x8C379A000000000000000000000000000000000000000000000000000000000 DUP2 MSTORE PUSH1 0x4 ADD PUSH2 0x1AE5 SWAP1 PUSH2 0x4132 JUMP JUMPDEST PUSH1 0x40 MLOAD DUP1 SWAP2 SUB SWAP1 REVERT JUMPDEST PUSH1 0x0 DUP1 SLOAD SWAP1 PUSH2 0x100 EXP SWAP1 DIV PUSH20 0xFFFFFFFFFFFFFFFFFFFFFFFFFFFFFFFFFFFFFFFF AND PUSH20 0xFFFFFFFFFFFFFFFFFFFFFFFFFFFFFFFFFFFFFFFF AND PUSH4 0x23B872DD CALLER ADDRESS DUP6 PUSH1 0x40 MLOAD DUP5 PUSH4 0xFFFFFFFF AND PUSH1 0xE0 SHL DUP2 MSTORE PUSH1 0x4 ADD PUSH2 0x1B4B SWAP4 SWAP3 SWAP2 SWAP1 PUSH2 0x3DD6 JUMP JUMPDEST PUSH1 0x20 PUSH1 0x40 MLOAD DUP1 DUP4 SUB DUP2 PUSH1 0x0 DUP8 GAS CALL ISZERO DUP1 ISZERO PUSH2 0x1B6A JUMPI RETURNDATASIZE PUSH1 0x0 DUP1 RETURNDATACOPY RETURNDATASIZE PUSH1 0x0 REVERT JUMPDEST POP POP POP POP PUSH1 0x40 MLOAD RETURNDATASIZE PUSH1 0x1F NOT PUSH1 0x1F DUP3 ADD AND DUP3 ADD DUP1 PUSH1 0x40 MSTORE POP DUP2 ADD SWAP1 PUSH2 0x1B8E SWAP2 SWAP1 PUSH2 0x3A48 JUMP JUMPDEST POP POP POP JUMP JUMPDEST PUSH1 0x0 PUSH4 0xBC197C81 PUSH1 0xE0 SHL SWAP1 POP SWAP6 SWAP5 POP POP POP POP POP JUMP JUMPDEST PUSH1 0x0 DUP1 SLOAD SWAP1 PUSH2 0x100 EXP SWAP1 DIV PUSH20 0xFFFFFFFFFFFFFFFFFFFFFFFFFFFFFFFFFFFFFFFF AND PUSH20 0xFFFFFFFFFFFFFFFFFFFFFFFFFFFFFFFFFFFFFFFF AND PUSH4 0x40C10F19 CALLER DUP4 PUSH1 0x40 MLOAD DUP4 PUSH4 0xFFFFFFFF AND PUSH1 0xE0 SHL DUP2 MSTORE PUSH1 0x4 ADD PUSH2 0x1C03 SWAP3 SWAP2 SWAP1 PUSH2 0x3A0A JUMP JUMPDEST PUSH1 0x0 PUSH1 0x40 MLOAD DUP1 DUP4 SUB DUP2 PUSH1 0x0 DUP8 DUP1 EXTCODESIZE ISZERO DUP1 ISZERO PUSH2 0x1C1D JUMPI PUSH1 0x0 DUP1 REVERT JUMPDEST POP GAS CALL ISZERO DUP1 ISZERO PUSH2 0x1C31 JUMPI RETURNDATASIZE PUSH1 0x0 DUP1 RETURNDATACOPY RETURNDATASIZE PUSH1 0x0 REVERT JUMPDEST POP POP POP POP POP JUMP JUMPDEST PUSH1 0x0 PUSH1 0x11 SLOAD DUP3 PUSH2 0x1C48 SWAP2 SWAP1 PUSH2 0x3EE5 JUMP JUMPDEST SWAP1 POP PUSH1 0x0 DUP1 SLOAD SWAP1 PUSH2 0x100 EXP SWAP1 DIV PUSH20 0xFFFFFFFFFFFFFFFFFFFFFFFFFFFFFFFFFFFFFFFF AND PUSH20 0xFFFFFFFFFFFFFFFFFFFFFFFFFFFFFFFFFFFFFFFF AND PUSH4 0xA9059CBB CALLER DUP4 PUSH1 0x40 MLOAD DUP4 PUSH4 0xFFFFFFFF AND PUSH1 0xE0 SHL DUP2 MSTORE PUSH1 0x4 ADD PUSH2 0x1CA5 SWAP3 SWAP2 SWAP1 PUSH2 0x3A0A JUMP JUMPDEST PUSH1 0x20 PUSH1 0x40 MLOAD DUP1 DUP4 SUB DUP2 PUSH1 0x0 DUP8 GAS CALL ISZERO DUP1 ISZERO PUSH2 0x1CC4 JUMPI RETURNDATASIZE PUSH1 0x0 DUP1 RETURNDATACOPY RETURNDATASIZE PUSH1 0x0 REVERT JUMPDEST POP POP POP POP PUSH1 0x40 MLOAD RETURNDATASIZE PUSH1 0x1F NOT PUSH1 0x1F DUP3 ADD AND DUP3 ADD DUP1 PUSH1 0x40 MSTORE POP DUP2 ADD SWAP1 PUSH2 0x1CE8 SWAP2 SWAP1 PUSH2 0x3A48 JUMP JUMPDEST POP PUSH1 0x1 PUSH1 0x0 SWAP1 SLOAD SWAP1 PUSH2 0x100 EXP SWAP1 DIV PUSH20 0xFFFFFFFFFFFFFFFFFFFFFFFFFFFFFFFFFFFFFFFF AND PUSH20 0xFFFFFFFFFFFFFFFFFFFFFFFFFFFFFFFFFFFFFFFF AND PUSH4 0xF242432A CALLER ADDRESS DUP7 DUP7 PUSH1 0x40 MLOAD DUP6 PUSH4 0xFFFFFFFF AND PUSH1 0xE0 SHL DUP2 MSTORE PUSH1 0x4 ADD PUSH2 0x1D4A SWAP5 SWAP4 SWAP3 SWAP2 SWAP1 PUSH2 0x3F5E JUMP JUMPDEST PUSH1 0x0 PUSH1 0x40 MLOAD DUP1 DUP4 SUB DUP2 PUSH1 0x0 DUP8 DUP1 EXTCODESIZE ISZERO DUP1 ISZERO PUSH2 0x1D64 JUMPI PUSH1 0x0 DUP1 REVERT JUMPDEST POP GAS CALL ISZERO DUP1 ISZERO PUSH2 0x1D78 JUMPI RETURNDATASIZE PUSH1 0x0 DUP1 RETURNDATACOPY RETURNDATASIZE PUSH1 0x0 REVERT JUMPDEST POP POP POP POP PUSH32 0xF2082E83EF8B94076D0D23E425EDA9735767F9056D494BA309F480A835849E4D CALLER DUP5 DUP5 PUSH1 0x40 MLOAD PUSH2 0x1DAF SWAP4 SWAP3 SWAP2 SWAP1 PUSH2 0x3FB6 JUMP JUMPDEST PUSH1 0x40 MLOAD DUP1 SWAP2 SUB SWAP1 LOG1 POP POP POP JUMP JUMPDEST PUSH1 0x0 PUSH1 0xD PUSH1 0x0 DUP5 DUP2 MSTORE PUSH1 0x20 ADD SWAP1 DUP2 MSTORE PUSH1 0x20 ADD PUSH1 0x0 KECCAK256 PUSH1 0x4 ADD SLOAD SWAP1 POP PUSH1 0x0 PUSH1 0xD PUSH1 0x0 DUP5 DUP2 MSTORE PUSH1 0x20 ADD SWAP1 DUP2 MSTORE PUSH1 0x20 ADD PUSH1 0x0 KECCAK256 PUSH1 0x4 ADD SLOAD SWAP1 POP PUSH1 0x0 PUSH1 0xD PUSH1 0x0 DUP6 DUP2 MSTORE PUSH1 0x20 ADD SWAP1 DUP2 MSTORE PUSH1 0x20 ADD PUSH1 0x0 KECCAK256 PUSH1 0x7 ADD SLOAD PUSH1 0xD PUSH1 0x0 DUP8 DUP2 MSTORE PUSH1 0x20 ADD SWAP1 DUP2 MSTORE PUSH1 0x20 ADD PUSH1 0x0 KECCAK256 PUSH1 0x7 ADD SLOAD GT ISZERO PUSH2 0x1E6A JUMPI PUSH2 0x1E32 DUP6 DUP6 PUSH2 0x2CF3 JUMP JUMPDEST PUSH1 0xFF AND DUP3 LT ISZERO PUSH2 0x1E44 JUMPI DUP5 SWAP1 POP PUSH2 0x1E65 JUMP JUMPDEST PUSH2 0x1E4E DUP5 DUP7 PUSH2 0x2CF3 JUMP JUMPDEST PUSH1 0xFF AND DUP4 LT ISZERO PUSH2 0x1E60 JUMPI DUP4 SWAP1 POP PUSH2 0x1E64 JUMP JUMPDEST DUP5 SWAP1 POP JUMPDEST JUMPDEST PUSH2 0x1EA8 JUMP JUMPDEST PUSH2 0x1E74 DUP5 DUP7 PUSH2 0x2CF3 JUMP JUMPDEST PUSH1 0xFF AND DUP4 LT ISZERO PUSH2 0x1E86 JUMPI DUP4 SWAP1 POP PUSH2 0x1EA7 JUMP JUMPDEST PUSH2 0x1E90 DUP6 DUP6 PUSH2 0x2CF3 JUMP JUMPDEST PUSH1 0xFF AND DUP3 LT ISZERO PUSH2 0x1EA2 JUMPI DUP5 SWAP1 POP PUSH2 0x1EA6 JUMP JUMPDEST DUP4 SWAP1 POP JUMPDEST JUMPDEST JUMPDEST CALLER PUSH20 0xFFFFFFFFFFFFFFFFFFFFFFFFFFFFFFFFFFFFFFFF AND PUSH1 0xD PUSH1 0x0 DUP4 DUP2 MSTORE PUSH1 0x20 ADD SWAP1 DUP2 MSTORE PUSH1 0x20 ADD PUSH1 0x0 KECCAK256 PUSH1 0x1 ADD PUSH1 0x0 SWAP1 SLOAD SWAP1 PUSH2 0x100 EXP SWAP1 DIV PUSH20 0xFFFFFFFFFFFFFFFFFFFFFFFFFFFFFFFFFFFFFFFF AND PUSH20 0xFFFFFFFFFFFFFFFFFFFFFFFFFFFFFFFFFFFFFFFF AND SUB PUSH2 0x1F59 JUMPI PUSH2 0x1F1D PUSH1 0x13 SLOAD CALLER PUSH2 0x2D3A JUMP JUMPDEST PUSH32 0x79EF545E967EEE66F30BC0EA214BD902F628CE7A939427EBD830CEAA54693D5C PUSH1 0x13 SLOAD CALLER PUSH1 0x40 MLOAD PUSH2 0x1F50 SWAP3 SWAP2 SWAP1 PUSH2 0x4152 JUMP JUMPDEST PUSH1 0x40 MLOAD DUP1 SWAP2 SUB SWAP1 LOG1 JUMPDEST PUSH32 0x1900EDE490C2177924F2506408C9D65C23B9352A0332DBD66C0FB8164E5B60B4 DUP2 PUSH1 0x40 MLOAD PUSH2 0x1F88 SWAP2 SWAP1 PUSH2 0x31E5 JUMP JUMPDEST PUSH1 0x40 MLOAD DUP1 SWAP2 SUB SWAP1 LOG1 POP POP POP POP POP JUMP JUMPDEST PUSH1 0xF SLOAD DUP2 JUMP JUMPDEST PUSH1 0xD PUSH1 0x20 MSTORE DUP1 PUSH1 0x0 MSTORE PUSH1 0x40 PUSH1 0x0 KECCAK256 PUSH1 0x0 SWAP2 POP SWAP1 POP DUP1 PUSH1 0x0 ADD SLOAD SWAP1 DUP1 PUSH1 0x1 ADD PUSH1 0x0 SWAP1 SLOAD SWAP1 PUSH2 0x100 EXP SWAP1 DIV PUSH20 0xFFFFFFFFFFFFFFFFFFFFFFFFFFFFFFFFFFFFFFFF AND SWAP1 DUP1 PUSH1 0x1 ADD PUSH1 0x14 SWAP1 SLOAD SWAP1 PUSH2 0x100 EXP SWAP1 DIV PUSH1 0xFF AND SWAP1 DUP1 PUSH1 0x2 ADD SLOAD SWAP1 DUP1 PUSH1 0x3 ADD PUSH1 0x0 SWAP1 SLOAD SWAP1 PUSH2 0x100 EXP SWAP1 DIV PUSH1 0xFF AND SWAP1 DUP1 PUSH1 0x3 ADD PUSH1 0x1 SWAP1 SLOAD SWAP1 PUSH2 0x100 EXP SWAP1 DIV PUSH1 0xFF AND SWAP1 DUP1 PUSH1 0x3 ADD PUSH1 0x2 SWAP1 SLOAD SWAP1 PUSH2 0x100 EXP SWAP1 DIV PUSH1 0xFF AND SWAP1 DUP1 PUSH1 0x4 ADD SLOAD SWAP1 DUP1 PUSH1 0x5 ADD SLOAD SWAP1 DUP1 PUSH1 0x6 ADD SLOAD SWAP1 DUP1 PUSH1 0x7 ADD SLOAD SWAP1 DUP1 PUSH1 0x8 ADD PUSH1 0x0 SWAP1 SLOAD SWAP1 PUSH2 0x100 EXP SWAP1 DIV PUSH20 0xFFFFFFFFFFFFFFFFFFFFFFFFFFFFFFFFFFFFFFFF AND SWAP1 POP DUP13 JUMP JUMPDEST PUSH1 0x0 PUSH4 0xF23A6E61 PUSH1 0xE0 SHL SWAP1 POP SWAP6 SWAP5 POP POP POP POP POP JUMP JUMPDEST PUSH1 0x12 SLOAD DUP2 JUMP JUMPDEST PUSH1 0x0 PUSH32 0x1FFC9A700000000000000000000000000000000000000000000000000000000 PUSH28 0xFFFFFFFFFFFFFFFFFFFFFFFFFFFFFFFFFFFFFFFFFFFFFFFFFFFFFFFF NOT AND DUP3 PUSH28 0xFFFFFFFFFFFFFFFFFFFFFFFFFFFFFFFFFFFFFFFFFFFFFFFFFFFFFFFF NOT AND EQ SWAP1 POP SWAP2 SWAP1 POP JUMP JUMPDEST PUSH1 0x0 DUP1 PUSH1 0x40 MLOAD DUP1 PUSH1 0xA0 ADD PUSH1 0x40 MSTORE DUP1 PUSH1 0x0 PUSH1 0xFF AND DUP2 MSTORE PUSH1 0x20 ADD PUSH1 0x2A PUSH1 0xFF AND DUP2 MSTORE PUSH1 0x20 ADD PUSH1 0x3B PUSH1 0xFF AND DUP2 MSTORE PUSH1 0x20 ADD PUSH1 0x44 PUSH1 0xFF AND DUP2 MSTORE PUSH1 0x20 ADD PUSH1 0x71 PUSH1 0xFF AND DUP2 MSTORE POP SWAP1 POP PUSH1 0x0 PUSH1 0x40 MLOAD DUP1 PUSH1 0xC0 ADD PUSH1 0x40 MSTORE DUP1 PUSH1 0x3 PUSH1 0xFF AND DUP2 MSTORE PUSH1 0x20 ADD PUSH1 0x24 PUSH1 0xFF AND DUP2 MSTORE PUSH1 0x20 ADD PUSH1 0x39 PUSH1 0xFF AND DUP2 MSTORE PUSH1 0x20 ADD PUSH1 0x4C PUSH1 0xFF AND DUP2 MSTORE PUSH1 0x20 ADD PUSH1 0x7D PUSH1 0xFF AND DUP2 MSTORE PUSH1 0x20 ADD PUSH1 0x91 PUSH1 0xFF AND DUP2 MSTORE POP SWAP1 POP PUSH1 0x0 PUSH1 0x40 MLOAD DUP1 PUSH2 0x200 ADD PUSH1 0x40 MSTORE DUP1 PUSH1 0x6 PUSH1 0xFF AND DUP2 MSTORE PUSH1 0x20 ADD PUSH1 0x35 PUSH1 0xFF AND DUP2 MSTORE PUSH1 0x20 ADD PUSH1 0x3B PUSH1 0xFF AND DUP2 MSTORE PUSH1 0x20 ADD PUSH1 0x47 PUSH1 0xFF AND DUP2 MSTORE PUSH1 0x20 ADD PUSH1 0x4E PUSH1 0xFF AND DUP2 MSTORE PUSH1 0x20 ADD PUSH1 0x55 PUSH1 0xFF AND DUP2 MSTORE PUSH1 0x20 ADD PUSH1 0x59 PUSH1 0xFF AND DUP2 MSTORE PUSH1 0x20 ADD PUSH1 0x61 PUSH1 0xFF AND DUP2 MSTORE PUSH1 0x20 ADD PUSH1 0x73 PUSH1 0xFF AND DUP2 MSTORE PUSH1 0x20 ADD PUSH1 0x75 PUSH1 0xFF AND DUP2 MSTORE PUSH1 0x20 ADD PUSH1 0x77 PUSH1 0xFF AND DUP2 MSTORE PUSH1 0x20 ADD PUSH1 0x80 PUSH1 0xFF AND DUP2 MSTORE PUSH1 0x20 ADD PUSH1 0x82 PUSH1 0xFF AND DUP2 MSTORE PUSH1 0x20 ADD PUSH1 0x89 PUSH1 0xFF AND DUP2 MSTORE PUSH1 0x20 ADD PUSH1 0x8B PUSH1 0xFF AND DUP2 MSTORE PUSH1 0x20 ADD PUSH1 0x8F PUSH1 0xFF AND DUP2 MSTORE POP SWAP1 POP PUSH1 0x0 PUSH1 0x40 MLOAD DUP1 PUSH1 0xC0 ADD PUSH1 0x40 MSTORE DUP1 PUSH1 0x9 PUSH1 0xFF AND DUP2 MSTORE PUSH1 0x20 ADD PUSH1 0xC PUSH1 0xFF AND DUP2 MSTORE PUSH1 0x20 ADD PUSH1 0x2D PUSH1 0xFF AND DUP2 MSTORE PUSH1 0x20 ADD PUSH1 0x2F PUSH1 0xFF AND DUP2 MSTORE PUSH1 0x20 ADD PUSH1 0x7A PUSH1 0xFF AND DUP2 MSTORE PUSH1 0x20 ADD PUSH1 0x7E PUSH1 0xFF AND DUP2 MSTORE POP SWAP1 POP PUSH1 0x0 PUSH1 0x40 MLOAD DUP1 PUSH2 0x260 ADD PUSH1 0x40 MSTORE DUP1 PUSH1 0xF PUSH1 0xFF AND DUP2 MSTORE PUSH1 0x20 ADD PUSH1 0x12 PUSH1 0xFF AND DUP2 MSTORE PUSH1 0x20 ADD PUSH1 0x14 PUSH1 0xFF AND DUP2 MSTORE PUSH1 0x20 ADD PUSH1 0x1C PUSH1 0xFF AND DUP2 MSTORE PUSH1 0x20 ADD PUSH1 0x1F PUSH1 0xFF AND DUP2 MSTORE PUSH1 0x20 ADD PUSH1 0x22 PUSH1 0xFF AND DUP2 MSTORE PUSH1 0x20 ADD PUSH1 0x26 PUSH1 0xFF AND DUP2 MSTORE PUSH1 0x20 ADD PUSH1 0x33 PUSH1 0xFF AND DUP2 MSTORE PUSH1 0x20 ADD PUSH1 0x37 PUSH1 0xFF AND DUP2 MSTORE PUSH1 0x20 ADD PUSH1 0x41 PUSH1 0xFF AND DUP2 MSTORE PUSH1 0x20 ADD PUSH1 0x52 PUSH1 0xFF AND DUP2 MSTORE PUSH1 0x20 ADD PUSH1 0x53 PUSH1 0xFF AND DUP2 MSTORE PUSH1 0x20 ADD PUSH1 0x69 PUSH1 0xFF AND DUP2 MSTORE PUSH1 0x20 ADD PUSH1 0x6B PUSH1 0xFF AND DUP2 MSTORE PUSH1 0x20 ADD PUSH1 0x70 PUSH1 0xFF AND DUP2 MSTORE PUSH1 0x20 ADD PUSH1 0x7F PUSH1 0xFF AND DUP2 MSTORE PUSH1 0x20 ADD PUSH1 0x88 PUSH1 0xFF AND DUP2 MSTORE PUSH1 0x20 ADD PUSH1 0x8D PUSH1 0xFF AND DUP2 MSTORE PUSH1 0x20 ADD PUSH1 0x8E PUSH1 0xFF AND DUP2 MSTORE POP SWAP1 POP PUSH1 0x0 PUSH1 0x40 MLOAD DUP1 PUSH1 0x80 ADD PUSH1 0x40 MSTORE DUP1 PUSH1 0x16 PUSH1 0xFF AND DUP2 MSTORE PUSH1 0x20 ADD PUSH1 0x28 PUSH1 0xFF AND DUP2 MSTORE PUSH1 0x20 ADD PUSH1 0x57 PUSH1 0xFF AND DUP2 MSTORE PUSH1 0x20 ADD PUSH1 0x6C PUSH1 0xFF AND DUP2 MSTORE POP SWAP1 POP PUSH1 0x0 PUSH1 0x40 MLOAD DUP1 PUSH1 0xA0 ADD PUSH1 0x40 MSTORE DUP1 PUSH1 0x18 PUSH1 0xFF AND DUP2 MSTORE PUSH1 0x20 ADD PUSH1 0x50 PUSH1 0xFF AND DUP2 MSTORE PUSH1 0x20 ADD PUSH1 0x63 PUSH1 0xFF AND DUP2 MSTORE PUSH1 0x20 ADD PUSH1 0x7C PUSH1 0xFF AND DUP2 MSTORE PUSH1 0x20 ADD PUSH1 0x90 PUSH1 0xFF AND DUP2 MSTORE POP SWAP1 POP PUSH1 0x0 PUSH1 0x40 MLOAD DUP1 PUSH1 0xE0 ADD PUSH1 0x40 MSTORE DUP1 PUSH1 0x1A PUSH1 0xFF AND DUP2 MSTORE PUSH1 0x20 ADD PUSH1 0x31 PUSH1 0xFF AND DUP2 MSTORE PUSH1 0x20 ADD PUSH1 0x49 PUSH1 0xFF AND DUP2 MSTORE PUSH1 0x20 ADD PUSH1 0x5E PUSH1 0xFF AND DUP2 MSTORE PUSH1 0x20 ADD PUSH1 0x67 PUSH1 0xFF AND DUP2 MSTORE PUSH1 0x20 ADD PUSH1 0x6E PUSH1 0xFF AND DUP2 MSTORE PUSH1 0x20 ADD PUSH1 0x72 PUSH1 0xFF AND DUP2 MSTORE POP SWAP1 POP PUSH1 0x0 PUSH1 0x40 MLOAD DUP1 PUSH2 0x100 ADD PUSH1 0x40 MSTORE DUP1 PUSH1 0x3E PUSH1 0xFF AND DUP2 MSTORE PUSH1 0x20 ADD PUSH1 0x5B PUSH1 0xFF AND DUP2 MSTORE PUSH1 0x20 ADD PUSH1 0x5F PUSH1 0xFF AND DUP2 MSTORE PUSH1 0x20 ADD PUSH1 0x65 PUSH1 0xFF AND DUP2 MSTORE PUSH1 0x20 ADD PUSH1 0x79 PUSH1 0xFF AND DUP2 MSTORE PUSH1 0x20 ADD PUSH1 0x7B PUSH1 0xFF AND DUP2 MSTORE PUSH1 0x20 ADD PUSH1 0x92 PUSH1 0xFF AND DUP2 MSTORE PUSH1 0x20 ADD PUSH1 0x95 PUSH1 0xFF AND DUP2 MSTORE POP SWAP1 POP PUSH1 0x0 PUSH1 0x9 PUSH1 0xD PUSH1 0x0 DUP15 DUP2 MSTORE PUSH1 0x20 ADD SWAP1 DUP2 MSTORE PUSH1 0x20 ADD PUSH1 0x0 KECCAK256 PUSH1 0x3 ADD PUSH1 0x1 SWAP1 SLOAD SWAP1 PUSH2 0x100 EXP SWAP1 DIV PUSH1 0xFF AND PUSH1 0xFF AND SUB PUSH2 0x24C2 JUMPI PUSH1 0xD PUSH1 0x0 DUP15 DUP2 MSTORE PUSH1 0x20 ADD SWAP1 DUP2 MSTORE PUSH1 0x20 ADD PUSH1 0x0 KECCAK256 PUSH1 0x1 ADD PUSH1 0x14 SWAP1 SLOAD SWAP1 PUSH2 0x100 EXP SWAP1 DIV PUSH1 0xFF AND SWAP1 POP PUSH2 0x2CE0 JUMP JUMPDEST PUSH1 0x9 PUSH1 0xD PUSH1 0x0 DUP16 DUP2 MSTORE PUSH1 0x20 ADD SWAP1 DUP2 MSTORE PUSH1 0x20 ADD PUSH1 0x0 KECCAK256 PUSH1 0x3 ADD PUSH1 0x1 SWAP1 SLOAD SWAP1 PUSH2 0x100 EXP SWAP1 DIV PUSH1 0xFF AND PUSH1 0xFF AND SUB PUSH2 0x251B JUMPI PUSH1 0xD PUSH1 0x0 DUP14 DUP2 MSTORE PUSH1 0x20 ADD SWAP1 DUP2 MSTORE PUSH1 0x20 ADD PUSH1 0x0 KECCAK256 PUSH1 0x1 ADD PUSH1 0x14 SWAP1 SLOAD SWAP1 PUSH2 0x100 EXP SWAP1 DIV PUSH1 0xFF AND SWAP1 POP PUSH2 0x2CDF JUMP JUMPDEST PUSH1 0xA PUSH1 0xD PUSH1 0x0 DUP16 DUP2 MSTORE PUSH1 0x20 ADD SWAP1 DUP2 MSTORE PUSH1 0x20 ADD PUSH1 0x0 KECCAK256 PUSH1 0x3 ADD PUSH1 0x1 SWAP1 SLOAD SWAP1 PUSH2 0x100 EXP SWAP1 DIV PUSH1 0xFF AND PUSH1 0xFF AND SUB PUSH2 0x2642 JUMPI PUSH1 0x1 PUSH1 0xD PUSH1 0x0 DUP15 DUP2 MSTORE PUSH1 0x20 ADD SWAP1 DUP2 MSTORE PUSH1 0x20 ADD PUSH1 0x0 KECCAK256 PUSH1 0x3 ADD PUSH1 0x1 SWAP1 SLOAD SWAP1 PUSH2 0x100 EXP SWAP1 DIV PUSH1 0xFF AND PUSH1 0xFF AND SUB PUSH2 0x2592 JUMPI PUSH1 0x87 PUSH1 0x96 DUP2 GT ISZERO PUSH2 0x258B JUMPI PUSH2 0x258A PUSH2 0x35D3 JUMP JUMPDEST JUMPDEST SWAP1 POP PUSH2 0x263D JUMP JUMPDEST PUSH1 0x2 PUSH1 0xD PUSH1 0x0 DUP15 DUP2 MSTORE PUSH1 0x20 ADD SWAP1 DUP2 MSTORE PUSH1 0x20 ADD PUSH1 0x0 KECCAK256 PUSH1 0x3 ADD PUSH1 0x1 SWAP1 SLOAD SWAP1 PUSH2 0x100 EXP SWAP1 DIV PUSH1 0xFF AND PUSH1 0xFF AND SUB PUSH2 0x25DB JUMPI PUSH1 0x85 PUSH1 0x96 DUP2 GT ISZERO PUSH2 0x25D4 JUMPI PUSH2 0x25D3 PUSH2 0x35D3 JUMP JUMPDEST JUMPDEST SWAP1 POP PUSH2 0x263C JUMP JUMPDEST PUSH1 0x6 PUSH1 0xD PUSH1 0x0 DUP15 DUP2 MSTORE PUSH1 0x20 ADD SWAP1 DUP2 MSTORE PUSH1 0x20 ADD PUSH1 0x0 KECCAK256 PUSH1 0x3 ADD PUSH1 0x1 SWAP1 SLOAD SWAP1 PUSH2 0x100 EXP SWAP1 DIV PUSH1 0xFF AND PUSH1 0xFF AND SUB PUSH2 0x2624 JUMPI PUSH1 0x86 PUSH1 0x96 DUP2 GT ISZERO PUSH2 0x261D JUMPI PUSH2 0x261C PUSH2 0x35D3 JUMP JUMPDEST JUMPDEST SWAP1 POP PUSH2 0x263B JUMP JUMPDEST PUSH1 0x84 PUSH1 0x96 DUP2 GT ISZERO PUSH2 0x2638 JUMPI PUSH2 0x2637 PUSH2 0x35D3 JUMP JUMPDEST JUMPDEST SWAP1 POP JUMPDEST JUMPDEST JUMPDEST PUSH2 0x2CDE JUMP JUMPDEST PUSH1 0xA PUSH1 0xD PUSH1 0x0 DUP15 DUP2 MSTORE PUSH1 0x20 ADD SWAP1 DUP2 MSTORE PUSH1 0x20 ADD PUSH1 0x0 KECCAK256 PUSH1 0x3 ADD PUSH1 0x1 SWAP1 SLOAD SWAP1 PUSH2 0x100 EXP SWAP1 DIV PUSH1 0xFF AND PUSH1 0xFF AND SUB PUSH2 0x2769 JUMPI PUSH1 0x1 PUSH1 0xD PUSH1 0x0 DUP16 DUP2 MSTORE PUSH1 0x20 ADD SWAP1 DUP2 MSTORE PUSH1 0x20 ADD PUSH1 0x0 KECCAK256 PUSH1 0x3 ADD PUSH1 0x1 SWAP1 SLOAD SWAP1 PUSH2 0x100 EXP SWAP1 DIV PUSH1 0xFF AND PUSH1 0xFF AND SUB PUSH2 0x26B9 JUMPI PUSH1 0x87 PUSH1 0x96 DUP2 GT ISZERO PUSH2 0x26B2 JUMPI PUSH2 0x26B1 PUSH2 0x35D3 JUMP JUMPDEST JUMPDEST SWAP1 POP PUSH2 0x2764 JUMP JUMPDEST PUSH1 0x2 PUSH1 0xD PUSH1 0x0 DUP16 DUP2 MSTORE PUSH1 0x20 ADD SWAP1 DUP2 MSTORE PUSH1 0x20 ADD PUSH1 0x0 KECCAK256 PUSH1 0x3 ADD PUSH1 0x1 SWAP1 SLOAD SWAP1 PUSH2 0x100 EXP SWAP1 DIV PUSH1 0xFF AND PUSH1 0xFF AND SUB PUSH2 0x2702 JUMPI PUSH1 0x85 PUSH1 0x96 DUP2 GT ISZERO PUSH2 0x26FB JUMPI PUSH2 0x26FA PUSH2 0x35D3 JUMP JUMPDEST JUMPDEST SWAP1 POP PUSH2 0x2763 JUMP JUMPDEST PUSH1 0x6 PUSH1 0xD PUSH1 0x0 DUP16 DUP2 MSTORE PUSH1 0x20 ADD SWAP1 DUP2 MSTORE PUSH1 0x20 ADD PUSH1 0x0 KECCAK256 PUSH1 0x3 ADD PUSH1 0x1 SWAP1 SLOAD SWAP1 PUSH2 0x100 EXP SWAP1 DIV PUSH1 0xFF AND PUSH1 0xFF AND SUB PUSH2 0x274B JUMPI PUSH1 0x86 PUSH1 0x96 DUP2 GT ISZERO PUSH2 0x2744 JUMPI PUSH2 0x2743 PUSH2 0x35D3 JUMP JUMPDEST JUMPDEST SWAP1 POP PUSH2 0x2762 JUMP JUMPDEST PUSH1 0x84 PUSH1 0x96 DUP2 GT ISZERO PUSH2 0x275F JUMPI PUSH2 0x275E PUSH2 0x35D3 JUMP JUMPDEST JUMPDEST SWAP1 POP JUMPDEST JUMPDEST JUMPDEST PUSH2 0x2CDD JUMP JUMPDEST PUSH1 0xD PUSH1 0x0 DUP14 DUP2 MSTORE PUSH1 0x20 ADD SWAP1 DUP2 MSTORE PUSH1 0x20 ADD PUSH1 0x0 KECCAK256 PUSH1 0x3 ADD PUSH1 0x1 SWAP1 SLOAD SWAP1 PUSH2 0x100 EXP SWAP1 DIV PUSH1 0xFF AND PUSH1 0xFF AND PUSH1 0xD PUSH1 0x0 DUP16 DUP2 MSTORE PUSH1 0x20 ADD SWAP1 DUP2 MSTORE PUSH1 0x20 ADD PUSH1 0x0 KECCAK256 PUSH1 0x3 ADD PUSH1 0x1 SWAP1 SLOAD SWAP1 PUSH2 0x100 EXP SWAP1 DIV PUSH1 0xFF AND PUSH1 0xFF AND SUB PUSH2 0x2CC5 JUMPI PUSH1 0xD PUSH1 0x0 DUP14 DUP2 MSTORE PUSH1 0x20 ADD SWAP1 DUP2 MSTORE PUSH1 0x20 ADD PUSH1 0x0 KECCAK256 PUSH1 0x1 ADD PUSH1 0x14 SWAP1 SLOAD SWAP1 PUSH2 0x100 EXP SWAP1 DIV PUSH1 0xFF AND PUSH1 0x96 DUP2 GT ISZERO PUSH2 0x27F2 JUMPI PUSH2 0x27F1 PUSH2 0x35D3 JUMP JUMPDEST JUMPDEST PUSH1 0xD PUSH1 0x0 DUP16 DUP2 MSTORE PUSH1 0x20 ADD SWAP1 DUP2 MSTORE PUSH1 0x20 ADD PUSH1 0x0 KECCAK256 PUSH1 0x1 ADD PUSH1 0x14 SWAP1 SLOAD SWAP1 PUSH2 0x100 EXP SWAP1 DIV PUSH1 0xFF AND PUSH1 0x96 DUP2 GT ISZERO PUSH2 0x2828 JUMPI PUSH2 0x2827 PUSH2 0x35D3 JUMP JUMPDEST JUMPDEST SUB PUSH2 0x28DD JUMPI PUSH1 0xD PUSH1 0x0 DUP15 DUP2 MSTORE PUSH1 0x20 ADD SWAP1 DUP2 MSTORE PUSH1 0x20 ADD PUSH1 0x0 KECCAK256 PUSH1 0x3 ADD PUSH1 0x2 SWAP1 SLOAD SWAP1 PUSH2 0x100 EXP SWAP1 DIV PUSH1 0xFF AND ISZERO PUSH2 0x28B1 JUMPI PUSH1 0x1 PUSH1 0xD PUSH1 0x0 DUP16 DUP2 MSTORE PUSH1 0x20 ADD SWAP1 DUP2 MSTORE PUSH1 0x20 ADD PUSH1 0x0 KECCAK256 PUSH1 0x1 ADD PUSH1 0x14 SWAP1 SLOAD SWAP1 PUSH2 0x100 EXP SWAP1 DIV PUSH1 0xFF AND PUSH1 0x96 DUP2 GT ISZERO PUSH2 0x288E JUMPI PUSH2 0x288D PUSH2 0x35D3 JUMP JUMPDEST JUMPDEST PUSH2 0x2898 SWAP2 SWAP1 PUSH2 0x3DA2 JUMP JUMPDEST PUSH1 0x96 DUP2 GT ISZERO PUSH2 0x28AA JUMPI PUSH2 0x28A9 PUSH2 0x35D3 JUMP JUMPDEST JUMPDEST SWAP1 POP PUSH2 0x28D8 JUMP JUMPDEST PUSH1 0xD PUSH1 0x0 DUP15 DUP2 MSTORE PUSH1 0x20 ADD SWAP1 DUP2 MSTORE PUSH1 0x20 ADD PUSH1 0x0 KECCAK256 PUSH1 0x1 ADD PUSH1 0x14 SWAP1 SLOAD SWAP1 PUSH2 0x100 EXP SWAP1 DIV PUSH1 0xFF AND SWAP1 POP JUMPDEST PUSH2 0x2CC0 JUMP JUMPDEST PUSH1 0x0 PUSH1 0xD PUSH1 0x0 DUP16 DUP2 MSTORE PUSH1 0x20 ADD SWAP1 DUP2 MSTORE PUSH1 0x20 ADD PUSH1 0x0 KECCAK256 PUSH1 0x3 ADD PUSH1 0x1 SWAP1 SLOAD SWAP1 PUSH2 0x100 EXP SWAP1 DIV PUSH1 0xFF AND PUSH1 0xFF AND SUB PUSH2 0x294B JUMPI DUP10 PUSH2 0x2916 PUSH1 0x5 PUSH2 0xE24 JUMP JUMPDEST PUSH1 0xFF AND PUSH1 0x5 DUP2 LT PUSH2 0x292A JUMPI PUSH2 0x2929 PUSH2 0x4059 JUMP JUMPDEST JUMPDEST PUSH1 0x20 MUL ADD MLOAD PUSH1 0xFF AND PUSH1 0x96 DUP2 GT ISZERO PUSH2 0x2944 JUMPI PUSH2 0x2943 PUSH2 0x35D3 JUMP JUMPDEST JUMPDEST SWAP1 POP PUSH2 0x2CBF JUMP JUMPDEST PUSH1 0x1 PUSH1 0xD PUSH1 0x0 DUP16 DUP2 MSTORE PUSH1 0x20 ADD SWAP1 DUP2 MSTORE PUSH1 0x20 ADD PUSH1 0x0 KECCAK256 PUSH1 0x3 ADD PUSH1 0x1 SWAP1 SLOAD SWAP1 PUSH2 0x100 EXP SWAP1 DIV PUSH1 0xFF AND PUSH1 0xFF AND SUB PUSH2 0x29B9 JUMPI DUP9 PUSH2 0x2984 PUSH1 0x6 PUSH2 0xE24 JUMP JUMPDEST PUSH1 0xFF AND PUSH1 0x6 DUP2 LT PUSH2 0x2998 JUMPI PUSH2 0x2997 PUSH2 0x4059 JUMP JUMPDEST JUMPDEST PUSH1 0x20 MUL ADD MLOAD PUSH1 0xFF AND PUSH1 0x96 DUP2 GT ISZERO PUSH2 0x29B2 JUMPI PUSH2 0x29B1 PUSH2 0x35D3 JUMP JUMPDEST JUMPDEST SWAP1 POP PUSH2 0x2CBE JUMP JUMPDEST PUSH1 0x2 PUSH1 0xD PUSH1 0x0 DUP16 DUP2 MSTORE PUSH1 0x20 ADD SWAP1 DUP2 MSTORE PUSH1 0x20 ADD PUSH1 0x0 KECCAK256 PUSH1 0x3 ADD PUSH1 0x1 SWAP1 SLOAD SWAP1 PUSH2 0x100 EXP SWAP1 DIV PUSH1 0xFF AND PUSH1 0xFF AND SUB PUSH2 0x2A27 JUMPI DUP8 PUSH2 0x29F2 PUSH1 0x10 PUSH2 0xE24 JUMP JUMPDEST PUSH1 0xFF AND PUSH1 0x10 DUP2 LT PUSH2 0x2A06 JUMPI PUSH2 0x2A05 PUSH2 0x4059 JUMP JUMPDEST JUMPDEST PUSH1 0x20 MUL ADD MLOAD PUSH1 0xFF AND PUSH1 0x96 DUP2 GT ISZERO PUSH2 0x2A20 JUMPI PUSH2 0x2A1F PUSH2 0x35D3 JUMP JUMPDEST JUMPDEST SWAP1 POP PUSH2 0x2CBD JUMP JUMPDEST PUSH1 0x3 PUSH1 0xD PUSH1 0x0 DUP16 DUP2 MSTORE PUSH1 0x20 ADD SWAP1 DUP2 MSTORE PUSH1 0x20 ADD PUSH1 0x0 KECCAK256 PUSH1 0x3 ADD PUSH1 0x1 SWAP1 SLOAD SWAP1 PUSH2 0x100 EXP SWAP1 DIV PUSH1 0xFF AND PUSH1 0xFF AND SUB PUSH2 0x2A95 JUMPI DUP7 PUSH2 0x2A60 PUSH1 0x6 PUSH2 0xE24 JUMP JUMPDEST PUSH1 0xFF AND PUSH1 0x6 DUP2 LT PUSH2 0x2A74 JUMPI PUSH2 0x2A73 PUSH2 0x4059 JUMP JUMPDEST JUMPDEST PUSH1 0x20 MUL ADD MLOAD PUSH1 0xFF AND PUSH1 0x96 DUP2 GT ISZERO PUSH2 0x2A8E JUMPI PUSH2 0x2A8D PUSH2 0x35D3 JUMP JUMPDEST JUMPDEST SWAP1 POP PUSH2 0x2CBC JUMP JUMPDEST PUSH1 0x4 PUSH1 0xD PUSH1 0x0 DUP16 DUP2 MSTORE PUSH1 0x20 ADD SWAP1 DUP2 MSTORE PUSH1 0x20 ADD PUSH1 0x0 KECCAK256 PUSH1 0x3 ADD PUSH1 0x1 SWAP1 SLOAD SWAP1 PUSH2 0x100 EXP SWAP1 DIV PUSH1 0xFF AND PUSH1 0xFF AND SUB PUSH2 0x2B03 JUMPI DUP6 PUSH2 0x2ACE PUSH1 0x13 PUSH2 0xE24 JUMP JUMPDEST PUSH1 0xFF AND PUSH1 0x13 DUP2 LT PUSH2 0x2AE2 JUMPI PUSH2 0x2AE1 PUSH2 0x4059 JUMP JUMPDEST JUMPDEST PUSH1 0x20 MUL ADD MLOAD PUSH1 0xFF AND PUSH1 0x96 DUP2 GT ISZERO PUSH2 0x2AFC JUMPI PUSH2 0x2AFB PUSH2 0x35D3 JUMP JUMPDEST JUMPDEST SWAP1 POP PUSH2 0x2CBB JUMP JUMPDEST PUSH1 0x5 PUSH1 0xD PUSH1 0x0 DUP16 DUP2 MSTORE PUSH1 0x20 ADD SWAP1 DUP2 MSTORE PUSH1 0x20 ADD PUSH1 0x0 KECCAK256 PUSH1 0x3 ADD PUSH1 0x1 SWAP1 SLOAD SWAP1 PUSH2 0x100 EXP SWAP1 DIV PUSH1 0xFF AND PUSH1 0xFF AND SUB PUSH2 0x2B71 JUMPI DUP5 PUSH2 0x2B3C PUSH1 0x4 PUSH2 0xE24 JUMP JUMPDEST PUSH1 0xFF AND PUSH1 0x4 DUP2 LT PUSH2 0x2B50 JUMPI PUSH2 0x2B4F PUSH2 0x4059 JUMP JUMPDEST JUMPDEST PUSH1 0x20 MUL ADD MLOAD PUSH1 0xFF AND PUSH1 0x96 DUP2 GT ISZERO PUSH2 0x2B6A JUMPI PUSH2 0x2B69 PUSH2 0x35D3 JUMP JUMPDEST JUMPDEST SWAP1 POP PUSH2 0x2CBA JUMP JUMPDEST PUSH1 0x6 PUSH1 0xD PUSH1 0x0 DUP16 DUP2 MSTORE PUSH1 0x20 ADD SWAP1 DUP2 MSTORE PUSH1 0x20 ADD PUSH1 0x0 KECCAK256 PUSH1 0x3 ADD PUSH1 0x1 SWAP1 SLOAD SWAP1 PUSH2 0x100 EXP SWAP1 DIV PUSH1 0xFF AND PUSH1 0xFF AND SUB PUSH2 0x2BDF JUMPI DUP4 PUSH2 0x2BAA PUSH1 0x5 PUSH2 0xE24 JUMP JUMPDEST PUSH1 0xFF AND PUSH1 0x5 DUP2 LT PUSH2 0x2BBE JUMPI PUSH2 0x2BBD PUSH2 0x4059 JUMP JUMPDEST JUMPDEST PUSH1 0x20 MUL ADD MLOAD PUSH1 0xFF AND PUSH1 0x96 DUP2 GT ISZERO PUSH2 0x2BD8 JUMPI PUSH2 0x2BD7 PUSH2 0x35D3 JUMP JUMPDEST JUMPDEST SWAP1 POP PUSH2 0x2CB9 JUMP JUMPDEST PUSH1 0x7 PUSH1 0xD PUSH1 0x0 DUP16 DUP2 MSTORE PUSH1 0x20 ADD SWAP1 DUP2 MSTORE PUSH1 0x20 ADD PUSH1 0x0 KECCAK256 PUSH1 0x3 ADD PUSH1 0x1 SWAP1 SLOAD SWAP1 PUSH2 0x100 EXP SWAP1 DIV PUSH1 0xFF AND PUSH1 0xFF AND SUB PUSH2 0x2C4D JUMPI DUP3 PUSH2 0x2C18 PUSH1 0x7 PUSH2 0xE24 JUMP JUMPDEST PUSH1 0xFF AND PUSH1 0x7 DUP2 LT PUSH2 0x2C2C JUMPI PUSH2 0x2C2B PUSH2 0x4059 JUMP JUMPDEST JUMPDEST PUSH1 0x20 MUL ADD MLOAD PUSH1 0xFF AND PUSH1 0x96 DUP2 GT ISZERO PUSH2 0x2C46 JUMPI PUSH2 0x2C45 PUSH2 0x35D3 JUMP JUMPDEST JUMPDEST SWAP1 POP PUSH2 0x2CB8 JUMP JUMPDEST PUSH1 0x8 PUSH1 0xD PUSH1 0x0 DUP16 DUP2 MSTORE PUSH1 0x20 ADD SWAP1 DUP2 MSTORE PUSH1 0x20 ADD PUSH1 0x0 KECCAK256 PUSH1 0x3 ADD PUSH1 0x1 SWAP1 SLOAD SWAP1 PUSH2 0x100 EXP SWAP1 DIV PUSH1 0xFF AND PUSH1 0xFF AND SUB PUSH2 0x2CB7 JUMPI DUP2 PUSH2 0x2C86 PUSH1 0x8 PUSH2 0xE24 JUMP JUMPDEST PUSH1 0xFF AND PUSH1 0x8 DUP2 LT PUSH2 0x2C9A JUMPI PUSH2 0x2C99 PUSH2 0x4059 JUMP JUMPDEST JUMPDEST PUSH1 0x20 MUL ADD MLOAD PUSH1 0xFF AND PUSH1 0x96 DUP2 GT ISZERO PUSH2 0x2CB4 JUMPI PUSH2 0x2CB3 PUSH2 0x35D3 JUMP JUMPDEST JUMPDEST SWAP1 POP JUMPDEST JUMPDEST JUMPDEST JUMPDEST JUMPDEST JUMPDEST JUMPDEST JUMPDEST JUMPDEST JUMPDEST PUSH2 0x2CDC JUMP JUMPDEST PUSH1 0x80 PUSH1 0x96 DUP2 GT ISZERO PUSH2 0x2CD9 JUMPI PUSH2 0x2CD8 PUSH2 0x35D3 JUMP JUMPDEST JUMPDEST SWAP1 POP JUMPDEST JUMPDEST JUMPDEST JUMPDEST JUMPDEST DUP1 SWAP11 POP POP POP POP POP POP POP POP POP POP POP SWAP3 SWAP2 POP POP JUMP JUMPDEST PUSH1 0x0 PUSH1 0xD PUSH1 0x0 DUP4 DUP2 MSTORE PUSH1 0x20 ADD SWAP1 DUP2 MSTORE PUSH1 0x20 ADD PUSH1 0x0 KECCAK256 PUSH1 0x6 ADD SLOAD PUSH1 0xD PUSH1 0x0 DUP6 DUP2 MSTORE PUSH1 0x20 ADD SWAP1 DUP2 MSTORE PUSH1 0x20 ADD PUSH1 0x0 KECCAK256 PUSH1 0x5 ADD SLOAD GT PUSH2 0x2D2F JUMPI PUSH1 0x5 PUSH2 0x2D32 JUMP JUMPDEST PUSH1 0xA JUMPDEST SWAP1 POP SWAP3 SWAP2 POP POP JUMP JUMPDEST PUSH1 0x0 DUP1 PUSH1 0x0 SWAP1 SLOAD SWAP1 PUSH2 0x100 EXP SWAP1 DIV PUSH20 0xFFFFFFFFFFFFFFFFFFFFFFFFFFFFFFFFFFFFFFFF AND PUSH20 0xFFFFFFFFFFFFFFFFFFFFFFFFFFFFFFFFFFFFFFFF AND PUSH4 0x70A08231 ADDRESS PUSH1 0x40 MLOAD DUP3 PUSH4 0xFFFFFFFF AND PUSH1 0xE0 SHL DUP2 MSTORE PUSH1 0x4 ADD PUSH2 0x2D96 SWAP2 SWAP1 PUSH2 0x31BB JUMP JUMPDEST PUSH1 0x20 PUSH1 0x40 MLOAD DUP1 DUP4 SUB DUP2 DUP7 GAS STATICCALL ISZERO DUP1 ISZERO PUSH2 0x2DB3 JUMPI RETURNDATASIZE PUSH1 0x0 DUP1 RETURNDATACOPY RETURNDATASIZE PUSH1 0x0 REVERT JUMPDEST POP POP POP POP PUSH1 0x40 MLOAD RETURNDATASIZE PUSH1 0x1F NOT PUSH1 0x1F DUP3 ADD AND DUP3 ADD DUP1 PUSH1 0x40 MSTORE POP DUP2 ADD SWAP1 PUSH2 0x2DD7 SWAP2 SWAP1 PUSH2 0x3971 JUMP JUMPDEST SWAP1 POP DUP3 DUP2 GT PUSH2 0x2E1B JUMPI PUSH1 0x40 MLOAD PUSH32 0x8C379A000000000000000000000000000000000000000000000000000000000 DUP2 MSTORE PUSH1 0x4 ADD PUSH2 0x2E12 SWAP1 PUSH2 0x41C7 JUMP JUMPDEST PUSH1 0x40 MLOAD DUP1 SWAP2 SUB SWAP1 REVERT JUMPDEST PUSH1 0x0 DUP1 SLOAD SWAP1 PUSH2 0x100 EXP SWAP1 DIV PUSH20 0xFFFFFFFFFFFFFFFFFFFFFFFFFFFFFFFFFFFFFFFF AND PUSH20 0xFFFFFFFFFFFFFFFFFFFFFFFFFFFFFFFFFFFFFFFF AND PUSH4 0xA9059CBB DUP4 DUP6 PUSH1 0x40 MLOAD DUP4 PUSH4 0xFFFFFFFF AND PUSH1 0xE0 SHL DUP2 MSTORE PUSH1 0x4 ADD PUSH2 0x2E76 SWAP3 SWAP2 SWAP1 PUSH2 0x3A0A JUMP JUMPDEST PUSH1 0x20 PUSH1 0x40 MLOAD DUP1 DUP4 SUB DUP2 PUSH1 0x0 DUP8 GAS CALL ISZERO DUP1 ISZERO PUSH2 0x2E95 JUMPI RETURNDATASIZE PUSH1 0x0 DUP1 RETURNDATACOPY RETURNDATASIZE PUSH1 0x0 REVERT JUMPDEST POP POP POP POP PUSH1 0x40 MLOAD RETURNDATASIZE PUSH1 0x1F NOT PUSH1 0x1F DUP3 ADD AND DUP3 ADD DUP1 PUSH1 0x40 MSTORE POP DUP2 ADD SWAP1 PUSH2 0x2EB9 SWAP2 SWAP1 PUSH2 0x3A48 JUMP JUMPDEST POP POP POP POP JUMP JUMPDEST PUSH1 0x40 MLOAD DUP1 PUSH2 0x180 ADD PUSH1 0x40 MSTORE DUP1 PUSH1 0x0 DUP2 MSTORE PUSH1 0x20 ADD PUSH1 0x0 PUSH20 0xFFFFFFFFFFFFFFFFFFFFFFFFFFFFFFFFFFFFFFFF AND DUP2 MSTORE PUSH1 0x20 ADD PUSH1 0x0 PUSH1 0x96 DUP2 GT ISZERO PUSH2 0x2F03 JUMPI PUSH2 0x2F02 PUSH2 0x35D3 JUMP JUMPDEST JUMPDEST DUP2 MSTORE PUSH1 0x20 ADD PUSH1 0x0 DUP2 MSTORE PUSH1 0x20 ADD PUSH1 0x0 ISZERO ISZERO DUP2 MSTORE PUSH1 0x20 ADD PUSH1 0x0 PUSH1 0xFF AND DUP2 MSTORE PUSH1 0x20 ADD PUSH1 0x0 ISZERO ISZERO DUP2 MSTORE PUSH1 0x20 ADD PUSH1 0x0 DUP2 MSTORE PUSH1 0x20 ADD PUSH1 0x0 DUP2 MSTORE PUSH1 0x20 ADD PUSH1 0x0 DUP2 MSTORE PUSH1 0x20 ADD PUSH1 0x0 DUP2 MSTORE PUSH1 0x20 ADD PUSH1 0x0 PUSH20 0xFFFFFFFFFFFFFFFFFFFFFFFFFFFFFFFFFFFFFFFF AND DUP2 MSTORE POP SWAP1 JUMP JUMPDEST PUSH1 0x0 PUSH1 0x40 MLOAD SWAP1 POP SWAP1 JUMP JUMPDEST PUSH1 0x0 DUP1 REVERT JUMPDEST PUSH1 0x0 DUP1 REVERT JUMPDEST PUSH1 0x0 PUSH32 0xFFFFFFFF00000000000000000000000000000000000000000000000000000000 DUP3 AND SWAP1 POP SWAP2 SWAP1 POP JUMP JUMPDEST PUSH2 0x2FAE DUP2 PUSH2 0x2F79 JUMP JUMPDEST DUP2 EQ PUSH2 0x2FB9 JUMPI PUSH1 0x0 DUP1 REVERT JUMPDEST POP JUMP JUMPDEST PUSH1 0x0 DUP2 CALLDATALOAD SWAP1 POP PUSH2 0x2FCB DUP2 PUSH2 0x2FA5 JUMP JUMPDEST SWAP3 SWAP2 POP POP JUMP JUMPDEST PUSH1 0x0 PUSH1 0x20 DUP3 DUP5 SUB SLT ISZERO PUSH2 0x2FE7 JUMPI PUSH2 0x2FE6 PUSH2 0x2F6F JUMP JUMPDEST JUMPDEST PUSH1 0x0 PUSH2 0x2FF5 DUP5 DUP3 DUP6 ADD PUSH2 0x2FBC JUMP JUMPDEST SWAP2 POP POP SWAP3 SWAP2 POP POP JUMP JUMPDEST PUSH1 0x0 DUP2 ISZERO ISZERO SWAP1 POP SWAP2 SWAP1 POP JUMP JUMPDEST PUSH2 0x3013 DUP2 PUSH2 0x2FFE JUMP JUMPDEST DUP3 MSTORE POP POP JUMP JUMPDEST PUSH1 0x0 PUSH1 0x20 DUP3 ADD SWAP1 POP PUSH2 0x302E PUSH1 0x0 DUP4 ADD DUP5 PUSH2 0x300A JUMP JUMPDEST SWAP3 SWAP2 POP POP JUMP JUMPDEST PUSH1 0x0 DUP2 SWAP1 POP SWAP2 SWAP1 POP JUMP JUMPDEST PUSH2 0x3047 DUP2 PUSH2 0x3034 JUMP JUMPDEST DUP2 EQ PUSH2 0x3052 JUMPI PUSH1 0x0 DUP1 REVERT JUMPDEST POP JUMP JUMPDEST PUSH1 0x0 DUP2 CALLDATALOAD SWAP1 POP PUSH2 0x3064 DUP2 PUSH2 0x303E JUMP JUMPDEST SWAP3 SWAP2 POP POP JUMP JUMPDEST PUSH1 0x0 PUSH20 0xFFFFFFFFFFFFFFFFFFFFFFFFFFFFFFFFFFFFFFFF DUP3 AND SWAP1 POP SWAP2 SWAP1 POP JUMP JUMPDEST PUSH1 0x0 PUSH2 0x3095 DUP3 PUSH2 0x306A JUMP JUMPDEST SWAP1 POP SWAP2 SWAP1 POP JUMP JUMPDEST PUSH2 0x30A5 DUP2 PUSH2 0x308A JUMP JUMPDEST DUP2 EQ PUSH2 0x30B0 JUMPI PUSH1 0x0 DUP1 REVERT JUMPDEST POP JUMP JUMPDEST PUSH1 0x0 DUP2 CALLDATALOAD SWAP1 POP PUSH2 0x30C2 DUP2 PUSH2 0x309C JUMP JUMPDEST SWAP3 SWAP2 POP POP JUMP JUMPDEST PUSH1 0x0 DUP1 PUSH1 0x40 DUP4 DUP6 SUB SLT ISZERO PUSH2 0x30DF JUMPI PUSH2 0x30DE PUSH2 0x2F6F JUMP JUMPDEST JUMPDEST PUSH1 0x0 PUSH2 0x30ED DUP6 DUP3 DUP7 ADD PUSH2 0x3055 JUMP JUMPDEST SWAP3 POP POP PUSH1 0x20 PUSH2 0x30FE DUP6 DUP3 DUP7 ADD PUSH2 0x30B3 JUMP JUMPDEST SWAP2 POP POP SWAP3 POP SWAP3 SWAP1 POP JUMP JUMPDEST PUSH1 0x0 PUSH1 0x20 DUP3 DUP5 SUB SLT ISZERO PUSH2 0x311E JUMPI PUSH2 0x311D PUSH2 0x2F6F JUMP JUMPDEST JUMPDEST PUSH1 0x0 PUSH2 0x312C DUP5 DUP3 DUP6 ADD PUSH2 0x3055 JUMP JUMPDEST SWAP2 POP POP SWAP3 SWAP2 POP POP JUMP JUMPDEST PUSH1 0x0 DUP1 PUSH1 0x40 DUP4 DUP6 SUB SLT ISZERO PUSH2 0x314C JUMPI PUSH2 0x314B PUSH2 0x2F6F JUMP JUMPDEST JUMPDEST PUSH1 0x0 PUSH2 0x315A DUP6 DUP3 DUP7 ADD PUSH2 0x3055 JUMP JUMPDEST SWAP3 POP POP PUSH1 0x20 PUSH2 0x316B DUP6 DUP3 DUP7 ADD PUSH2 0x3055 JUMP JUMPDEST SWAP2 POP POP SWAP3 POP SWAP3 SWAP1 POP JUMP JUMPDEST PUSH1 0x0 PUSH1 0xFF DUP3 AND SWAP1 POP SWAP2 SWAP1 POP JUMP JUMPDEST PUSH2 0x318B DUP2 PUSH2 0x3175 JUMP JUMPDEST DUP3 MSTORE POP POP JUMP JUMPDEST PUSH1 0x0 PUSH1 0x20 DUP3 ADD SWAP1 POP PUSH2 0x31A6 PUSH1 0x0 DUP4 ADD DUP5 PUSH2 0x3182 JUMP JUMPDEST SWAP3 SWAP2 POP POP JUMP JUMPDEST PUSH2 0x31B5 DUP2 PUSH2 0x308A JUMP JUMPDEST DUP3 MSTORE POP POP JUMP JUMPDEST PUSH1 0x0 PUSH1 0x20 DUP3 ADD SWAP1 POP PUSH2 0x31D0 PUSH1 0x0 DUP4 ADD DUP5 PUSH2 0x31AC JUMP JUMPDEST SWAP3 SWAP2 POP POP JUMP JUMPDEST PUSH2 0x31DF DUP2 PUSH2 0x3034 JUMP JUMPDEST DUP3 MSTORE POP POP JUMP JUMPDEST PUSH1 0x0 PUSH1 0x20 DUP3 ADD SWAP1 POP PUSH2 0x31FA PUSH1 0x0 DUP4 ADD DUP5 PUSH2 0x31D6 JUMP JUMPDEST SWAP3 SWAP2 POP POP JUMP JUMPDEST PUSH2 0x3209 DUP2 PUSH2 0x3175 JUMP JUMPDEST DUP2 EQ PUSH2 0x3214 JUMPI PUSH1 0x0 DUP1 REVERT JUMPDEST POP JUMP JUMPDEST PUSH1 0x0 DUP2 CALLDATALOAD SWAP1 POP PUSH2 0x3226 DUP2 PUSH2 0x3200 JUMP JUMPDEST SWAP3 SWAP2 POP POP JUMP JUMPDEST PUSH2 0x3235 DUP2 PUSH2 0x2FFE JUMP JUMPDEST DUP2 EQ PUSH2 0x3240 JUMPI PUSH1 0x0 DUP1 REVERT JUMPDEST POP JUMP JUMPDEST PUSH1 0x0 DUP2 CALLDATALOAD SWAP1 POP PUSH2 0x3252 DUP2 PUSH2 0x322C JUMP JUMPDEST SWAP3 SWAP2 POP POP JUMP JUMPDEST PUSH1 0x0 DUP1 PUSH1 0x0 PUSH1 0x60 DUP5 DUP7 SUB SLT ISZERO PUSH2 0x3271 JUMPI PUSH2 0x3270 PUSH2 0x2F6F JUMP JUMPDEST JUMPDEST PUSH1 0x0 PUSH2 0x327F DUP7 DUP3 DUP8 ADD PUSH2 0x3217 JUMP JUMPDEST SWAP4 POP POP PUSH1 0x20 PUSH2 0x3290 DUP7 DUP3 DUP8 ADD PUSH2 0x3055 JUMP JUMPDEST SWAP3 POP POP PUSH1 0x40 PUSH2 0x32A1 DUP7 DUP3 DUP8 ADD PUSH2 0x3243 JUMP JUMPDEST SWAP2 POP POP SWAP3 POP SWAP3 POP SWAP3 JUMP JUMPDEST PUSH1 0x0 DUP1 REVERT JUMPDEST PUSH1 0x0 PUSH1 0x1F NOT PUSH1 0x1F DUP4 ADD AND SWAP1 POP SWAP2 SWAP1 POP JUMP JUMPDEST PUSH32 0x4E487B7100000000000000000000000000000000000000000000000000000000 PUSH1 0x0 MSTORE PUSH1 0x41 PUSH1 0x4 MSTORE PUSH1 0x24 PUSH1 0x0 REVERT JUMPDEST PUSH2 0x32F9 DUP3 PUSH2 0x32B0 JUMP JUMPDEST DUP2 ADD DUP2 DUP2 LT PUSH8 0xFFFFFFFFFFFFFFFF DUP3 GT OR ISZERO PUSH2 0x3318 JUMPI PUSH2 0x3317 PUSH2 0x32C1 JUMP JUMPDEST JUMPDEST DUP1 PUSH1 0x40 MSTORE POP POP POP JUMP JUMPDEST PUSH1 0x0 PUSH2 0x332B PUSH2 0x2F65 JUMP JUMPDEST SWAP1 POP PUSH2 0x3337 DUP3 DUP3 PUSH2 0x32F0 JUMP JUMPDEST SWAP2 SWAP1 POP JUMP JUMPDEST PUSH1 0x0 PUSH8 0xFFFFFFFFFFFFFFFF DUP3 GT ISZERO PUSH2 0x3357 JUMPI PUSH2 0x3356 PUSH2 0x32C1 JUMP JUMPDEST JUMPDEST PUSH1 0x20 DUP3 MUL SWAP1 POP PUSH1 0x20 DUP2 ADD SWAP1 POP SWAP2 SWAP1 POP JUMP JUMPDEST PUSH1 0x0 DUP1 REVERT JUMPDEST PUSH1 0x0 PUSH2 0x3380 PUSH2 0x337B DUP5 PUSH2 0x333C JUMP JUMPDEST PUSH2 0x3321 JUMP JUMPDEST SWAP1 POP DUP1 DUP4 DUP3 MSTORE PUSH1 0x20 DUP3 ADD SWAP1 POP PUSH1 0x20 DUP5 MUL DUP4 ADD DUP6 DUP2 GT ISZERO PUSH2 0x33A3 JUMPI PUSH2 0x33A2 PUSH2 0x3368 JUMP JUMPDEST JUMPDEST DUP4 JUMPDEST DUP2 DUP2 LT ISZERO PUSH2 0x33CC JUMPI DUP1 PUSH2 0x33B8 DUP9 DUP3 PUSH2 0x3055 JUMP JUMPDEST DUP5 MSTORE PUSH1 0x20 DUP5 ADD SWAP4 POP POP PUSH1 0x20 DUP2 ADD SWAP1 POP PUSH2 0x33A5 JUMP JUMPDEST POP POP POP SWAP4 SWAP3 POP POP POP JUMP JUMPDEST PUSH1 0x0 DUP3 PUSH1 0x1F DUP4 ADD SLT PUSH2 0x33EB JUMPI PUSH2 0x33EA PUSH2 0x32AB JUMP JUMPDEST JUMPDEST DUP2 CALLDATALOAD PUSH2 0x33FB DUP5 DUP3 PUSH1 0x20 DUP7 ADD PUSH2 0x336D JUMP JUMPDEST SWAP2 POP POP SWAP3 SWAP2 POP POP JUMP JUMPDEST PUSH1 0x0 DUP1 REVERT JUMPDEST PUSH1 0x0 PUSH8 0xFFFFFFFFFFFFFFFF DUP3 GT ISZERO PUSH2 0x3424 JUMPI PUSH2 0x3423 PUSH2 0x32C1 JUMP JUMPDEST JUMPDEST PUSH2 0x342D DUP3 PUSH2 0x32B0 JUMP JUMPDEST SWAP1 POP PUSH1 0x20 DUP2 ADD SWAP1 POP SWAP2 SWAP1 POP JUMP JUMPDEST DUP3 DUP2 DUP4 CALLDATACOPY PUSH1 0x0 DUP4 DUP4 ADD MSTORE POP POP POP JUMP JUMPDEST PUSH1 0x0 PUSH2 0x345C PUSH2 0x3457 DUP5 PUSH2 0x3409 JUMP JUMPDEST PUSH2 0x3321 JUMP JUMPDEST SWAP1 POP DUP3 DUP2 MSTORE PUSH1 0x20 DUP2 ADD DUP5 DUP5 DUP5 ADD GT ISZERO PUSH2 0x3478 JUMPI PUSH2 0x3477 PUSH2 0x3404 JUMP JUMPDEST JUMPDEST PUSH2 0x3483 DUP5 DUP3 DUP6 PUSH2 0x343A JUMP JUMPDEST POP SWAP4 SWAP3 POP POP POP JUMP JUMPDEST PUSH1 0x0 DUP3 PUSH1 0x1F DUP4 ADD SLT PUSH2 0x34A0 JUMPI PUSH2 0x349F PUSH2 0x32AB JUMP JUMPDEST JUMPDEST DUP2 CALLDATALOAD PUSH2 0x34B0 DUP5 DUP3 PUSH1 0x20 DUP7 ADD PUSH2 0x3449 JUMP JUMPDEST SWAP2 POP POP SWAP3 SWAP2 POP POP JUMP JUMPDEST PUSH1 0x0 DUP1 PUSH1 0x0 DUP1 PUSH1 0x0 PUSH1 0xA0 DUP7 DUP9 SUB SLT ISZERO PUSH2 0x34D5 JUMPI PUSH2 0x34D4 PUSH2 0x2F6F JUMP JUMPDEST JUMPDEST PUSH1 0x0 PUSH2 0x34E3 DUP9 DUP3 DUP10 ADD PUSH2 0x30B3 JUMP JUMPDEST SWAP6 POP POP PUSH1 0x20 PUSH2 0x34F4 DUP9 DUP3 DUP10 ADD PUSH2 0x30B3 JUMP JUMPDEST SWAP5 POP POP PUSH1 0x40 DUP7 ADD CALLDATALOAD PUSH8 0xFFFFFFFFFFFFFFFF DUP2 GT ISZERO PUSH2 0x3515 JUMPI PUSH2 0x3514 PUSH2 0x2F74 JUMP JUMPDEST JUMPDEST PUSH2 0x3521 DUP9 DUP3 DUP10 ADD PUSH2 0x33D6 JUMP JUMPDEST SWAP4 POP POP PUSH1 0x60 DUP7 ADD CALLDATALOAD PUSH8 0xFFFFFFFFFFFFFFFF DUP2 GT ISZERO PUSH2 0x3542 JUMPI PUSH2 0x3541 PUSH2 0x2F74 JUMP JUMPDEST JUMPDEST PUSH2 0x354E DUP9 DUP3 DUP10 ADD PUSH2 0x33D6 JUMP JUMPDEST SWAP3 POP POP PUSH1 0x80 DUP7 ADD CALLDATALOAD PUSH8 0xFFFFFFFFFFFFFFFF DUP2 GT ISZERO PUSH2 0x356F JUMPI PUSH2 0x356E PUSH2 0x2F74 JUMP JUMPDEST JUMPDEST PUSH2 0x357B DUP9 DUP3 DUP10 ADD PUSH2 0x348B JUMP JUMPDEST SWAP2 POP POP SWAP3 SWAP6 POP SWAP3 SWAP6 SWAP1 SWAP4 POP JUMP JUMPDEST PUSH2 0x3591 DUP2 PUSH2 0x2F79 JUMP JUMPDEST DUP3 MSTORE POP POP JUMP JUMPDEST PUSH1 0x0 PUSH1 0x20 DUP3 ADD SWAP1 POP PUSH2 0x35AC PUSH1 0x0 DUP4 ADD DUP5 PUSH2 0x3588 JUMP JUMPDEST SWAP3 SWAP2 POP POP JUMP JUMPDEST PUSH1 0x0 PUSH2 0x35BD DUP3 PUSH2 0x306A JUMP JUMPDEST SWAP1 POP SWAP2 SWAP1 POP JUMP JUMPDEST PUSH2 0x35CD DUP2 PUSH2 0x35B2 JUMP JUMPDEST DUP3 MSTORE POP POP JUMP JUMPDEST PUSH32 0x4E487B7100000000000000000000000000000000000000000000000000000000 PUSH1 0x0 MSTORE PUSH1 0x21 PUSH1 0x4 MSTORE PUSH1 0x24 PUSH1 0x0 REVERT JUMPDEST PUSH1 0x97 DUP2 LT PUSH2 0x3613 JUMPI PUSH2 0x3612 PUSH2 0x35D3 JUMP JUMPDEST JUMPDEST POP JUMP JUMPDEST PUSH1 0x0 DUP2 SWAP1 POP PUSH2 0x3624 DUP3 PUSH2 0x3602 JUMP JUMPDEST SWAP2 SWAP1 POP JUMP JUMPDEST PUSH1 0x0 PUSH2 0x3634 DUP3 PUSH2 0x3616 JUMP JUMPDEST SWAP1 POP SWAP2 SWAP1 POP JUMP JUMPDEST PUSH2 0x3644 DUP2 PUSH2 0x3629 JUMP JUMPDEST DUP3 MSTORE POP POP JUMP JUMPDEST PUSH1 0x0 PUSH2 0x180 DUP3 ADD SWAP1 POP PUSH2 0x3660 PUSH1 0x0 DUP4 ADD DUP16 PUSH2 0x31D6 JUMP JUMPDEST PUSH2 0x366D PUSH1 0x20 DUP4 ADD DUP15 PUSH2 0x35C4 JUMP JUMPDEST PUSH2 0x367A PUSH1 0x40 DUP4 ADD DUP14 PUSH2 0x363B JUMP JUMPDEST PUSH2 0x3687 PUSH1 0x60 DUP4 ADD DUP13 PUSH2 0x31D6 JUMP JUMPDEST PUSH2 0x3694 PUSH1 0x80 DUP4 ADD DUP12 PUSH2 0x300A JUMP JUMPDEST PUSH2 0x36A1 PUSH1 0xA0 DUP4 ADD DUP11 PUSH2 0x3182 JUMP JUMPDEST PUSH2 0x36AE PUSH1 0xC0 DUP4 ADD DUP10 PUSH2 0x300A JUMP JUMPDEST PUSH2 0x36BB PUSH1 0xE0 DUP4 ADD DUP9 PUSH2 0x31D6 JUMP JUMPDEST PUSH2 0x36C9 PUSH2 0x100 DUP4 ADD DUP8 PUSH2 0x31D6 JUMP JUMPDEST PUSH2 0x36D7 PUSH2 0x120 DUP4 ADD DUP7 PUSH2 0x31D6 JUMP JUMPDEST PUSH2 0x36E5 PUSH2 0x140 DUP4 ADD DUP6 PUSH2 0x31D6 JUMP JUMPDEST PUSH2 0x36F3 PUSH2 0x160 DUP4 ADD DUP5 PUSH2 0x31AC JUMP JUMPDEST SWAP14 SWAP13 POP POP POP POP POP POP POP POP POP POP POP POP POP JUMP JUMPDEST PUSH1 0x0 DUP1 PUSH1 0x0 DUP1 PUSH1 0x0 PUSH1 0xA0 DUP7 DUP9 SUB SLT ISZERO PUSH2 0x3720 JUMPI PUSH2 0x371F PUSH2 0x2F6F JUMP JUMPDEST JUMPDEST PUSH1 0x0 PUSH2 0x372E DUP9 DUP3 DUP10 ADD PUSH2 0x30B3 JUMP JUMPDEST SWAP6 POP POP PUSH1 0x20 PUSH2 0x373F DUP9 DUP3 DUP10 ADD PUSH2 0x30B3 JUMP JUMPDEST SWAP5 POP POP PUSH1 0x40 PUSH2 0x3750 DUP9 DUP3 DUP10 ADD PUSH2 0x3055 JUMP JUMPDEST SWAP4 POP POP PUSH1 0x60 PUSH2 0x3761 DUP9 DUP3 DUP10 ADD PUSH2 0x3055 JUMP JUMPDEST SWAP3 POP POP PUSH1 0x80 DUP7 ADD CALLDATALOAD PUSH8 0xFFFFFFFFFFFFFFFF DUP2 GT ISZERO PUSH2 0x3782 JUMPI PUSH2 0x3781 PUSH2 0x2F74 JUMP JUMPDEST JUMPDEST PUSH2 0x378E DUP9 DUP3 DUP10 ADD PUSH2 0x348B JUMP JUMPDEST SWAP2 POP POP SWAP3 SWAP6 POP SWAP3 SWAP6 SWAP1 SWAP4 POP JUMP JUMPDEST PUSH1 0x0 DUP3 DUP3 MSTORE PUSH1 0x20 DUP3 ADD SWAP1 POP SWAP3 SWAP2 POP POP JUMP JUMPDEST PUSH32 0x6E6F74206F776E65722E2063616E27742073746172742073686172696E670000 PUSH1 0x0 DUP3 ADD MSTORE POP JUMP JUMPDEST PUSH1 0x0 PUSH2 0x37E2 PUSH1 0x1E DUP4 PUSH2 0x379B JUMP JUMPDEST SWAP2 POP PUSH2 0x37ED DUP3 PUSH2 0x37AC JUMP JUMPDEST PUSH1 0x20 DUP3 ADD SWAP1 POP SWAP2 SWAP1 POP JUMP JUMPDEST PUSH1 0x0 PUSH1 0x20 DUP3 ADD SWAP1 POP DUP2 DUP2 SUB PUSH1 0x0 DUP4 ADD MSTORE PUSH2 0x3811 DUP2 PUSH2 0x37D5 JUMP JUMPDEST SWAP1 POP SWAP2 SWAP1 POP JUMP JUMPDEST PUSH32 0x6E6F20656E6F75677468206D6F6E657900000000000000000000000000000000 PUSH1 0x0 DUP3 ADD MSTORE POP JUMP JUMPDEST PUSH1 0x0 PUSH2 0x384E PUSH1 0x10 DUP4 PUSH2 0x379B JUMP JUMPDEST SWAP2 POP PUSH2 0x3859 DUP3 PUSH2 0x3818 JUMP JUMPDEST PUSH1 0x20 DUP3 ADD SWAP1 POP SWAP2 SWAP1 POP JUMP JUMPDEST PUSH1 0x0 PUSH1 0x20 DUP3 ADD SWAP1 POP DUP2 DUP2 SUB PUSH1 0x0 DUP4 ADD MSTORE PUSH2 0x387D DUP2 PUSH2 0x3841 JUMP JUMPDEST SWAP1 POP SWAP2 SWAP1 POP JUMP JUMPDEST PUSH32 0x6E6F20696E2073656C6C00000000000000000000000000000000000000000000 PUSH1 0x0 DUP3 ADD MSTORE POP JUMP JUMPDEST PUSH1 0x0 PUSH2 0x38BA PUSH1 0xA DUP4 PUSH2 0x379B JUMP JUMPDEST SWAP2 POP PUSH2 0x38C5 DUP3 PUSH2 0x3884 JUMP JUMPDEST PUSH1 0x20 DUP3 ADD SWAP1 POP SWAP2 SWAP1 POP JUMP JUMPDEST PUSH1 0x0 PUSH1 0x20 DUP3 ADD SWAP1 POP DUP2 DUP2 SUB PUSH1 0x0 DUP4 ADD MSTORE PUSH2 0x38E9 DUP2 PUSH2 0x38AD JUMP JUMPDEST SWAP1 POP SWAP2 SWAP1 POP JUMP JUMPDEST PUSH32 0x6E6F74206F776E65722100000000000000000000000000000000000000000000 PUSH1 0x0 DUP3 ADD MSTORE POP JUMP JUMPDEST PUSH1 0x0 PUSH2 0x3926 PUSH1 0xA DUP4 PUSH2 0x379B JUMP JUMPDEST SWAP2 POP PUSH2 0x3931 DUP3 PUSH2 0x38F0 JUMP JUMPDEST PUSH1 0x20 DUP3 ADD SWAP1 POP SWAP2 SWAP1 POP JUMP JUMPDEST PUSH1 0x0 PUSH1 0x20 DUP3 ADD SWAP1 POP DUP2 DUP2 SUB PUSH1 0x0 DUP4 ADD MSTORE PUSH2 0x3955 DUP2 PUSH2 0x3919 JUMP JUMPDEST SWAP1 POP SWAP2 SWAP1 POP JUMP JUMPDEST PUSH1 0x0 DUP2 MLOAD SWAP1 POP PUSH2 0x396B DUP2 PUSH2 0x303E JUMP JUMPDEST SWAP3 SWAP2 POP POP JUMP JUMPDEST PUSH1 0x0 PUSH1 0x20 DUP3 DUP5 SUB SLT ISZERO PUSH2 0x3987 JUMPI PUSH2 0x3986 PUSH2 0x2F6F JUMP JUMPDEST JUMPDEST PUSH1 0x0 PUSH2 0x3995 DUP5 DUP3 DUP6 ADD PUSH2 0x395C JUMP JUMPDEST SWAP2 POP POP SWAP3 SWAP2 POP POP JUMP JUMPDEST PUSH32 0x4E6F7420656E6F75676820746F6B656E7320696E207468652072657365727665 PUSH1 0x0 DUP3 ADD MSTORE POP JUMP JUMPDEST PUSH1 0x0 PUSH2 0x39D4 PUSH1 0x20 DUP4 PUSH2 0x379B JUMP JUMPDEST SWAP2 POP PUSH2 0x39DF DUP3 PUSH2 0x399E JUMP JUMPDEST PUSH1 0x20 DUP3 ADD SWAP1 POP SWAP2 SWAP1 POP JUMP JUMPDEST PUSH1 0x0 PUSH1 0x20 DUP3 ADD SWAP1 POP DUP2 DUP2 SUB PUSH1 0x0 DUP4 ADD MSTORE PUSH2 0x3A03 DUP2 PUSH2 0x39C7 JUMP JUMPDEST SWAP1 POP SWAP2 SWAP1 POP JUMP JUMPDEST PUSH1 0x0 PUSH1 0x40 DUP3 ADD SWAP1 POP PUSH2 0x3A1F PUSH1 0x0 DUP4 ADD DUP6 PUSH2 0x31AC JUMP JUMPDEST PUSH2 0x3A2C PUSH1 0x20 DUP4 ADD DUP5 PUSH2 0x31D6 JUMP JUMPDEST SWAP4 SWAP3 POP POP POP JUMP JUMPDEST PUSH1 0x0 DUP2 MLOAD SWAP1 POP PUSH2 0x3A42 DUP2 PUSH2 0x322C JUMP JUMPDEST SWAP3 SWAP2 POP POP JUMP JUMPDEST PUSH1 0x0 PUSH1 0x20 DUP3 DUP5 SUB SLT ISZERO PUSH2 0x3A5E JUMPI PUSH2 0x3A5D PUSH2 0x2F6F JUMP JUMPDEST JUMPDEST PUSH1 0x0 PUSH2 0x3A6C DUP5 DUP3 DUP6 ADD PUSH2 0x3A33 JUMP JUMPDEST SWAP2 POP POP SWAP3 SWAP2 POP POP JUMP JUMPDEST PUSH32 0x6D6F6E7374657220626967657220746865206D61780000000000000000000000 PUSH1 0x0 DUP3 ADD MSTORE POP JUMP JUMPDEST PUSH1 0x0 PUSH2 0x3AAB PUSH1 0x15 DUP4 PUSH2 0x379B JUMP JUMPDEST SWAP2 POP PUSH2 0x3AB6 DUP3 PUSH2 0x3A75 JUMP JUMPDEST PUSH1 0x20 DUP3 ADD SWAP1 POP SWAP2 SWAP1 POP JUMP JUMPDEST PUSH1 0x0 PUSH1 0x20 DUP3 ADD SWAP1 POP DUP2 DUP2 SUB PUSH1 0x0 DUP4 ADD MSTORE PUSH2 0x3ADA DUP2 PUSH2 0x3A9E JUMP JUMPDEST SWAP1 POP SWAP2 SWAP1 POP JUMP JUMPDEST PUSH32 0x6E6F74206F776E65720000000000000000000000000000000000000000000000 PUSH1 0x0 DUP3 ADD MSTORE POP JUMP JUMPDEST PUSH1 0x0 PUSH2 0x3B17 PUSH1 0x9 DUP4 PUSH2 0x379B JUMP JUMPDEST SWAP2 POP PUSH2 0x3B22 DUP3 PUSH2 0x3AE1 JUMP JUMPDEST PUSH1 0x20 DUP3 ADD SWAP1 POP SWAP2 SWAP1 POP JUMP JUMPDEST PUSH1 0x0 PUSH1 0x20 DUP3 ADD SWAP1 POP DUP2 DUP2 SUB PUSH1 0x0 DUP4 ADD MSTORE PUSH2 0x3B46 DUP2 PUSH2 0x3B0A JUMP JUMPDEST SWAP1 POP SWAP2 SWAP1 POP JUMP JUMPDEST PUSH1 0x0 DUP2 SWAP1 POP SWAP2 SWAP1 POP JUMP JUMPDEST PUSH2 0x3B68 PUSH2 0x3B63 DUP3 PUSH2 0x3034 JUMP JUMPDEST PUSH2 0x3B4D JUMP JUMPDEST DUP3 MSTORE POP POP JUMP JUMPDEST PUSH1 0x0 DUP2 PUSH1 0x60 SHL SWAP1 POP SWAP2 SWAP1 POP JUMP JUMPDEST PUSH1 0x0 PUSH2 0x3B86 DUP3 PUSH2 0x3B6E JUMP JUMPDEST SWAP1 POP SWAP2 SWAP1 POP JUMP JUMPDEST PUSH1 0x0 PUSH2 0x3B98 DUP3 PUSH2 0x3B7B JUMP JUMPDEST SWAP1 POP SWAP2 SWAP1 POP JUMP JUMPDEST PUSH2 0x3BB0 PUSH2 0x3BAB DUP3 PUSH2 0x308A JUMP JUMPDEST PUSH2 0x3B8D JUMP JUMPDEST DUP3 MSTORE POP POP JUMP JUMPDEST PUSH1 0x0 PUSH2 0x3BC2 DUP3 DUP7 PUSH2 0x3B57 JUMP JUMPDEST PUSH1 0x20 DUP3 ADD SWAP2 POP PUSH2 0x3BD2 DUP3 DUP6 PUSH2 0x3B9F JUMP JUMPDEST PUSH1 0x14 DUP3 ADD SWAP2 POP PUSH2 0x3BE2 DUP3 DUP5 PUSH2 0x3B57 JUMP JUMPDEST PUSH1 0x20 DUP3 ADD SWAP2 POP DUP2 SWAP1 POP SWAP5 SWAP4 POP POP POP POP JUMP JUMPDEST PUSH32 0x4E487B7100000000000000000000000000000000000000000000000000000000 PUSH1 0x0 MSTORE PUSH1 0x12 PUSH1 0x4 MSTORE PUSH1 0x24 PUSH1 0x0 REVERT JUMPDEST PUSH1 0x0 PUSH2 0x3C2D DUP3 PUSH2 0x3034 JUMP JUMPDEST SWAP2 POP PUSH2 0x3C38 DUP4 PUSH2 0x3034 JUMP JUMPDEST SWAP3 POP DUP3 PUSH2 0x3C48 JUMPI PUSH2 0x3C47 PUSH2 0x3BF3 JUMP JUMPDEST JUMPDEST DUP3 DUP3 MOD SWAP1 POP SWAP3 SWAP2 POP POP JUMP JUMPDEST PUSH32 0x4E487B7100000000000000000000000000000000000000000000000000000000 PUSH1 0x0 MSTORE PUSH1 0x11 PUSH1 0x4 MSTORE PUSH1 0x24 PUSH1 0x0 REVERT JUMPDEST PUSH1 0x0 PUSH2 0x3C8D DUP3 PUSH2 0x3034 JUMP JUMPDEST SWAP2 POP PUSH32 0xFFFFFFFFFFFFFFFFFFFFFFFFFFFFFFFFFFFFFFFFFFFFFFFFFFFFFFFFFFFFFFFF DUP3 SUB PUSH2 0x3CBF JUMPI PUSH2 0x3CBE PUSH2 0x3C53 JUMP JUMPDEST JUMPDEST PUSH1 0x1 DUP3 ADD SWAP1 POP SWAP2 SWAP1 POP JUMP JUMPDEST PUSH32 0x6E6F742073616C65000000000000000000000000000000000000000000000000 PUSH1 0x0 DUP3 ADD MSTORE POP JUMP JUMPDEST PUSH1 0x0 PUSH2 0x3D00 PUSH1 0x8 DUP4 PUSH2 0x379B JUMP JUMPDEST SWAP2 POP PUSH2 0x3D0B DUP3 PUSH2 0x3CCA JUMP JUMPDEST PUSH1 0x20 DUP3 ADD SWAP1 POP SWAP2 SWAP1 POP JUMP JUMPDEST PUSH1 0x0 PUSH1 0x20 DUP3 ADD SWAP1 POP DUP2 DUP2 SUB PUSH1 0x0 DUP4 ADD MSTORE PUSH2 0x3D2F DUP2 PUSH2 0x3CF3 JUMP JUMPDEST SWAP1 POP SWAP2 SWAP1 POP JUMP JUMPDEST PUSH32 0x6E6F206D6F6E73746572206F776E657200000000000000000000000000000000 PUSH1 0x0 DUP3 ADD MSTORE POP JUMP JUMPDEST PUSH1 0x0 PUSH2 0x3D6C PUSH1 0x10 DUP4 PUSH2 0x379B JUMP JUMPDEST SWAP2 POP PUSH2 0x3D77 DUP3 PUSH2 0x3D36 JUMP JUMPDEST PUSH1 0x20 DUP3 ADD SWAP1 POP SWAP2 SWAP1 POP JUMP JUMPDEST PUSH1 0x0 PUSH1 0x20 DUP3 ADD SWAP1 POP DUP2 DUP2 SUB PUSH1 0x0 DUP4 ADD MSTORE PUSH2 0x3D9B DUP2 PUSH2 0x3D5F JUMP JUMPDEST SWAP1 POP SWAP2 SWAP1 POP JUMP JUMPDEST PUSH1 0x0 PUSH2 0x3DAD DUP3 PUSH2 0x3034 JUMP JUMPDEST SWAP2 POP PUSH2 0x3DB8 DUP4 PUSH2 0x3034 JUMP JUMPDEST SWAP3 POP DUP3 DUP3 ADD SWAP1 POP DUP1 DUP3 GT ISZERO PUSH2 0x3DD0 JUMPI PUSH2 0x3DCF PUSH2 0x3C53 JUMP JUMPDEST JUMPDEST SWAP3 SWAP2 POP POP JUMP JUMPDEST PUSH1 0x0 PUSH1 0x60 DUP3 ADD SWAP1 POP PUSH2 0x3DEB PUSH1 0x0 DUP4 ADD DUP7 PUSH2 0x31AC JUMP JUMPDEST PUSH2 0x3DF8 PUSH1 0x20 DUP4 ADD DUP6 PUSH2 0x31AC JUMP JUMPDEST PUSH2 0x3E05 PUSH1 0x40 DUP4 ADD DUP5 PUSH2 0x31D6 JUMP JUMPDEST SWAP5 SWAP4 POP POP POP POP JUMP JUMPDEST PUSH32 0x69732073616C6500000000000000000000000000000000000000000000000000 PUSH1 0x0 DUP3 ADD MSTORE POP JUMP JUMPDEST PUSH1 0x0 PUSH2 0x3E43 PUSH1 0x7 DUP4 PUSH2 0x379B JUMP JUMPDEST SWAP2 POP PUSH2 0x3E4E DUP3 PUSH2 0x3E0D JUMP JUMPDEST PUSH1 0x20 DUP3 ADD SWAP1 POP SWAP2 SWAP1 POP JUMP JUMPDEST PUSH1 0x0 PUSH1 0x20 DUP3 ADD SWAP1 POP DUP2 DUP2 SUB PUSH1 0x0 DUP4 ADD MSTORE PUSH2 0x3E72 DUP2 PUSH2 0x3E36 JUMP JUMPDEST SWAP1 POP SWAP2 SWAP1 POP JUMP JUMPDEST PUSH32 0x6E6F74206F776E65722E2063616E27742073746F702073686172696E67000000 PUSH1 0x0 DUP3 ADD MSTORE POP JUMP JUMPDEST PUSH1 0x0 PUSH2 0x3EAF PUSH1 0x1D DUP4 PUSH2 0x379B JUMP JUMPDEST SWAP2 POP PUSH2 0x3EBA DUP3 PUSH2 0x3E79 JUMP JUMPDEST PUSH1 0x20 DUP3 ADD SWAP1 POP SWAP2 SWAP1 POP JUMP JUMPDEST PUSH1 0x0 PUSH1 0x20 DUP3 ADD SWAP1 POP DUP2 DUP2 SUB PUSH1 0x0 DUP4 ADD MSTORE PUSH2 0x3EDE DUP2 PUSH2 0x3EA2 JUMP JUMPDEST SWAP1 POP SWAP2 SWAP1 POP JUMP JUMPDEST PUSH1 0x0 PUSH2 0x3EF0 DUP3 PUSH2 0x3034 JUMP JUMPDEST SWAP2 POP PUSH2 0x3EFB DUP4 PUSH2 0x3034 JUMP JUMPDEST SWAP3 POP DUP3 DUP3 MUL PUSH2 0x3F09 DUP2 PUSH2 0x3034 JUMP JUMPDEST SWAP2 POP DUP3 DUP3 DIV DUP5 EQ DUP4 ISZERO OR PUSH2 0x3F20 JUMPI PUSH2 0x3F1F PUSH2 0x3C53 JUMP JUMPDEST JUMPDEST POP SWAP3 SWAP2 POP POP JUMP JUMPDEST PUSH1 0x0 DUP3 DUP3 MSTORE PUSH1 0x20 DUP3 ADD SWAP1 POP SWAP3 SWAP2 POP POP JUMP JUMPDEST POP JUMP JUMPDEST PUSH1 0x0 PUSH2 0x3F48 PUSH1 0x0 DUP4 PUSH2 0x3F27 JUMP JUMPDEST SWAP2 POP PUSH2 0x3F53 DUP3 PUSH2 0x3F38 JUMP JUMPDEST PUSH1 0x0 DUP3 ADD SWAP1 POP SWAP2 SWAP1 POP JUMP JUMPDEST PUSH1 0x0 PUSH1 0xA0 DUP3 ADD SWAP1 POP PUSH2 0x3F73 PUSH1 0x0 DUP4 ADD DUP8 PUSH2 0x31AC JUMP JUMPDEST PUSH2 0x3F80 PUSH1 0x20 DUP4 ADD DUP7 PUSH2 0x31AC JUMP JUMPDEST PUSH2 0x3F8D PUSH1 0x40 DUP4 ADD DUP6 PUSH2 0x31D6 JUMP JUMPDEST PUSH2 0x3F9A PUSH1 0x60 DUP4 ADD DUP5 PUSH2 0x31D6 JUMP JUMPDEST DUP2 DUP2 SUB PUSH1 0x80 DUP4 ADD MSTORE PUSH2 0x3FAB DUP2 PUSH2 0x3F3B JUMP JUMPDEST SWAP1 POP SWAP6 SWAP5 POP POP POP POP POP JUMP JUMPDEST PUSH1 0x0 PUSH1 0x60 DUP3 ADD SWAP1 POP PUSH2 0x3FCB PUSH1 0x0 DUP4 ADD DUP7 PUSH2 0x31AC JUMP JUMPDEST PUSH2 0x3FD8 PUSH1 0x20 DUP4 ADD DUP6 PUSH2 0x31D6 JUMP JUMPDEST PUSH2 0x3FE5 PUSH1 0x40 DUP4 ADD DUP5 PUSH2 0x31D6 JUMP JUMPDEST SWAP5 SWAP4 POP POP POP POP JUMP JUMPDEST PUSH32 0x746F74616C4D6F6E73746572206269676572207468656E206D61780000000000 PUSH1 0x0 DUP3 ADD MSTORE POP JUMP JUMPDEST PUSH1 0x0 PUSH2 0x4023 PUSH1 0x1B DUP4 PUSH2 0x379B JUMP JUMPDEST SWAP2 POP PUSH2 0x402E DUP3 PUSH2 0x3FED JUMP JUMPDEST PUSH1 0x20 DUP3 ADD SWAP1 POP SWAP2 SWAP1 POP JUMP JUMPDEST PUSH1 0x0 PUSH1 0x20 DUP3 ADD SWAP1 POP DUP2 DUP2 SUB PUSH1 0x0 DUP4 ADD MSTORE PUSH2 0x4052 DUP2 PUSH2 0x4016 JUMP JUMPDEST SWAP1 POP SWAP2 SWAP1 POP JUMP JUMPDEST PUSH32 0x4E487B7100000000000000000000000000000000000000000000000000000000 PUSH1 0x0 MSTORE PUSH1 0x32 PUSH1 0x4 MSTORE PUSH1 0x24 PUSH1 0x0 REVERT JUMPDEST PUSH1 0x0 PUSH2 0x4093 DUP3 PUSH2 0x3175 JUMP JUMPDEST SWAP2 POP PUSH2 0x409E DUP4 PUSH2 0x3175 JUMP JUMPDEST SWAP3 POP DUP3 DUP3 ADD SWAP1 POP PUSH1 0xFF DUP2 GT ISZERO PUSH2 0x40B7 JUMPI PUSH2 0x40B6 PUSH2 0x3C53 JUMP JUMPDEST JUMPDEST SWAP3 SWAP2 POP POP JUMP JUMPDEST PUSH1 0x0 PUSH1 0x40 DUP3 ADD SWAP1 POP PUSH2 0x40D2 PUSH1 0x0 DUP4 ADD DUP6 PUSH2 0x31AC JUMP JUMPDEST PUSH2 0x40DF PUSH1 0x20 DUP4 ADD DUP5 PUSH2 0x31AC JUMP JUMPDEST SWAP4 SWAP3 POP POP POP JUMP JUMPDEST PUSH32 0x436865636B20796F757220746F6B656E20616C6C6F77616E6365000000000000 PUSH1 0x0 DUP3 ADD MSTORE POP JUMP JUMPDEST PUSH1 0x0 PUSH2 0x411C PUSH1 0x1A DUP4 PUSH2 0x379B JUMP JUMPDEST SWAP2 POP PUSH2 0x4127 DUP3 PUSH2 0x40E6 JUMP JUMPDEST PUSH1 0x20 DUP3 ADD SWAP1 POP SWAP2 SWAP1 POP JUMP JUMPDEST PUSH1 0x0 PUSH1 0x20 DUP3 ADD SWAP1 POP DUP2 DUP2 SUB PUSH1 0x0 DUP4 ADD MSTORE PUSH2 0x414B DUP2 PUSH2 0x410F JUMP JUMPDEST SWAP1 POP SWAP2 SWAP1 POP JUMP JUMPDEST PUSH1 0x0 PUSH1 0x40 DUP3 ADD SWAP1 POP PUSH2 0x4167 PUSH1 0x0 DUP4 ADD DUP6 PUSH2 0x31D6 JUMP JUMPDEST PUSH2 0x4174 PUSH1 0x20 DUP4 ADD DUP5 PUSH2 0x31AC JUMP JUMPDEST SWAP4 SWAP3 POP POP POP JUMP JUMPDEST PUSH32 0x6E6F20656E6F75677468206D6F6E65792073656E6420746F206D736700000000 PUSH1 0x0 DUP3 ADD MSTORE POP JUMP JUMPDEST PUSH1 0x0 PUSH2 0x41B1 PUSH1 0x1C DUP4 PUSH2 0x379B JUMP JUMPDEST SWAP2 POP PUSH2 0x41BC DUP3 PUSH2 0x417B JUMP JUMPDEST PUSH1 0x20 DUP3 ADD SWAP1 POP SWAP2 SWAP1 POP JUMP JUMPDEST PUSH1 0x0 PUSH1 0x20 DUP3 ADD SWAP1 POP DUP2 DUP2 SUB PUSH1 0x0 DUP4 ADD MSTORE PUSH2 0x41E0 DUP2 PUSH2 0x41A4 JUMP JUMPDEST SWAP1 POP SWAP2 SWAP1 POP JUMP INVALID LOG2 PUSH5 0x6970667358 0x22 SLT KECCAK256 0xAD 0x5D DUP1 0xB0 0x25 0xB6 PUSH19 0x5D9BEEC26398E3E15CCDF429C91C287090BBA4 0xBB PUSH8 0x7034723964736F6C PUSH4 0x43000814 STOP CALLER "},"methodIdentifiers":{"EQUITMENTSPRICE()":"931e5b36","EVOAMOUNT()":"b12a991d","MAX()":"d49d5181","POTIONSPRICE()":"fe6601a5","REWARDAMOUNT()":"88e81f7f","addSale(uint256,uint256)":"7d025a62","breedMonster(uint256,uint256)":"357c5cc2","burnItem(uint256,uint256)":"c9be4295","buyItem(uint256,uint256)":"9979c009","buyMonster(uint256)":"154bd552","createMonster(uint8,uint256,bool)":"aecd8054","deposit(uint256)":"b6b55f25","envMater(uint256)":"540bb3b5","fight(uint256,uint256)":"ca39e5ef","manager()":"481c6a75","mintToken(uint256)":"c634d032","mons(uint256)":"de13cbad","onERC1155BatchReceived(address,address,uint256[],uint256[],bytes)":"bc197c81","onERC1155Received(address,address,uint256,uint256,bytes)":"f23a6e61","randomGen(uint256)":"434b14e7","removeSale(uint256)":"44e797e9","setItemPrices(uint256,uint256)":"199a37fe","startSharing(uint256,address)":"08afa05d","stopSharing(uint256)":"9968270b","supportsInterface(bytes4)":"01ffc9a7","totalMonster()":"7a09defe","withdraw(uint256)":"2e1a7d4d"}}}}}