{
  "_format": "hh-sol-artifact-1",
  "contractName": "CryptoMonster",
  "sourceName": "contracts/CryptoMonster.sol",
  "abi": [
    {
      "inputs": [
        {
          "internalType": "contract TokenMonster",
          "name": "_erc20",
          "type": "address"
        },
        {
          "internalType": "contract IERC1155",
          "name": "_ierc1155",
          "type": "address"
        }
      ],
      "stateMutability": "nonpayable",
      "type": "constructor"
    },
    {
      "anonymous": false,
      "inputs": [
        {
          "indexed": false,
          "internalType": "address",
          "name": "addr",
          "type": "address"
        },
        {
          "indexed": false,
          "internalType": "uint256",
          "name": "_itemNumber",
          "type": "uint256"
        },
        {
          "indexed": false,
          "internalType": "uint256",
          "name": "_uints",
          "type": "uint256"
        }
      ],
      "name": "BurnItem",
      "type": "event"
    },
    {
      "anonymous": false,
      "inputs": [
        {
          "indexed": false,
          "internalType": "address",
          "name": "addr",
          "type": "address"
        },
        {
          "indexed": false,
          "internalType": "uint256",
          "name": "_itemNumber",
          "type": "uint256"
        },
        {
          "indexed": false,
          "internalType": "uint256",
          "name": "_uints",
          "type": "uint256"
        }
      ],
      "name": "BuyItem",
      "type": "event"
    },
    {
      "anonymous": false,
      "inputs": [
        {
          "indexed": false,
          "internalType": "uint256",
          "name": "monstId",
          "type": "uint256"
        }
      ],
      "name": "CreateMonster",
      "type": "event"
    },
    {
      "anonymous": false,
      "inputs": [
        {
          "indexed": true,
          "internalType": "address",
          "name": "addr",
          "type": "address"
        },
        {
          "indexed": false,
          "internalType": "uint256",
          "name": "_winerId",
          "type": "uint256"
        }
      ],
      "name": "FightResult",
      "type": "event"
    },
    {
      "anonymous": false,
      "inputs": [
        {
          "indexed": false,
          "internalType": "uint256",
          "name": "_rewards",
          "type": "uint256"
        },
        {
          "indexed": false,
          "internalType": "address",
          "name": "addr",
          "type": "address"
        }
      ],
      "name": "Rewards",
      "type": "event"
    },
    {
      "inputs": [],
      "name": "EQUITMENTSPRICE",
      "outputs": [
        {
          "internalType": "uint256",
          "name": "",
          "type": "uint256"
        }
      ],
      "stateMutability": "view",
      "type": "function"
    },
    {
      "inputs": [],
      "name": "EVOAMOUNT",
      "outputs": [
        {
          "internalType": "uint256",
          "name": "",
          "type": "uint256"
        }
      ],
      "stateMutability": "view",
      "type": "function"
    },
    {
      "inputs": [],
      "name": "MAX",
      "outputs": [
        {
          "internalType": "uint256",
          "name": "",
          "type": "uint256"
        }
      ],
      "stateMutability": "view",
      "type": "function"
    },
    {
      "inputs": [],
      "name": "POTIONSPRICE",
      "outputs": [
        {
          "internalType": "uint256",
          "name": "",
          "type": "uint256"
        }
      ],
      "stateMutability": "view",
      "type": "function"
    },
    {
      "inputs": [],
      "name": "REWARDAMOUNT",
      "outputs": [
        {
          "internalType": "uint256",
          "name": "",
          "type": "uint256"
        }
      ],
      "stateMutability": "view",
      "type": "function"
    },
    {
      "inputs": [
        {
          "internalType": "uint256",
          "name": "_id",
          "type": "uint256"
        },
        {
          "internalType": "uint256",
          "name": "_price",
          "type": "uint256"
        }
      ],
      "name": "addSale",
      "outputs": [],
      "stateMutability": "nonpayable",
      "type": "function"
    },
    {
      "inputs": [
        {
          "internalType": "uint256",
          "name": "_id1",
          "type": "uint256"
        },
        {
          "internalType": "uint256",
          "name": "_id2",
          "type": "uint256"
        }
      ],
      "name": "breedMonster",
      "outputs": [],
      "stateMutability": "nonpayable",
      "type": "function"
    },
    {
      "inputs": [
        {
          "internalType": "uint256",
          "name": "_itemNumber",
          "type": "uint256"
        },
        {
          "internalType": "uint256",
          "name": "_uints",
          "type": "uint256"
        }
      ],
      "name": "burnItem",
      "outputs": [],
      "stateMutability": "nonpayable",
      "type": "function"
    },
    {
      "inputs": [
        {
          "internalType": "uint256",
          "name": "_itemNumber",
          "type": "uint256"
        },
        {
          "internalType": "uint256",
          "name": "_uints",
          "type": "uint256"
        }
      ],
      "name": "buyItem",
      "outputs": [],
      "stateMutability": "nonpayable",
      "type": "function"
    },
    {
      "inputs": [
        {
          "internalType": "uint256",
          "name": "_id",
          "type": "uint256"
        }
      ],
      "name": "buyMonster",
      "outputs": [],
      "stateMutability": "nonpayable",
      "type": "function"
    },
    {
      "inputs": [
        {
          "internalType": "uint8",
          "name": "_spIndex",
          "type": "uint8"
        },
        {
          "internalType": "uint256",
          "name": "_price",
          "type": "uint256"
        },
        {
          "internalType": "bool",
          "name": "_sale",
          "type": "bool"
        }
      ],
      "name": "createMonster",
      "outputs": [],
      "stateMutability": "nonpayable",
      "type": "function"
    },
    {
      "inputs": [
        {
          "internalType": "uint256",
          "name": "_amount",
          "type": "uint256"
        }
      ],
      "name": "deposit",
      "outputs": [],
      "stateMutability": "nonpayable",
      "type": "function"
    },
    {
      "inputs": [
        {
          "internalType": "uint256",
          "name": "_id",
          "type": "uint256"
        }
      ],
      "name": "envMater",
      "outputs": [],
      "stateMutability": "nonpayable",
      "type": "function"
    },
    {
      "inputs": [
        {
          "internalType": "uint256",
          "name": "_id1",
          "type": "uint256"
        },
        {
          "internalType": "uint256",
          "name": "_id2",
          "type": "uint256"
        }
      ],
      "name": "fight",
      "outputs": [],
      "stateMutability": "nonpayable",
      "type": "function"
    },
    {
      "inputs": [],
      "name": "manager",
      "outputs": [
        {
          "internalType": "address",
          "name": "",
          "type": "address"
        }
      ],
      "stateMutability": "view",
      "type": "function"
    },
    {
      "inputs": [
        {
          "internalType": "uint256",
          "name": "_amount",
          "type": "uint256"
        }
      ],
      "name": "mintToken",
      "outputs": [],
      "stateMutability": "nonpayable",
      "type": "function"
    },
    {
      "inputs": [
        {
          "internalType": "uint256",
          "name": "",
          "type": "uint256"
        }
      ],
      "name": "mons",
      "outputs": [
        {
          "internalType": "uint256",
          "name": "id",
          "type": "uint256"
        },
        {
          "internalType": "address payable",
          "name": "owner",
          "type": "address"
        },
        {
          "internalType": "enum CryptoMonster.Species",
          "name": "species",
          "type": "uint8"
        },
        {
          "internalType": "uint256",
          "name": "price",
          "type": "uint256"
        },
        {
          "internalType": "bool",
          "name": "sale",
          "type": "bool"
        },
        {
          "internalType": "uint8",
          "name": "monsterType",
          "type": "uint8"
        },
        {
          "internalType": "bool",
          "name": "evolve",
          "type": "bool"
        },
        {
          "internalType": "uint256",
          "name": "hp",
          "type": "uint256"
        },
        {
          "internalType": "uint256",
          "name": "atk",
          "type": "uint256"
        },
        {
          "internalType": "uint256",
          "name": "def",
          "type": "uint256"
        },
        {
          "internalType": "uint256",
          "name": "speed",
          "type": "uint256"
        },
        {
          "internalType": "address",
          "name": "sharedTo",
          "type": "address"
        }
      ],
      "stateMutability": "view",
      "type": "function"
    },
    {
      "inputs": [
        {
          "internalType": "address",
          "name": "",
          "type": "address"
        },
        {
          "internalType": "address",
          "name": "",
          "type": "address"
        },
        {
          "internalType": "uint256[]",
          "name": "",
          "type": "uint256[]"
        },
        {
          "internalType": "uint256[]",
          "name": "",
          "type": "uint256[]"
        },
        {
          "internalType": "bytes",
          "name": "",
          "type": "bytes"
        }
      ],
      "name": "onERC1155BatchReceived",
      "outputs": [
        {
          "internalType": "bytes4",
          "name": "",
          "type": "bytes4"
        }
      ],
      "stateMutability": "nonpayable",
      "type": "function"
    },
    {
      "inputs": [
        {
          "internalType": "address",
          "name": "",
          "type": "address"
        },
        {
          "internalType": "address",
          "name": "",
          "type": "address"
        },
        {
          "internalType": "uint256",
          "name": "",
          "type": "uint256"
        },
        {
          "internalType": "uint256",
          "name": "",
          "type": "uint256"
        },
        {
          "internalType": "bytes",
          "name": "",
          "type": "bytes"
        }
      ],
      "name": "onERC1155Received",
      "outputs": [
        {
          "internalType": "bytes4",
          "name": "",
          "type": "bytes4"
        }
      ],
      "stateMutability": "nonpayable",
      "type": "function"
    },
    {
      "inputs": [
        {
          "internalType": "uint256",
          "name": "i",
          "type": "uint256"
        }
      ],
      "name": "randomGen",
      "outputs": [
        {
          "internalType": "uint8",
          "name": "",
          "type": "uint8"
        }
      ],
      "stateMutability": "nonpayable",
      "type": "function"
    },
    {
      "inputs": [
        {
          "internalType": "uint256",
          "name": "_id",
          "type": "uint256"
        }
      ],
      "name": "removeSale",
      "outputs": [],
      "stateMutability": "nonpayable",
      "type": "function"
    },
    {
      "inputs": [
        {
          "internalType": "uint256",
          "name": "_potionsPrice",
          "type": "uint256"
        },
        {
          "internalType": "uint256",
          "name": "_equipmentsPrice",
          "type": "uint256"
        }
      ],
      "name": "setItemPrices",
      "outputs": [],
      "stateMutability": "nonpayable",
      "type": "function"
    },
    {
      "inputs": [
        {
          "internalType": "uint256",
          "name": "_id",
          "type": "uint256"
        },
        {
          "internalType": "address",
          "name": "_addr",
          "type": "address"
        }
      ],
      "name": "startSharing",
      "outputs": [],
      "stateMutability": "nonpayable",
      "type": "function"
    },
    {
      "inputs": [
        {
          "internalType": "uint256",
          "name": "_id",
          "type": "uint256"
        }
      ],
      "name": "stopSharing",
      "outputs": [],
      "stateMutability": "nonpayable",
      "type": "function"
    },
    {
      "inputs": [
        {
          "internalType": "bytes4",
          "name": "interfaceId",
          "type": "bytes4"
        }
      ],
      "name": "supportsInterface",
      "outputs": [
        {
          "internalType": "bool",
          "name": "",
          "type": "bool"
        }
      ],
      "stateMutability": "view",
      "type": "function"
    },
    {
      "inputs": [],
      "name": "totalMonster",
      "outputs": [
        {
          "internalType": "uint256",
          "name": "",
          "type": "uint256"
        }
      ],
      "stateMutability": "view",
      "type": "function"
    },
    {
      "inputs": [
        {
          "internalType": "uint256",
          "name": "_amount",
          "type": "uint256"
        }
      ],
      "name": "withdraw",
      "outputs": [],
      "stateMutability": "nonpayable",
      "type": "function"
    }
  ],
  "bytecode": "0x6080604052604051806112e00160405280600060ff168152602001600060ff168152602001600060ff168152602001600160ff168152602001600160ff168152602001600160ff168152602001600260ff168152602001600260ff168152602001600260ff168152602001600360ff168152602001600360ff168152602001600360ff168152602001600360ff168152602001600360ff168152602001600360ff168152602001600460ff168152602001600460ff168152602001600460ff168152602001600460ff168152602001600460ff168152602001600460ff168152602001600460ff168152602001600560ff168152602001600560ff168152602001600660ff168152602001600660ff168152602001600760ff168152602001600760ff168152602001600460ff168152602001600460ff168152602001600460ff168152602001600460ff168152602001600460ff168152602001600460ff168152602001600460ff168152602001600460ff168152602001600160ff168152602001600160ff168152602001600460ff168152602001600460ff168152602001600560ff168152602001600560ff168152602001600060ff168152602001600060ff168152602001600060ff168152602001600360ff168152602001600360ff168152602001600360ff168152602001600360ff168152602001600760ff168152602001600760ff168152602001600460ff168152602001600460ff168152602001600260ff168152602001600260ff168152602001600460ff168152602001600460ff168152602001600160ff168152602001600160ff168152602001600260ff168152602001600260ff168152602001600260ff168152602001600860ff168152602001600860ff168152602001600860ff168152602001600460ff168152602001600460ff168152602001600460ff168152602001600060ff168152602001600060ff168152602001600060ff168152602001600260ff168152602001600260ff168152602001600760ff168152602001600760ff168152602001600760ff168152602001600160ff168152602001600160ff168152602001600260ff168152602001600260ff168152602001600660ff168152602001600660ff168152602001600460ff168152602001600460ff168152602001600460ff168152602001600260ff168152602001600260ff168152602001600560ff168152602001600560ff168152602001600260ff168152602001600260ff168152602001600860ff168152602001600860ff168152602001600860ff168152602001600760ff168152602001600860ff168152602001600860ff168152602001600260ff168152602001600260ff168152602001600660ff168152602001600660ff168152602001600860ff168152602001600860ff168152602001600760ff168152602001600760ff168152602001600460ff168152602001600460ff168152602001600460ff168152602001600560ff168152602001600560ff168152602001600760ff168152602001600760ff168152602001600460ff168152602001600060ff168152602001600460ff168152602001600260ff168152602001600260ff168152602001600260ff168152602001600260ff168152602001600260ff168152602001600260ff168152602001600460ff168152602001600360ff168152602001600860ff168152602001600660ff168152602001600160ff168152602001600360ff168152602001600460ff168152602001600260ff168152602001600260ff168152602001600260ff168152602001600960ff168152602001600a60ff168152602001600260ff168152602001600660ff168152602001600160ff168152602001600460ff168152602001600260ff168152602001600260ff168152602001600260ff168152602001600260ff168152602001600460ff168152602001600460ff168152602001600260ff168152602001600660ff168152602001600160ff168152602001600860ff168152602001600860ff168152602001600860ff168152602001600860ff168152602001600860ff168152506002906097620006069291906200137d565b50604051806112e00160405280600115151515815260200160011515151581526020016000151515158152602001600115151515815260200160011515151581526020016000151515158152602001600115151515815260200160011515151581526020016000151515158152602001600115151515815260200160011515151581526020016000151515158152602001600115151515815260200160011515151581526020016000151515158152602001600115151515815260200160011515151581526020016000151515158152602001600115151515815260200160001515151581526020016001151515158152602001600015151515815260200160011515151581526020016000151515158152602001600115151515815260200160001515151581526020016001151515158152602001600015151515815260200160011515151581526020016001151515158152602001600015151515815260200160011515151581526020016001151515158152602001600015151515815260200160011515151581526020016000151515158152602001600115151515815260200160001515151581526020016001151515158152602001600015151515815260200160011515151581526020016000151515158152602001600115151515815260200160011515151581526020016000151515158152602001600115151515815260200160001515151581526020016001151515158152602001600015151515815260200160011515151581526020016000151515158152602001600115151515815260200160001515151581526020016001151515158152602001600015151515815260200160011515151581526020016000151515158152602001600115151515815260200160001515151581526020016001151515158152602001600115151515815260200160001515151581526020016001151515158152602001600115151515815260200160001515151581526020016001151515158152602001600115151515815260200160001515151581526020016001151515158152602001600115151515815260200160001515151581526020016001151515158152602001600015151515815260200160011515151581526020016001151515158152602001600015151515815260200160011515151581526020016000151515158152602001600115151515815260200160001515151581526020016001151515158152602001600015151515815260200160001515151581526020016001151515158152602001600015151515815260200160011515151581526020016000151515158152602001600115151515815260200160001515151581526020016001151515158152602001600015151515815260200160011515151581526020016001151515158152602001600015151515815260200160001515151581526020016001151515158152602001600015151515815260200160011515151581526020016000151515158152602001600115151515815260200160001515151581526020016001151515158152602001600015151515815260200160011515151581526020016000151515158152602001600115151515815260200160001515151581526020016000151515158152602001600115151515815260200160001515151581526020016001151515158152602001600015151515815260200160001515151581526020016000151515158152602001600015151515815260200160011515151581526020016000151515158152602001600115151515815260200160001515151581526020016001151515158152602001600015151515815260200160001515151581526020016000151515158152602001600015151515815260200160001515151581526020016000151515158152602001600015151515815260200160001515151581526020016001151515158152602001600015151515815260200160001515151581526020016000151515158152602001600015151515815260200160001515151581526020016000151515158152602001600015151515815260200160001515151581526020016001151515158152602001600015151515815260200160011515151581526020016000151515158152602001600015151515815260200160001515151581526020016000151515158152602001600015151515815260200160001515151581526020016001151515158152602001600115151515815260200160001515151581526020016001151515158152602001600015151515815250600790609762000ca09291906200141e565b506000600e557fffffffffffffffffffffffffffffffffffffffffffffffffffffffffffffffff600f5560006010556207a120601155612710601255612710601355620186a060145534801562000cf657600080fd5b5060405162005d8938038062005d89833981810160405281019062000d1c919062001649565b816000806101000a81548173ffffffffffffffffffffffffffffffffffffffff021916908373ffffffffffffffffffffffffffffffffffffffff16021790555080600160006101000a81548173ffffffffffffffffffffffffffffffffffffffff021916908373ffffffffffffffffffffffffffffffffffffffff16021790555033600c60006101000a81548173ffffffffffffffffffffffffffffffffffffffff021916908373ffffffffffffffffffffffffffffffffffffffff16021790555062000df3600080600062000e3a60201b60201c565b62000e08600160008062000e3a60201b60201c565b62000e1d600260008062000e3a60201b60201c565b62000e32600360008062000e3a60201b60201c565b5050620019ff565b600c60009054906101000a900473ffffffffffffffffffffffffffffffffffffffff1673ffffffffffffffffffffffffffffffffffffffff163373ffffffffffffffffffffffffffffffffffffffff161462000ecd576040517f08c379a000000000000000000000000000000000000000000000000000000000815260040162000ec490620016f1565b60405180910390fd5b600f54600e541062000f16576040517f08c379a000000000000000000000000000000000000000000000000000000000815260040162000f0d9062001763565b60405180910390fd5b60008360ff16609681111562000f315762000f3062001785565b5b905062000f3d620014be565b600e5481600001818152505033816020019073ffffffffffffffffffffffffffffffffffffffff16908173ffffffffffffffffffffffffffffffffffffffff1681525050818160400190609681111562000f9c5762000f9b62001785565b5b9081609681111562000fb35762000fb262001785565b5b8152505060028560ff166097811062000fd15762000fd0620017b4565b5b602091828204019190069054906101000a900460ff168160a0019060ff16908160ff168152505060078560ff1660978110620010125762001011620017b4565b5b602091828204019190069054906101000a900460ff168160c001901515908115158152505083816060018181525050828160800190151590811515815250503381610160019073ffffffffffffffffffffffffffffffffffffffff16908173ffffffffffffffffffffffffffffffffffffffff16815250506200109c60296200131660201b60201c565b6064620010aa91906200181f565b60ff168160e0018181525050620010c860296200131660201b60201c565b6064620010d691906200181f565b60ff1681610100018181525050620010f560296200131660201b60201c565b60646200110391906200181f565b60ff16816101200181815250506200112260296200131660201b60201c565b60646200113091906200181f565b60ff168161014001818152505080600d6000600e5481526020019081526020016000206000820151816000015560208201518160010160006101000a81548173ffffffffffffffffffffffffffffffffffffffff021916908373ffffffffffffffffffffffffffffffffffffffff16021790555060408201518160010160146101000a81548160ff02191690836096811115620011d257620011d162001785565b5b02179055506060820151816002015560808201518160030160006101000a81548160ff02191690831515021790555060a08201518160030160016101000a81548160ff021916908360ff16021790555060c08201518160030160026101000a81548160ff02191690831515021790555060e082015181600401556101008201518160050155610120820151816006015561014082015181600701556101608201518160080160006101000a81548173ffffffffffffffffffffffffffffffffffffffff021916908373ffffffffffffffffffffffffffffffffffffffff160217905550905050600e6000815480929190620012cd9062001865565b91905055507fb6d21026ac3ab2edc35f484b1bb7362a0287a0629b892a158b6907a04deba22d8160000151604051620013079190620018c3565b60405180910390a15050505050565b600080824233601054604051602001620013339392919062001955565b6040516020818303038152906040528051906020012060001c620013589190620019c7565b9050601060008154809291906200136f9062001865565b919050555080915050919050565b826097601f016020900481019282156200140b5791602002820160005b83821115620013da57835183826101000a81548160ff021916908360ff16021790555092602001926001016020816000010492830192600103026200139a565b8015620014095782816101000a81549060ff0219169055600101602081600001049283019260010302620013da565b505b5090506200141a919062001567565b5090565b826097601f01602090048101928215620014ab5791602002820160005b838211156200147a57835183826101000a81548160ff02191690831515021790555092602001926001016020816000010492830192600103026200143b565b8015620014a95782816101000a81549060ff02191690556001016020816000010492830192600103026200147a565b505b509050620014ba919062001567565b5090565b60405180610180016040528060008152602001600073ffffffffffffffffffffffffffffffffffffffff1681526020016000609681111562001505576200150462001785565b5b815260200160008152602001600015158152602001600060ff16815260200160001515815260200160008152602001600081526020016000815260200160008152602001600073ffffffffffffffffffffffffffffffffffffffff1681525090565b5b808211156200158257600081600090555060010162001568565b5090565b600080fd5b600073ffffffffffffffffffffffffffffffffffffffff82169050919050565b6000620015b8826200158b565b9050919050565b6000620015cc82620015ab565b9050919050565b620015de81620015bf565b8114620015ea57600080fd5b50565b600081519050620015fe81620015d3565b92915050565b60006200161182620015ab565b9050919050565b620016238162001604565b81146200162f57600080fd5b50565b600081519050620016438162001618565b92915050565b6000806040838503121562001663576200166262001586565b5b60006200167385828601620015ed565b9250506020620016868582860162001632565b9150509250929050565b600082825260208201905092915050565b7f6e6f74206f776e65722100000000000000000000000000000000000000000000600082015250565b6000620016d9600a8362001690565b9150620016e682620016a1565b602082019050919050565b600060208201905081810360008301526200170c81620016ca565b9050919050565b7f746f74616c4d6f6e73746572206269676572207468656e206d61780000000000600082015250565b60006200174b601b8362001690565b9150620017588262001713565b602082019050919050565b600060208201905081810360008301526200177e816200173c565b9050919050565b7f4e487b7100000000000000000000000000000000000000000000000000000000600052602160045260246000fd5b7f4e487b7100000000000000000000000000000000000000000000000000000000600052603260045260246000fd5b600060ff82169050919050565b7f4e487b7100000000000000000000000000000000000000000000000000000000600052601160045260246000fd5b60006200182c82620017e3565b91506200183983620017e3565b9250828201905060ff811115620018555762001854620017f0565b5b92915050565b6000819050919050565b600062001872826200185b565b91507fffffffffffffffffffffffffffffffffffffffffffffffffffffffffffffffff8203620018a757620018a6620017f0565b5b600182019050919050565b620018bd816200185b565b82525050565b6000602082019050620018da6000830184620018b2565b92915050565b6000819050919050565b620018ff620018f9826200185b565b620018e0565b82525050565b60008160601b9050919050565b60006200191f8262001905565b9050919050565b6000620019338262001912565b9050919050565b6200194f6200194982620015ab565b62001926565b82525050565b6000620019638286620018ea565b6020820191506200197582856200193a565b601482019150620019878284620018ea565b602082019150819050949350505050565b7f4e487b7100000000000000000000000000000000000000000000000000000000600052601260045260246000fd5b6000620019d4826200185b565b9150620019e1836200185b565b925082620019f457620019f362001998565b5b828206905092915050565b61437a8062001a0f6000396000f3fe608060405234801561001057600080fd5b50600436106101a95760003560e01c8063931e5b36116100f9578063c634d03211610097578063d49d518111610071578063d49d518114610478578063de13cbad14610496578063f23a6e61146104d1578063fe6601a514610501576101a9565b8063c634d03214610424578063c9be429514610440578063ca39e5ef1461045c576101a9565b8063aecd8054116100d3578063aecd80541461039e578063b12a991d146103ba578063b6b55f25146103d8578063bc197c81146103f4576101a9565b8063931e5b36146103485780639968270b146103665780639979c00914610382576101a9565b8063434b14e711610166578063540bb3b511610140578063540bb3b5146102d45780637a09defe146102f05780637d025a621461030e57806388e81f7f1461032a576101a9565b8063434b14e71461026a57806344e797e91461029a578063481c6a75146102b6576101a9565b806301ffc9a7146101ae57806308afa05d146101de578063154bd552146101fa578063199a37fe146102165780632e1a7d4d14610232578063357c5cc21461024e575b600080fd5b6101c860048036038101906101c391906130fd565b61051f565b6040516101d59190613145565b60405180910390f35b6101f860048036038101906101f391906131f4565b610599565b005b610214600480360381019061020f9190613234565b61069c565b005b610230600480360381019061022b9190613261565b610967565b005b61024c60048036038101906102479190613234565b610a09565b005b61026860048036038101906102639190613261565b610c1e565b005b610284600480360381019061027f9190613234565b610ddd565b60405161029191906132bd565b60405180910390f35b6102b460048036038101906102af9190613234565b610e3e565b005b6102be610f60565b6040516102cb91906132e7565b60405180910390f35b6102ee60048036038101906102e99190613234565b610f86565b005b6102f86110b7565b6040516103059190613311565b60405180910390f35b61032860048036038101906103239190613261565b6110bd565b005b61033261122c565b60405161033f9190613311565b60405180910390f35b610350611232565b60405161035d9190613311565b60405180910390f35b610380600480360381019061037b9190613234565b611238565b005b61039c60048036038101906103979190613261565b6113a6565b005b6103b860048036038101906103b39190613384565b6115cc565b005b6103c2611a62565b6040516103cf9190613311565b60405180910390f35b6103f260048036038101906103ed9190613234565b611a68565b005b61040e600480360381019061040991906135e5565b611c81565b60405161041b91906136c3565b60405180910390f35b61043e60048036038101906104399190613234565b611c96565b005b61045a60048036038101906104559190613261565b611d26565b005b61047660048036038101906104719190613261565b611eaa565b005b6104806120c3565b60405161048d9190613311565b60405180910390f35b6104b060048036038101906104ab9190613234565b6120c9565b6040516104c89c9b9a99989796959493929190613776565b60405180910390f35b6104eb60048036038101906104e69190613830565b61219d565b6040516104f891906136c3565b60405180910390f35b6105096121b2565b6040516105169190613311565b60405180910390f35b60007f4e2312e0000000000000000000000000000000000000000000000000000000007bffffffffffffffffffffffffffffffffffffffffffffffffffffffff1916827bffffffffffffffffffffffffffffffffffffffffffffffffffffffff191614806105925750610591826121b8565b5b9050919050565b3373ffffffffffffffffffffffffffffffffffffffff16600d600084815260200190815260200160002060010160009054906101000a900473ffffffffffffffffffffffffffffffffffffffff1673ffffffffffffffffffffffffffffffffffffffff161461063d576040517f08c379a000000000000000000000000000000000000000000000000000000000815260040161063490613924565b60405180910390fd5b6000600d60008481526020019081526020016000209050818160080160006101000a81548173ffffffffffffffffffffffffffffffffffffffff021916908373ffffffffffffffffffffffffffffffffffffffff160217905550505050565b6000600d6000838152602001908152602001600020905060008060009054906101000a900473ffffffffffffffffffffffffffffffffffffffff1673ffffffffffffffffffffffffffffffffffffffff166370a08231336040518263ffffffff1660e01b815260040161070f91906132e7565b602060405180830381865afa15801561072c573d6000803e3d6000fd5b505050506040513d601f19601f820116820180604052508101906107509190613959565b905081600201548111610798576040517f08c379a000000000000000000000000000000000000000000000000000000000815260040161078f906139d2565b60405180910390fd5b600115158260030160009054906101000a900460ff161515146107f0576040517f08c379a00000000000000000000000000000000000000000000000000000000081526004016107e790613a3e565b60405180910390fd5b60008260010160009054906101000a900473ffffffffffffffffffffffffffffffffffffffff169050338360010160006101000a81548173ffffffffffffffffffffffffffffffffffffffff021916908373ffffffffffffffffffffffffffffffffffffffff160217905550338360080160006101000a81548173ffffffffffffffffffffffffffffffffffffffff021916908373ffffffffffffffffffffffffffffffffffffffff16021790555060008360030160006101000a81548160ff02191690831515021790555060008054906101000a900473ffffffffffffffffffffffffffffffffffffffff1673ffffffffffffffffffffffffffffffffffffffff166323b872dd338386600201546040518463ffffffff1660e01b815260040161091d93929190613a5e565b6020604051808303816000875af115801561093c573d6000803e3d6000fd5b505050506040513d601f19601f820116820180604052508101906109609190613aaa565b5050505050565b600c60009054906101000a900473ffffffffffffffffffffffffffffffffffffffff1673ffffffffffffffffffffffffffffffffffffffff163373ffffffffffffffffffffffffffffffffffffffff16146109f7576040517f08c379a00000000000000000000000000000000000000000000000000000000081526004016109ee90613b23565b60405180910390fd5b81601281905550806011819055505050565b600c60009054906101000a900473ffffffffffffffffffffffffffffffffffffffff1673ffffffffffffffffffffffffffffffffffffffff163373ffffffffffffffffffffffffffffffffffffffff1614610a99576040517f08c379a0000000000000000000000000000000000000000000000000000000008152600401610a9090613b23565b60405180910390fd5b60008060009054906101000a900473ffffffffffffffffffffffffffffffffffffffff1673ffffffffffffffffffffffffffffffffffffffff166370a08231306040518263ffffffff1660e01b8152600401610af591906132e7565b602060405180830381865afa158015610b12573d6000803e3d6000fd5b505050506040513d601f19601f82011682018060405250810190610b369190613959565b905080821115610b7b576040517f08c379a0000000000000000000000000000000000000000000000000000000008152600401610b7290613b8f565b60405180910390fd5b60008054906101000a900473ffffffffffffffffffffffffffffffffffffffff1673ffffffffffffffffffffffffffffffffffffffff1663a9059cbb33846040518363ffffffff1660e01b8152600401610bd6929190613baf565b6020604051808303816000875af1158015610bf5573d6000803e3d6000fd5b505050506040513d601f19601f82011682018060405250810190610c199190613aaa565b505050565b600f54600e5410610c64576040517f08c379a0000000000000000000000000000000000000000000000000000000008152600401610c5b90613c24565b60405180910390fd5b3373ffffffffffffffffffffffffffffffffffffffff16600d600084815260200190815260200160002060010160009054906101000a900473ffffffffffffffffffffffffffffffffffffffff1673ffffffffffffffffffffffffffffffffffffffff1614610d08576040517f08c379a0000000000000000000000000000000000000000000000000000000008152600401610cff90613c90565b60405180910390fd5b3373ffffffffffffffffffffffffffffffffffffffff16600d600083815260200190815260200160002060010160009054906101000a900473ffffffffffffffffffffffffffffffffffffffff1673ffffffffffffffffffffffffffffffffffffffff1614610dac576040517f08c379a0000000000000000000000000000000000000000000000000000000008152600401610da390613c90565b60405180910390fd5b6000610db88383612222565b9050610dd8816096811115610dd057610dcf6136ff565b5b6000806115cc565b505050565b600080824233601054604051602001610df893929190613d19565b6040516020818303038152906040528051906020012060001c610e1b9190613d85565b905060106000815480929190610e3090613de5565b919050555080915050919050565b6000600d60008381526020019081526020016000209050600115158160030160009054906101000a900460ff16151514610ead576040517f08c379a0000000000000000000000000000000000000000000000000000000008152600401610ea490613e79565b60405180910390fd5b3373ffffffffffffffffffffffffffffffffffffffff168160010160009054906101000a900473ffffffffffffffffffffffffffffffffffffffff1673ffffffffffffffffffffffffffffffffffffffff1614610f3f576040517f08c379a0000000000000000000000000000000000000000000000000000000008152600401610f3690613ee5565b60405180910390fd5b60008160030160006101000a81548160ff0219169083151502179055505050565b600c60009054906101000a900473ffffffffffffffffffffffffffffffffffffffff1681565b6000600d60008381526020019081526020016000209050600060018260010160149054906101000a900460ff166096811115610fc557610fc46136ff565b5b610fcf9190613f05565b9050806096811115610fe457610fe36136ff565b5b8260010160146101000a81548160ff0219169083609681111561100a576110096136ff565b5b021790555060008054906101000a900473ffffffffffffffffffffffffffffffffffffffff1673ffffffffffffffffffffffffffffffffffffffff166323b872dd33306014546040518463ffffffff1660e01b815260040161106e93929190613a5e565b6020604051808303816000875af115801561108d573d6000803e3d6000fd5b505050506040513d601f19601f820116820180604052508101906110b19190613aaa565b50505050565b600e5481565b6000600d60008481526020019081526020016000209050600015158160030160009054906101000a900460ff1615151461112c576040517f08c379a000000000000000000000000000000000000000000000000000000000815260040161112390613f85565b60405180910390fd5b3373ffffffffffffffffffffffffffffffffffffffff168160010160009054906101000a900473ffffffffffffffffffffffffffffffffffffffff1673ffffffffffffffffffffffffffffffffffffffff16146111be576040517f08c379a00000000000000000000000000000000000000000000000000000000081526004016111b590613ee5565b60405180910390fd5b60018160030160006101000a81548160ff021916908315150217905550818160020181905550338160080160006101000a81548173ffffffffffffffffffffffffffffffffffffffff021916908373ffffffffffffffffffffffffffffffffffffffff160217905550505050565b60135481565b60115481565b3373ffffffffffffffffffffffffffffffffffffffff16600d600083815260200190815260200160002060010160009054906101000a900473ffffffffffffffffffffffffffffffffffffffff1673ffffffffffffffffffffffffffffffffffffffff16148061130957503373ffffffffffffffffffffffffffffffffffffffff16600d600083815260200190815260200160002060080160009054906101000a900473ffffffffffffffffffffffffffffffffffffffff1673ffffffffffffffffffffffffffffffffffffffff16145b611348576040517f08c379a000000000000000000000000000000000000000000000000000000000815260040161133f90613ff1565b60405180910390fd5b6000600d60008381526020019081526020016000209050338160080160006101000a81548173ffffffffffffffffffffffffffffffffffffffff021916908373ffffffffffffffffffffffffffffffffffffffff1602179055505050565b60008060009054906101000a900473ffffffffffffffffffffffffffffffffffffffff1673ffffffffffffffffffffffffffffffffffffffff166370a08231336040518263ffffffff1660e01b815260040161140291906132e7565b602060405180830381865afa15801561141f573d6000803e3d6000fd5b505050506040513d601f19601f820116820180604052508101906114439190613959565b90506000826011546114559190614011565b905060008054906101000a900473ffffffffffffffffffffffffffffffffffffffff1673ffffffffffffffffffffffffffffffffffffffff166323b872dd3330846040518463ffffffff1660e01b81526004016114b493929190613a5e565b6020604051808303816000875af11580156114d3573d6000803e3d6000fd5b505050506040513d601f19601f820116820180604052508101906114f79190613aaa565b50600160009054906101000a900473ffffffffffffffffffffffffffffffffffffffff1673ffffffffffffffffffffffffffffffffffffffff1663f242432a303387876040518563ffffffff1660e01b8152600401611559949392919061408a565b600060405180830381600087803b15801561157357600080fd5b505af1158015611587573d6000803e3d6000fd5b505050507fb30f5ca9d541fe04588c910f69c1e7c2456b7822e7073df9b59908509cbc4f4d3385856040516115be939291906140e2565b60405180910390a150505050565b600c60009054906101000a900473ffffffffffffffffffffffffffffffffffffffff1673ffffffffffffffffffffffffffffffffffffffff163373ffffffffffffffffffffffffffffffffffffffff161461165c576040517f08c379a000000000000000000000000000000000000000000000000000000000815260040161165390613b23565b60405180910390fd5b600f54600e54106116a2576040517f08c379a000000000000000000000000000000000000000000000000000000000815260040161169990614165565b60405180910390fd5b60008360ff1660968111156116ba576116b96136ff565b5b90506116c4612feb565b600e5481600001818152505033816020019073ffffffffffffffffffffffffffffffffffffffff16908173ffffffffffffffffffffffffffffffffffffffff168152505081816040019060968111156117205761171f6136ff565b5b90816096811115611734576117336136ff565b5b8152505060028560ff166097811061174f5761174e614185565b5b602091828204019190069054906101000a900460ff168160a0019060ff16908160ff168152505060078560ff166097811061178d5761178c614185565b5b602091828204019190069054906101000a900460ff168160c001901515908115158152505083816060018181525050828160800190151590811515815250503381610160019073ffffffffffffffffffffffffffffffffffffffff16908173ffffffffffffffffffffffffffffffffffffffff168152505061180f6029610ddd565b606461181b91906141b4565b60ff168160e00181815250506118316029610ddd565b606461183d91906141b4565b60ff16816101000181815250506118546029610ddd565b606461186091906141b4565b60ff16816101200181815250506118776029610ddd565b606461188391906141b4565b60ff168161014001818152505080600d6000600e5481526020019081526020016000206000820151816000015560208201518160010160006101000a81548173ffffffffffffffffffffffffffffffffffffffff021916908373ffffffffffffffffffffffffffffffffffffffff16021790555060408201518160010160146101000a81548160ff02191690836096811115611922576119216136ff565b5b02179055506060820151816002015560808201518160030160006101000a81548160ff02191690831515021790555060a08201518160030160016101000a81548160ff021916908360ff16021790555060c08201518160030160026101000a81548160ff02191690831515021790555060e082015181600401556101008201518160050155610120820151816006015561014082015181600701556101608201518160080160006101000a81548173ffffffffffffffffffffffffffffffffffffffff021916908373ffffffffffffffffffffffffffffffffffffffff160217905550905050600e6000815480929190611a1b90613de5565b91905055507fb6d21026ac3ab2edc35f484b1bb7362a0287a0629b892a158b6907a04deba22d8160000151604051611a539190613311565b60405180910390a15050505050565b60145481565b600c60009054906101000a900473ffffffffffffffffffffffffffffffffffffffff1673ffffffffffffffffffffffffffffffffffffffff163373ffffffffffffffffffffffffffffffffffffffff1614611af8576040517f08c379a0000000000000000000000000000000000000000000000000000000008152600401611aef90613b23565b60405180910390fd5b60008060009054906101000a900473ffffffffffffffffffffffffffffffffffffffff1673ffffffffffffffffffffffffffffffffffffffff1663dd62ed3e33306040518363ffffffff1660e01b8152600401611b569291906141e9565b602060405180830381865afa158015611b73573d6000803e3d6000fd5b505050506040513d601f19601f82011682018060405250810190611b979190613959565b905081811015611bdc576040517f08c379a0000000000000000000000000000000000000000000000000000000008152600401611bd39061425e565b60405180910390fd5b60008054906101000a900473ffffffffffffffffffffffffffffffffffffffff1673ffffffffffffffffffffffffffffffffffffffff166323b872dd3330856040518463ffffffff1660e01b8152600401611c3993929190613a5e565b6020604051808303816000875af1158015611c58573d6000803e3d6000fd5b505050506040513d601f19601f82011682018060405250810190611c7c9190613aaa565b505050565b600063bc197c8160e01b905095945050505050565b60008054906101000a900473ffffffffffffffffffffffffffffffffffffffff1673ffffffffffffffffffffffffffffffffffffffff166340c10f1933836040518363ffffffff1660e01b8152600401611cf1929190613baf565b600060405180830381600087803b158015611d0b57600080fd5b505af1158015611d1f573d6000803e3d6000fd5b5050505050565b600060115482611d369190614011565b905060008054906101000a900473ffffffffffffffffffffffffffffffffffffffff1673ffffffffffffffffffffffffffffffffffffffff1663a9059cbb33836040518363ffffffff1660e01b8152600401611d93929190613baf565b6020604051808303816000875af1158015611db2573d6000803e3d6000fd5b505050506040513d601f19601f82011682018060405250810190611dd69190613aaa565b50600160009054906101000a900473ffffffffffffffffffffffffffffffffffffffff1673ffffffffffffffffffffffffffffffffffffffff1663f242432a333086866040518563ffffffff1660e01b8152600401611e38949392919061408a565b600060405180830381600087803b158015611e5257600080fd5b505af1158015611e66573d6000803e3d6000fd5b505050507ff2082e83ef8b94076d0d23e425eda9735767f9056d494ba309f480a835849e4d338484604051611e9d939291906140e2565b60405180910390a1505050565b6000600d60008481526020019081526020016000206004015490506000600d60008481526020019081526020016000206004015490506000600d600085815260200190815260200160002060070154600d6000878152602001908152602001600020600701541115611f5857611f208585612e1f565b60ff16821015611f3257849050611f53565b611f3c8486612e1f565b60ff16831015611f4e57839050611f52565b8490505b5b611f96565b611f628486612e1f565b60ff16831015611f7457839050611f95565b611f7e8585612e1f565b60ff16821015611f9057849050611f94565b8390505b5b5b3373ffffffffffffffffffffffffffffffffffffffff16600d600083815260200190815260200160002060010160009054906101000a900473ffffffffffffffffffffffffffffffffffffffff1673ffffffffffffffffffffffffffffffffffffffff160361206e576000600161200d6064610ddd565b61201791906141b4565b60ff16601354612027919061427e565b90506120338133612e66565b7f79ef545e967eee66f30bc0ea214bd902f628ce7a939427ebd830ceaa54693d5c81336040516120649291906142af565b60405180910390a1505b3373ffffffffffffffffffffffffffffffffffffffff167fe3fe608e8e5086bb60b2f4450919e886efff58c3a567fdda594ff7687692b0a4826040516120b49190613311565b60405180910390a25050505050565b600f5481565b600d6020528060005260406000206000915090508060000154908060010160009054906101000a900473ffffffffffffffffffffffffffffffffffffffff16908060010160149054906101000a900460ff16908060020154908060030160009054906101000a900460ff16908060030160019054906101000a900460ff16908060030160029054906101000a900460ff16908060040154908060050154908060060154908060070154908060080160009054906101000a900473ffffffffffffffffffffffffffffffffffffffff1690508c565b600063f23a6e6160e01b905095945050505050565b60125481565b60007f01ffc9a7000000000000000000000000000000000000000000000000000000007bffffffffffffffffffffffffffffffffffffffffffffffffffffffff1916827bffffffffffffffffffffffffffffffffffffffffffffffffffffffff1916149050919050565b6000806040518060a00160405280600060ff168152602001602a60ff168152602001603b60ff168152602001604460ff168152602001607160ff16815250905060006040518060c00160405280600360ff168152602001602460ff168152602001603960ff168152602001604c60ff168152602001607d60ff168152602001609160ff1681525090506000604051806102000160405280600660ff168152602001603560ff168152602001603b60ff168152602001604760ff168152602001604e60ff168152602001605560ff168152602001605960ff168152602001606160ff168152602001607360ff168152602001607560ff168152602001607760ff168152602001608060ff168152602001608260ff168152602001608960ff168152602001608b60ff168152602001608f60ff16815250905060006040518060c00160405280600960ff168152602001600c60ff168152602001602d60ff168152602001602f60ff168152602001607a60ff168152602001607e60ff1681525090506000604051806102600160405280600f60ff168152602001601260ff168152602001601460ff168152602001601c60ff168152602001601f60ff168152602001602260ff168152602001602660ff168152602001603360ff168152602001603760ff168152602001604160ff168152602001605260ff168152602001605360ff168152602001606960ff168152602001606b60ff168152602001607060ff168152602001607f60ff168152602001608860ff168152602001608d60ff168152602001608e60ff16815250905060006040518060800160405280601660ff168152602001602860ff168152602001605760ff168152602001606c60ff16815250905060006040518060a00160405280601860ff168152602001605060ff168152602001606360ff168152602001607c60ff168152602001609060ff16815250905060006040518060e00160405280601a60ff168152602001603160ff168152602001604960ff168152602001605e60ff168152602001606760ff168152602001606e60ff168152602001607260ff1681525090506000604051806101000160405280603e60ff168152602001605b60ff168152602001605f60ff168152602001606560ff168152602001607960ff168152602001607b60ff168152602001609260ff168152602001609560ff16815250905060006009600d60008e815260200190815260200160002060030160019054906101000a900460ff1660ff16036125ee57600d60008e815260200190815260200160002060010160149054906101000a900460ff169050612e0c565b6009600d60008f815260200190815260200160002060030160019054906101000a900460ff1660ff160361264757600d60008d815260200190815260200160002060010160149054906101000a900460ff169050612e0b565b600a600d60008f815260200190815260200160002060030160019054906101000a900460ff1660ff160361276e576001600d60008e815260200190815260200160002060030160019054906101000a900460ff1660ff16036126be57608760968111156126b7576126b66136ff565b5b9050612769565b6002600d60008e815260200190815260200160002060030160019054906101000a900460ff1660ff16036127075760856096811115612700576126ff6136ff565b5b9050612768565b6006600d60008e815260200190815260200160002060030160019054906101000a900460ff1660ff16036127505760866096811115612749576127486136ff565b5b9050612767565b60846096811115612764576127636136ff565b5b90505b5b5b612e0a565b600a600d60008e815260200190815260200160002060030160019054906101000a900460ff1660ff1603612895576001600d60008f815260200190815260200160002060030160019054906101000a900460ff1660ff16036127e557608760968111156127de576127dd6136ff565b5b9050612890565b6002600d60008f815260200190815260200160002060030160019054906101000a900460ff1660ff160361282e5760856096811115612827576128266136ff565b5b905061288f565b6006600d60008f815260200190815260200160002060030160019054906101000a900460ff1660ff160361287757608660968111156128705761286f6136ff565b5b905061288e565b6084609681111561288b5761288a6136ff565b5b90505b5b5b612e09565b600d60008d815260200190815260200160002060030160019054906101000a900460ff1660ff16600d60008f815260200190815260200160002060030160019054906101000a900460ff1660ff1603612df157600d60008d815260200190815260200160002060010160149054906101000a900460ff16609681111561291e5761291d6136ff565b5b600d60008f815260200190815260200160002060010160149054906101000a900460ff166096811115612954576129536136ff565b5b03612a0957600d60008e815260200190815260200160002060030160029054906101000a900460ff16156129dd576001600d60008f815260200190815260200160002060010160149054906101000a900460ff1660968111156129ba576129b96136ff565b5b6129c49190613f05565b60968111156129d6576129d56136ff565b5b9050612a04565b600d60008e815260200190815260200160002060010160149054906101000a900460ff1690505b612dec565b6000600d60008f815260200190815260200160002060030160019054906101000a900460ff1660ff1603612a775789612a426005610ddd565b60ff1660058110612a5657612a55614185565b5b602002015160ff166096811115612a7057612a6f6136ff565b5b9050612deb565b6001600d60008f815260200190815260200160002060030160019054906101000a900460ff1660ff1603612ae55788612ab06006610ddd565b60ff1660068110612ac457612ac3614185565b5b602002015160ff166096811115612ade57612add6136ff565b5b9050612dea565b6002600d60008f815260200190815260200160002060030160019054906101000a900460ff1660ff1603612b535787612b1e6010610ddd565b60ff1660108110612b3257612b31614185565b5b602002015160ff166096811115612b4c57612b4b6136ff565b5b9050612de9565b6003600d60008f815260200190815260200160002060030160019054906101000a900460ff1660ff1603612bc15786612b8c6006610ddd565b60ff1660068110612ba057612b9f614185565b5b602002015160ff166096811115612bba57612bb96136ff565b5b9050612de8565b6004600d60008f815260200190815260200160002060030160019054906101000a900460ff1660ff1603612c2f5785612bfa6013610ddd565b60ff1660138110612c0e57612c0d614185565b5b602002015160ff166096811115612c2857612c276136ff565b5b9050612de7565b6005600d60008f815260200190815260200160002060030160019054906101000a900460ff1660ff1603612c9d5784612c686004610ddd565b60ff1660048110612c7c57612c7b614185565b5b602002015160ff166096811115612c9657612c956136ff565b5b9050612de6565b6006600d60008f815260200190815260200160002060030160019054906101000a900460ff1660ff1603612d0b5783612cd66005610ddd565b60ff1660058110612cea57612ce9614185565b5b602002015160ff166096811115612d0457612d036136ff565b5b9050612de5565b6007600d60008f815260200190815260200160002060030160019054906101000a900460ff1660ff1603612d795782612d446007610ddd565b60ff1660078110612d5857612d57614185565b5b602002015160ff166096811115612d7257612d716136ff565b5b9050612de4565b6008600d60008f815260200190815260200160002060030160019054906101000a900460ff1660ff1603612de35781612db26008610ddd565b60ff1660088110612dc657612dc5614185565b5b602002015160ff166096811115612de057612ddf6136ff565b5b90505b5b5b5b5b5b5b5b5b5b612e08565b60806096811115612e0557612e046136ff565b5b90505b5b5b5b5b809a505050505050505050505092915050565b6000600d600083815260200190815260200160002060060154600d60008581526020019081526020016000206005015411612e5b576005612e5e565b600a5b905092915050565b60008060009054906101000a900473ffffffffffffffffffffffffffffffffffffffff1673ffffffffffffffffffffffffffffffffffffffff166370a08231306040518263ffffffff1660e01b8152600401612ec291906132e7565b602060405180830381865afa158015612edf573d6000803e3d6000fd5b505050506040513d601f19601f82011682018060405250810190612f039190613959565b9050828111612f47576040517f08c379a0000000000000000000000000000000000000000000000000000000008152600401612f3e90614324565b60405180910390fd5b60008054906101000a900473ffffffffffffffffffffffffffffffffffffffff1673ffffffffffffffffffffffffffffffffffffffff1663a9059cbb83856040518363ffffffff1660e01b8152600401612fa2929190613baf565b6020604051808303816000875af1158015612fc1573d6000803e3d6000fd5b505050506040513d601f19601f82011682018060405250810190612fe59190613aaa565b50505050565b60405180610180016040528060008152602001600073ffffffffffffffffffffffffffffffffffffffff1681526020016000609681111561302f5761302e6136ff565b5b815260200160008152602001600015158152602001600060ff16815260200160001515815260200160008152602001600081526020016000815260200160008152602001600073ffffffffffffffffffffffffffffffffffffffff1681525090565b6000604051905090565b600080fd5b600080fd5b60007fffffffff0000000000000000000000000000000000000000000000000000000082169050919050565b6130da816130a5565b81146130e557600080fd5b50565b6000813590506130f7816130d1565b92915050565b6000602082840312156131135761311261309b565b5b6000613121848285016130e8565b91505092915050565b60008115159050919050565b61313f8161312a565b82525050565b600060208201905061315a6000830184613136565b92915050565b6000819050919050565b61317381613160565b811461317e57600080fd5b50565b6000813590506131908161316a565b92915050565b600073ffffffffffffffffffffffffffffffffffffffff82169050919050565b60006131c182613196565b9050919050565b6131d1816131b6565b81146131dc57600080fd5b50565b6000813590506131ee816131c8565b92915050565b6000806040838503121561320b5761320a61309b565b5b600061321985828601613181565b925050602061322a858286016131df565b9150509250929050565b60006020828403121561324a5761324961309b565b5b600061325884828501613181565b91505092915050565b600080604083850312156132785761327761309b565b5b600061328685828601613181565b925050602061329785828601613181565b9150509250929050565b600060ff82169050919050565b6132b7816132a1565b82525050565b60006020820190506132d260008301846132ae565b92915050565b6132e1816131b6565b82525050565b60006020820190506132fc60008301846132d8565b92915050565b61330b81613160565b82525050565b60006020820190506133266000830184613302565b92915050565b613335816132a1565b811461334057600080fd5b50565b6000813590506133528161332c565b92915050565b6133618161312a565b811461336c57600080fd5b50565b60008135905061337e81613358565b92915050565b60008060006060848603121561339d5761339c61309b565b5b60006133ab86828701613343565b93505060206133bc86828701613181565b92505060406133cd8682870161336f565b9150509250925092565b600080fd5b6000601f19601f8301169050919050565b7f4e487b7100000000000000000000000000000000000000000000000000000000600052604160045260246000fd5b613425826133dc565b810181811067ffffffffffffffff82111715613444576134436133ed565b5b80604052505050565b6000613457613091565b9050613463828261341c565b919050565b600067ffffffffffffffff821115613483576134826133ed565b5b602082029050602081019050919050565b600080fd5b60006134ac6134a784613468565b61344d565b905080838252602082019050602084028301858111156134cf576134ce613494565b5b835b818110156134f857806134e48882613181565b8452602084019350506020810190506134d1565b5050509392505050565b600082601f830112613517576135166133d7565b5b8135613527848260208601613499565b91505092915050565b600080fd5b600067ffffffffffffffff8211156135505761354f6133ed565b5b613559826133dc565b9050602081019050919050565b82818337600083830152505050565b600061358861358384613535565b61344d565b9050828152602081018484840111156135a4576135a3613530565b5b6135af848285613566565b509392505050565b600082601f8301126135cc576135cb6133d7565b5b81356135dc848260208601613575565b91505092915050565b600080600080600060a086880312156136015761360061309b565b5b600061360f888289016131df565b9550506020613620888289016131df565b945050604086013567ffffffffffffffff811115613641576136406130a0565b5b61364d88828901613502565b935050606086013567ffffffffffffffff81111561366e5761366d6130a0565b5b61367a88828901613502565b925050608086013567ffffffffffffffff81111561369b5761369a6130a0565b5b6136a7888289016135b7565b9150509295509295909350565b6136bd816130a5565b82525050565b60006020820190506136d860008301846136b4565b92915050565b60006136e982613196565b9050919050565b6136f9816136de565b82525050565b7f4e487b7100000000000000000000000000000000000000000000000000000000600052602160045260246000fd5b6097811061373f5761373e6136ff565b5b50565b60008190506137508261372e565b919050565b600061376082613742565b9050919050565b61377081613755565b82525050565b60006101808201905061378c600083018f613302565b613799602083018e6136f0565b6137a6604083018d613767565b6137b3606083018c613302565b6137c0608083018b613136565b6137cd60a083018a6132ae565b6137da60c0830189613136565b6137e760e0830188613302565b6137f5610100830187613302565b613803610120830186613302565b613811610140830185613302565b61381f6101608301846132d8565b9d9c50505050505050505050505050565b600080600080600060a0868803121561384c5761384b61309b565b5b600061385a888289016131df565b955050602061386b888289016131df565b945050604061387c88828901613181565b935050606061388d88828901613181565b925050608086013567ffffffffffffffff8111156138ae576138ad6130a0565b5b6138ba888289016135b7565b9150509295509295909350565b600082825260208201905092915050565b7f6e6f74206f776e65722e2063616e27742073746172742073686172696e670000600082015250565b600061390e601e836138c7565b9150613919826138d8565b602082019050919050565b6000602082019050818103600083015261393d81613901565b9050919050565b6000815190506139538161316a565b92915050565b60006020828403121561396f5761396e61309b565b5b600061397d84828501613944565b91505092915050565b7f6e6f20656e6f7567746820746f6b656e20746f20627579206d6f6e7374657200600082015250565b60006139bc601f836138c7565b91506139c782613986565b602082019050919050565b600060208201905081810360008301526139eb816139af565b9050919050565b7f6e6f20696e2073656c6c00000000000000000000000000000000000000000000600082015250565b6000613a28600a836138c7565b9150613a33826139f2565b602082019050919050565b60006020820190508181036000830152613a5781613a1b565b9050919050565b6000606082019050613a7360008301866132d8565b613a8060208301856132d8565b613a8d6040830184613302565b949350505050565b600081519050613aa481613358565b92915050565b600060208284031215613ac057613abf61309b565b5b6000613ace84828501613a95565b91505092915050565b7f6e6f74206f776e65722100000000000000000000000000000000000000000000600082015250565b6000613b0d600a836138c7565b9150613b1882613ad7565b602082019050919050565b60006020820190508181036000830152613b3c81613b00565b9050919050565b7f4e6f7420656e6f75676820746f6b656e7320696e207468652072657365727665600082015250565b6000613b796020836138c7565b9150613b8482613b43565b602082019050919050565b60006020820190508181036000830152613ba881613b6c565b9050919050565b6000604082019050613bc460008301856132d8565b613bd16020830184613302565b9392505050565b7f6d6f6e7374657220626967657220746865206d61780000000000000000000000600082015250565b6000613c0e6015836138c7565b9150613c1982613bd8565b602082019050919050565b60006020820190508181036000830152613c3d81613c01565b9050919050565b7f6e6f74206f776e65720000000000000000000000000000000000000000000000600082015250565b6000613c7a6009836138c7565b9150613c8582613c44565b602082019050919050565b60006020820190508181036000830152613ca981613c6d565b9050919050565b6000819050919050565b613ccb613cc682613160565b613cb0565b82525050565b60008160601b9050919050565b6000613ce982613cd1565b9050919050565b6000613cfb82613cde565b9050919050565b613d13613d0e826131b6565b613cf0565b82525050565b6000613d258286613cba565b602082019150613d358285613d02565b601482019150613d458284613cba565b602082019150819050949350505050565b7f4e487b7100000000000000000000000000000000000000000000000000000000600052601260045260246000fd5b6000613d9082613160565b9150613d9b83613160565b925082613dab57613daa613d56565b5b828206905092915050565b7f4e487b7100000000000000000000000000000000000000000000000000000000600052601160045260246000fd5b6000613df082613160565b91507fffffffffffffffffffffffffffffffffffffffffffffffffffffffffffffffff8203613e2257613e21613db6565b5b600182019050919050565b7f6e6f742073616c65000000000000000000000000000000000000000000000000600082015250565b6000613e636008836138c7565b9150613e6e82613e2d565b602082019050919050565b60006020820190508181036000830152613e9281613e56565b9050919050565b7f6e6f206d6f6e73746572206f776e657200000000000000000000000000000000600082015250565b6000613ecf6010836138c7565b9150613eda82613e99565b602082019050919050565b60006020820190508181036000830152613efe81613ec2565b9050919050565b6000613f1082613160565b9150613f1b83613160565b9250828201905080821115613f3357613f32613db6565b5b92915050565b7f69732073616c6500000000000000000000000000000000000000000000000000600082015250565b6000613f6f6007836138c7565b9150613f7a82613f39565b602082019050919050565b60006020820190508181036000830152613f9e81613f62565b9050919050565b7f6e6f74206f776e65722e2063616e27742073746f702073686172696e67000000600082015250565b6000613fdb601d836138c7565b9150613fe682613fa5565b602082019050919050565b6000602082019050818103600083015261400a81613fce565b9050919050565b600061401c82613160565b915061402783613160565b925082820261403581613160565b9150828204841483151761404c5761404b613db6565b5b5092915050565b600082825260208201905092915050565b50565b6000614074600083614053565b915061407f82614064565b600082019050919050565b600060a08201905061409f60008301876132d8565b6140ac60208301866132d8565b6140b96040830185613302565b6140c66060830184613302565b81810360808301526140d781614067565b905095945050505050565b60006060820190506140f760008301866132d8565b6141046020830185613302565b6141116040830184613302565b949350505050565b7f746f74616c4d6f6e73746572206269676572207468656e206d61780000000000600082015250565b600061414f601b836138c7565b915061415a82614119565b602082019050919050565b6000602082019050818103600083015261417e81614142565b9050919050565b7f4e487b7100000000000000000000000000000000000000000000000000000000600052603260045260246000fd5b60006141bf826132a1565b91506141ca836132a1565b9250828201905060ff8111156141e3576141e2613db6565b5b92915050565b60006040820190506141fe60008301856132d8565b61420b60208301846132d8565b9392505050565b7f436865636b20796f757220746f6b656e20616c6c6f77616e6365000000000000600082015250565b6000614248601a836138c7565b915061425382614212565b602082019050919050565b600060208201905081810360008301526142778161423b565b9050919050565b600061428982613160565b915061429483613160565b9250826142a4576142a3613d56565b5b828204905092915050565b60006040820190506142c46000830185613302565b6142d160208301846132d8565b9392505050565b7f6e6f20656e6f75677468206d6f6e65792073656e6420746f206d736700000000600082015250565b600061430e601c836138c7565b9150614319826142d8565b602082019050919050565b6000602082019050818103600083015261433d81614301565b905091905056fea2646970667358221220adf92bec1a29ef09e8d397bccaa63e169e7522d3fca99b763fcb43c6891171a464736f6c63430008140033",
  "linkReferences": {},
  "deployedLinkReferences": {}
}